{
	"Auction.sol": {
		"Auction": {
			"abi": [
				{
					"constant": false,
					"inputs": [],
					"name": "register",
					"outputs": [],
					"payable": true,
					"stateMutability": "payable",
					"type": "function"
				},
				{
					"constant": true,
					"inputs": [],
					"name": "beneficiary",
					"outputs": [
						{
							"name": "",
							"type": "address"
						}
					],
					"payable": false,
					"stateMutability": "view",
					"type": "function"
				},
				{
					"constant": false,
					"inputs": [
						{
							"name": "_itemId",
							"type": "uint256"
						},
						{
							"name": "_count",
							"type": "uint256"
						}
					],
					"name": "bid",
					"outputs": [],
					"payable": true,
					"stateMutability": "payable",
					"type": "function"
				},
				{
					"constant": true,
					"inputs": [
						{
							"name": "id",
							"type": "uint256"
						}
					],
					"name": "getPersonDetails",
					"outputs": [
						{
							"name": "",
							"type": "uint256"
						},
						{
							"name": "",
							"type": "uint256"
						},
						{
							"name": "",
							"type": "address"
						}
					],
					"payable": false,
					"stateMutability": "view",
					"type": "function"
				},
				{
					"constant": false,
					"inputs": [],
					"name": "revealWinners",
					"outputs": [],
					"payable": false,
					"stateMutability": "nonpayable",
					"type": "function"
				},
				{
					"constant": true,
					"inputs": [
						{
							"name": "",
							"type": "uint256"
						}
					],
					"name": "winners",
					"outputs": [
						{
							"name": "",
							"type": "address"
						}
					],
					"payable": false,
					"stateMutability": "view",
					"type": "function"
				},
				{
					"constant": true,
					"inputs": [
						{
							"name": "",
							"type": "uint256"
						}
					],
					"name": "items",
					"outputs": [
						{
							"name": "itemId",
							"type": "uint256"
						}
					],
					"payable": false,
					"stateMutability": "view",
					"type": "function"
				},
				{
					"inputs": [],
					"payable": true,
					"stateMutability": "payable",
					"type": "constructor"
				}
			],
			"devdoc": {
				"methods": {}
			},
			"evm": {
				"assembly": "    /* \"Auction.sol\":24:4293  contract Auction {... */\n  mstore(0x40, 0x80)\n    /* \"Auction.sol\":812:813  0 */\n  0x00\n    /* \"Auction.sol\":793:813  uint bidderCount = 0 */\n  0x17\n  sstore\n    /* \"Auction.sol\":906:916  msg.sender */\n  caller\n    /* \"Auction.sol\":892:903  beneficiary */\n  0x16\n  0x00\n    /* \"Auction.sol\":892:916  beneficiary = msg.sender */\n  0x0100\n  exp\n  dup2\n  sload\n  dup2\n  0xffffffffffffffffffffffffffffffffffffffff\n  mul\n  not\n  and\n  swap1\n  dup4\n  0xffffffffffffffffffffffffffffffffffffffff\n  and\n  mul\n  or\n  swap1\n  sstore\n  pop\n    /* \"Auction.sol\":926:950  uint[] memory emptyArray */\n  0x60\n    /* \"Auction.sol\":971:1010  Item({itemId:0, itemTokens:emptyArray}) */\n  mload(0x40)\n  dup1\n  0x40\n  add\n  0x40\n  mstore\n  dup1\n    /* \"Auction.sol\":984:985  0 */\n  0x00\n    /* \"Auction.sol\":971:1010  Item({itemId:0, itemTokens:emptyArray}) */\n  dup2\n  mstore\n  0x20\n  add\n    /* \"Auction.sol\":998:1008  emptyArray */\n  dup3\n    /* \"Auction.sol\":971:1010  Item({itemId:0, itemTokens:emptyArray}) */\n  dup2\n  mstore\n  pop\n    /* \"Auction.sol\":960:965  items */\n  0x0d\n    /* \"Auction.sol\":966:967  0 */\n  0x00\n    /* \"Auction.sol\":960:968  items[0] */\n  0x03\n  dup2\n  lt\n  tag_3\n  jumpi\n  invalid\ntag_3:\n  0x02\n  mul\n  add\n    /* \"Auction.sol\":960:1010  items[0] = Item({itemId:0, itemTokens:emptyArray}) */\n  0x00\n  dup3\n  add\n  mload\n  dup2\n  0x00\n  add\n  sstore\n  0x20\n  dup3\n  add\n  mload\n  dup2\n  0x01\n  add\n  swap1\n  dup1\n  mload\n  swap1\n  0x20\n  add\n  swap1\n  tag_5\n  swap3\n  swap2\n  swap1\n  tag_6\n  jump\t// in\ntag_5:\n  pop\n  swap1\n  pop\n  pop\n    /* \"Auction.sol\":1031:1070  Item({itemId:1, itemTokens:emptyArray}) */\n  mload(0x40)\n  dup1\n  0x40\n  add\n  0x40\n  mstore\n  dup1\n    /* \"Auction.sol\":1044:1045  1 */\n  0x01\n    /* \"Auction.sol\":1031:1070  Item({itemId:1, itemTokens:emptyArray}) */\n  dup2\n  mstore\n  0x20\n  add\n    /* \"Auction.sol\":1058:1068  emptyArray */\n  dup3\n    /* \"Auction.sol\":1031:1070  Item({itemId:1, itemTokens:emptyArray}) */\n  dup2\n  mstore\n  pop\n    /* \"Auction.sol\":1020:1025  items */\n  0x0d\n    /* \"Auction.sol\":1026:1027  1 */\n  0x01\n    /* \"Auction.sol\":1020:1028  items[1] */\n  0x03\n  dup2\n  lt\n  tag_7\n  jumpi\n  invalid\ntag_7:\n  0x02\n  mul\n  add\n    /* \"Auction.sol\":1020:1070  items[1] = Item({itemId:1, itemTokens:emptyArray}) */\n  0x00\n  dup3\n  add\n  mload\n  dup2\n  0x00\n  add\n  sstore\n  0x20\n  dup3\n  add\n  mload\n  dup2\n  0x01\n  add\n  swap1\n  dup1\n  mload\n  swap1\n  0x20\n  add\n  swap1\n  tag_9\n  swap3\n  swap2\n  swap1\n  tag_6\n  jump\t// in\ntag_9:\n  pop\n  swap1\n  pop\n  pop\n    /* \"Auction.sol\":1091:1130  Item({itemId:2, itemTokens:emptyArray}) */\n  mload(0x40)\n  dup1\n  0x40\n  add\n  0x40\n  mstore\n  dup1\n    /* \"Auction.sol\":1104:1105  2 */\n  0x02\n    /* \"Auction.sol\":1091:1130  Item({itemId:2, itemTokens:emptyArray}) */\n  dup2\n  mstore\n  0x20\n  add\n    /* \"Auction.sol\":1118:1128  emptyArray */\n  dup3\n    /* \"Auction.sol\":1091:1130  Item({itemId:2, itemTokens:emptyArray}) */\n  dup2\n  mstore\n  pop\n    /* \"Auction.sol\":1080:1085  items */\n  0x0d\n    /* \"Auction.sol\":1086:1087  2 */\n  0x02\n    /* \"Auction.sol\":1080:1088  items[2] */\n  0x03\n  dup2\n  lt\n  tag_10\n  jumpi\n  invalid\ntag_10:\n  0x02\n  mul\n  add\n    /* \"Auction.sol\":1080:1130  items[2] = Item({itemId:2, itemTokens:emptyArray}) */\n  0x00\n  dup3\n  add\n  mload\n  dup2\n  0x00\n  add\n  sstore\n  0x20\n  dup3\n  add\n  mload\n  dup2\n  0x01\n  add\n  swap1\n  dup1\n  mload\n  swap1\n  0x20\n  add\n  swap1\n  tag_12\n  swap3\n  swap2\n  swap1\n  tag_6\n  jump\t// in\ntag_12:\n  pop\n  swap1\n  pop\n  pop\n    /* \"Auction.sol\":850:1137  constructor() public payable{    ... */\n  pop\n    /* \"Auction.sol\":24:4293  contract Auction {... */\n  jump(tag_13)\ntag_6:\n  dup3\n  dup1\n  sload\n  dup3\n  dup3\n  sstore\n  swap1\n  0x00\n  mstore\n  keccak256(0x00, 0x20)\n  swap1\n  dup2\n  add\n  swap3\n  dup3\n  iszero\n  tag_14\n  jumpi\n  swap2\n  0x20\n  mul\n  dup3\n  add\ntag_15:\n  dup3\n  dup2\n  gt\n  iszero\n  tag_16\n  jumpi\n  dup3\n  mload\n  dup3\n  sstore\n  swap2\n  0x20\n  add\n  swap2\n  swap1\n  0x01\n  add\n  swap1\n  jump(tag_15)\ntag_16:\ntag_14:\n  pop\n  swap1\n  pop\n  tag_17\n  swap2\n  swap1\n  tag_18\n  jump\t// in\ntag_17:\n  pop\n  swap1\n  jump\t// out\ntag_18:\n  tag_19\n  swap2\n  swap1\ntag_20:\n  dup1\n  dup3\n  gt\n  iszero\n  tag_21\n  jumpi\n  0x00\n  dup2\n  0x00\n  swap1\n  sstore\n  pop\n  0x01\n  add\n  jump(tag_20)\ntag_21:\n  pop\n  swap1\n  jump\ntag_19:\n  swap1\n  jump\t// out\ntag_13:\n  dataSize(sub_0)\n  dup1\n  dataOffset(sub_0)\n  0x00\n  codecopy\n  0x00\n  return\nstop\n\nsub_0: assembly {\n        /* \"Auction.sol\":24:4293  contract Auction {... */\n      mstore(0x40, 0x80)\n      jumpi(tag_1, lt(calldatasize, 0x04))\n      shr(0xe0, calldataload(0x00))\n      dup1\n      0x60981705\n      gt\n      tag_9\n      jumpi\n      dup1\n      0x60981705\n      eq\n      tag_5\n      jumpi\n      dup1\n      0x952587d6\n      eq\n      tag_6\n      jumpi\n      dup1\n      0xa2fb1175\n      eq\n      tag_7\n      jumpi\n      dup1\n      0xbfb231d2\n      eq\n      tag_8\n      jumpi\n      jump(tag_1)\n    tag_9:\n      dup1\n      0x1aa3a008\n      eq\n      tag_2\n      jumpi\n      dup1\n      0x38af3eed\n      eq\n      tag_3\n      jumpi\n      dup1\n      0x598647f8\n      eq\n      tag_4\n      jumpi\n    tag_1:\n      0x00\n      dup1\n      revert\n        /* \"Auction.sol\":1148:1430  function register() public payable{... */\n    tag_2:\n      tag_10\n      tag_11\n      jump\t// in\n    tag_10:\n      stop\n        /* \"Auction.sol\":727:753  address public beneficiary */\n    tag_3:\n      callvalue\n        /* \"--CODEGEN--\":8:17   */\n      dup1\n        /* \"--CODEGEN--\":5:7   */\n      iszero\n      tag_12\n      jumpi\n        /* \"--CODEGEN--\":30:31   */\n      0x00\n        /* \"--CODEGEN--\":27:28   */\n      dup1\n        /* \"--CODEGEN--\":20:32   */\n      revert\n        /* \"--CODEGEN--\":5:7   */\n    tag_12:\n        /* \"Auction.sol\":727:753  address public beneficiary */\n      pop\n      tag_13\n      tag_14\n      jump\t// in\n    tag_13:\n      mload(0x40)\n      dup1\n      dup3\n      0xffffffffffffffffffffffffffffffffffffffff\n      and\n      0xffffffffffffffffffffffffffffffffffffffff\n      and\n      dup2\n      mstore\n      0x20\n      add\n      swap2\n      pop\n      pop\n      mload(0x40)\n      dup1\n      swap2\n      sub\n      swap1\n      return\n        /* \"Auction.sol\":1440:2746  function bid(uint _itemId, uint _count) public payable {... */\n    tag_4:\n      tag_15\n      0x04\n      dup1\n      calldatasize\n      sub\n        /* \"--CODEGEN--\":13:15   */\n      0x40\n        /* \"--CODEGEN--\":8:11   */\n      dup2\n        /* \"--CODEGEN--\":5:16   */\n      lt\n        /* \"--CODEGEN--\":2:4   */\n      iszero\n      tag_16\n      jumpi\n        /* \"--CODEGEN--\":29:30   */\n      0x00\n        /* \"--CODEGEN--\":26:27   */\n      dup1\n        /* \"--CODEGEN--\":19:31   */\n      revert\n        /* \"--CODEGEN--\":2:4   */\n    tag_16:\n        /* \"Auction.sol\":1440:2746  function bid(uint _itemId, uint _count) public payable {... */\n      dup2\n      add\n      swap1\n      dup1\n      dup1\n      calldataload\n      swap1\n      0x20\n      add\n      swap1\n      swap3\n      swap2\n      swap1\n      dup1\n      calldataload\n      swap1\n      0x20\n      add\n      swap1\n      swap3\n      swap2\n      swap1\n      pop\n      pop\n      pop\n      tag_17\n      jump\t// in\n    tag_15:\n      stop\n        /* \"Auction.sol\":4122:4290  function getPersonDetails(uint id) public view returns(uint, uint, address){... */\n    tag_5:\n      callvalue\n        /* \"--CODEGEN--\":8:17   */\n      dup1\n        /* \"--CODEGEN--\":5:7   */\n      iszero\n      tag_18\n      jumpi\n        /* \"--CODEGEN--\":30:31   */\n      0x00\n        /* \"--CODEGEN--\":27:28   */\n      dup1\n        /* \"--CODEGEN--\":20:32   */\n      revert\n        /* \"--CODEGEN--\":5:7   */\n    tag_18:\n        /* \"Auction.sol\":4122:4290  function getPersonDetails(uint id) public view returns(uint, uint, address){... */\n      pop\n      tag_19\n      0x04\n      dup1\n      calldatasize\n      sub\n        /* \"--CODEGEN--\":13:15   */\n      0x20\n        /* \"--CODEGEN--\":8:11   */\n      dup2\n        /* \"--CODEGEN--\":5:16   */\n      lt\n        /* \"--CODEGEN--\":2:4   */\n      iszero\n      tag_20\n      jumpi\n        /* \"--CODEGEN--\":29:30   */\n      0x00\n        /* \"--CODEGEN--\":26:27   */\n      dup1\n        /* \"--CODEGEN--\":19:31   */\n      revert\n        /* \"--CODEGEN--\":2:4   */\n    tag_20:\n        /* \"Auction.sol\":4122:4290  function getPersonDetails(uint id) public view returns(uint, uint, address){... */\n      dup2\n      add\n      swap1\n      dup1\n      dup1\n      calldataload\n      swap1\n      0x20\n      add\n      swap1\n      swap3\n      swap2\n      swap1\n      pop\n      pop\n      pop\n      tag_21\n      jump\t// in\n    tag_19:\n      mload(0x40)\n      dup1\n      dup5\n      dup2\n      mstore\n      0x20\n      add\n      dup4\n      dup2\n      mstore\n      0x20\n      add\n      dup3\n      0xffffffffffffffffffffffffffffffffffffffff\n      and\n      0xffffffffffffffffffffffffffffffffffffffff\n      and\n      dup2\n      mstore\n      0x20\n      add\n      swap4\n      pop\n      pop\n      pop\n      pop\n      mload(0x40)\n      dup1\n      swap2\n      sub\n      swap1\n      return\n        /* \"Auction.sol\":3049:4020  function revealWinners() public onlyOwner {... */\n    tag_6:\n      callvalue\n        /* \"--CODEGEN--\":8:17   */\n      dup1\n        /* \"--CODEGEN--\":5:7   */\n      iszero\n      tag_22\n      jumpi\n        /* \"--CODEGEN--\":30:31   */\n      0x00\n        /* \"--CODEGEN--\":27:28   */\n      dup1\n        /* \"--CODEGEN--\":20:32   */\n      revert\n        /* \"--CODEGEN--\":5:7   */\n    tag_22:\n        /* \"Auction.sol\":3049:4020  function revealWinners() public onlyOwner {... */\n      pop\n      tag_23\n      tag_24\n      jump\t// in\n    tag_23:\n      stop\n        /* \"Auction.sol\":666:691  address[3] public winners */\n    tag_7:\n      callvalue\n        /* \"--CODEGEN--\":8:17   */\n      dup1\n        /* \"--CODEGEN--\":5:7   */\n      iszero\n      tag_25\n      jumpi\n        /* \"--CODEGEN--\":30:31   */\n      0x00\n        /* \"--CODEGEN--\":27:28   */\n      dup1\n        /* \"--CODEGEN--\":20:32   */\n      revert\n        /* \"--CODEGEN--\":5:7   */\n    tag_25:\n        /* \"Auction.sol\":666:691  address[3] public winners */\n      pop\n      tag_26\n      0x04\n      dup1\n      calldatasize\n      sub\n        /* \"--CODEGEN--\":13:15   */\n      0x20\n        /* \"--CODEGEN--\":8:11   */\n      dup2\n        /* \"--CODEGEN--\":5:16   */\n      lt\n        /* \"--CODEGEN--\":2:4   */\n      iszero\n      tag_27\n      jumpi\n        /* \"--CODEGEN--\":29:30   */\n      0x00\n        /* \"--CODEGEN--\":26:27   */\n      dup1\n        /* \"--CODEGEN--\":19:31   */\n      revert\n        /* \"--CODEGEN--\":2:4   */\n    tag_27:\n        /* \"Auction.sol\":666:691  address[3] public winners */\n      dup2\n      add\n      swap1\n      dup1\n      dup1\n      calldataload\n      swap1\n      0x20\n      add\n      swap1\n      swap3\n      swap2\n      swap1\n      pop\n      pop\n      pop\n      tag_28\n      jump\t// in\n    tag_26:\n      mload(0x40)\n      dup1\n      dup3\n      0xffffffffffffffffffffffffffffffffffffffff\n      and\n      0xffffffffffffffffffffffffffffffffffffffff\n      and\n      dup2\n      mstore\n      0x20\n      add\n      swap2\n      pop\n      pop\n      mload(0x40)\n      dup1\n      swap2\n      sub\n      swap1\n      return\n        /* \"Auction.sol\":606:627  Item [3] public items */\n    tag_8:\n      callvalue\n        /* \"--CODEGEN--\":8:17   */\n      dup1\n        /* \"--CODEGEN--\":5:7   */\n      iszero\n      tag_29\n      jumpi\n        /* \"--CODEGEN--\":30:31   */\n      0x00\n        /* \"--CODEGEN--\":27:28   */\n      dup1\n        /* \"--CODEGEN--\":20:32   */\n      revert\n        /* \"--CODEGEN--\":5:7   */\n    tag_29:\n        /* \"Auction.sol\":606:627  Item [3] public items */\n      pop\n      tag_30\n      0x04\n      dup1\n      calldatasize\n      sub\n        /* \"--CODEGEN--\":13:15   */\n      0x20\n        /* \"--CODEGEN--\":8:11   */\n      dup2\n        /* \"--CODEGEN--\":5:16   */\n      lt\n        /* \"--CODEGEN--\":2:4   */\n      iszero\n      tag_31\n      jumpi\n        /* \"--CODEGEN--\":29:30   */\n      0x00\n        /* \"--CODEGEN--\":26:27   */\n      dup1\n        /* \"--CODEGEN--\":19:31   */\n      revert\n        /* \"--CODEGEN--\":2:4   */\n    tag_31:\n        /* \"Auction.sol\":606:627  Item [3] public items */\n      dup2\n      add\n      swap1\n      dup1\n      dup1\n      calldataload\n      swap1\n      0x20\n      add\n      swap1\n      swap3\n      swap2\n      swap1\n      pop\n      pop\n      pop\n      tag_32\n      jump\t// in\n    tag_30:\n      mload(0x40)\n      dup1\n      dup3\n      dup2\n      mstore\n      0x20\n      add\n      swap2\n      pop\n      pop\n      mload(0x40)\n      dup1\n      swap2\n      sub\n      swap1\n      return\n        /* \"Auction.sol\":1148:1430  function register() public payable{... */\n    tag_11:\n        /* \"Auction.sol\":1233:1244  bidderCount */\n      sload(0x17)\n        /* \"Auction.sol\":1201:1208  bidders */\n      0x01\n        /* \"Auction.sol\":1209:1220  bidderCount */\n      sload(0x17)\n        /* \"Auction.sol\":1201:1221  bidders[bidderCount] */\n      0x04\n      dup2\n      lt\n      tag_34\n      jumpi\n      invalid\n    tag_34:\n      0x03\n      mul\n      add\n        /* \"Auction.sol\":1201:1230  bidders[bidderCount].personId */\n      0x01\n      add\n        /* \"Auction.sol\":1201:1244  bidders[bidderCount].personId = bidderCount */\n      dup2\n      swap1\n      sstore\n      pop\n        /* \"Auction.sol\":1282:1292  msg.sender */\n      caller\n        /* \"Auction.sol\":1254:1261  bidders */\n      0x01\n        /* \"Auction.sol\":1262:1273  bidderCount */\n      sload(0x17)\n        /* \"Auction.sol\":1254:1274  bidders[bidderCount] */\n      0x04\n      dup2\n      lt\n      tag_36\n      jumpi\n      invalid\n    tag_36:\n      0x03\n      mul\n      add\n        /* \"Auction.sol\":1254:1279  bidders[bidderCount].addr */\n      0x02\n      add\n      0x00\n        /* \"Auction.sol\":1254:1292  bidders[bidderCount].addr = msg.sender */\n      0x0100\n      exp\n      dup2\n      sload\n      dup2\n      0xffffffffffffffffffffffffffffffffffffffff\n      mul\n      not\n      and\n      swap1\n      dup4\n      0xffffffffffffffffffffffffffffffffffffffff\n      and\n      mul\n      or\n      swap1\n      sstore\n      pop\n        /* \"Auction.sol\":1341:1342  5 */\n      0x05\n        /* \"Auction.sol\":1302:1309  bidders */\n      0x01\n        /* \"Auction.sol\":1310:1321  bidderCount */\n      sload(0x17)\n        /* \"Auction.sol\":1302:1322  bidders[bidderCount] */\n      0x04\n      dup2\n      lt\n      tag_38\n      jumpi\n      invalid\n    tag_38:\n      0x03\n      mul\n      add\n        /* \"Auction.sol\":1302:1338  bidders[bidderCount].remainingTokens */\n      0x00\n      add\n        /* \"Auction.sol\":1302:1342  bidders[bidderCount].remainingTokens = 5 */\n      dup2\n      swap1\n      sstore\n      pop\n        /* \"Auction.sol\":1380:1387  bidders */\n      0x01\n        /* \"Auction.sol\":1388:1399  bidderCount */\n      sload(0x17)\n        /* \"Auction.sol\":1380:1400  bidders[bidderCount] */\n      0x04\n      dup2\n      lt\n      tag_40\n      jumpi\n      invalid\n    tag_40:\n      0x03\n      mul\n      add\n        /* \"Auction.sol\":1353:1365  tokenDetails */\n      0x00\n        /* \"Auction.sol\":1353:1377  tokenDetails[msg.sender] */\n      dup1\n        /* \"Auction.sol\":1366:1376  msg.sender */\n      caller\n        /* \"Auction.sol\":1353:1377  tokenDetails[msg.sender] */\n      0xffffffffffffffffffffffffffffffffffffffff\n      and\n      0xffffffffffffffffffffffffffffffffffffffff\n      and\n      dup2\n      mstore\n      0x20\n      add\n      swap1\n      dup2\n      mstore\n      0x20\n      add\n      0x00\n      keccak256\n        /* \"Auction.sol\":1353:1400  tokenDetails[msg.sender] = bidders[bidderCount] */\n      0x00\n      dup3\n      add\n      sload\n      dup2\n      0x00\n      add\n      sstore\n      0x01\n      dup3\n      add\n      sload\n      dup2\n      0x01\n      add\n      sstore\n      0x02\n      dup3\n      add\n      0x00\n      swap1\n      sload\n      swap1\n      0x0100\n      exp\n      swap1\n      div\n      0xffffffffffffffffffffffffffffffffffffffff\n      and\n      dup2\n      0x02\n      add\n      exp(0x0100, 0x00)\n      dup2\n      sload\n      dup2\n      0xffffffffffffffffffffffffffffffffffffffff\n      mul\n      not\n      and\n      swap1\n      dup4\n      0xffffffffffffffffffffffffffffffffffffffff\n      and\n      mul\n      or\n      swap1\n      sstore\n      pop\n      swap1\n      pop\n      pop\n        /* \"Auction.sol\":1410:1421  bidderCount */\n      0x17\n      0x00\n        /* \"Auction.sol\":1410:1423  bidderCount++ */\n      dup2\n      sload\n      dup1\n      swap3\n      swap2\n      swap1\n      0x01\n      add\n      swap2\n      swap1\n      pop\n      sstore\n      pop\n        /* \"Auction.sol\":1148:1430  function register() public payable{... */\n      jump\t// out\n        /* \"Auction.sol\":727:753  address public beneficiary */\n    tag_14:\n      0x16\n      0x00\n      swap1\n      sload\n      swap1\n      0x0100\n      exp\n      swap1\n      div\n      0xffffffffffffffffffffffffffffffffffffffff\n      and\n      dup2\n      jump\t// out\n        /* \"Auction.sol\":1440:2746  function bid(uint _itemId, uint _count) public payable {... */\n    tag_17:\n        /* \"Auction.sol\":2246:2252  _count */\n      dup1\n        /* \"Auction.sol\":2203:2215  tokenDetails */\n      0x00\n        /* \"Auction.sol\":2203:2227  tokenDetails[msg.sender] */\n      dup1\n        /* \"Auction.sol\":2216:2226  msg.sender */\n      caller\n        /* \"Auction.sol\":2203:2227  tokenDetails[msg.sender] */\n      0xffffffffffffffffffffffffffffffffffffffff\n      and\n      0xffffffffffffffffffffffffffffffffffffffff\n      and\n      dup2\n      mstore\n      0x20\n      add\n      swap1\n      dup2\n      mstore\n      0x20\n      add\n      0x00\n      keccak256\n        /* \"Auction.sol\":2203:2243  tokenDetails[msg.sender].remainingTokens */\n      0x00\n      add\n      sload\n        /* \"Auction.sol\":2203:2252  tokenDetails[msg.sender].remainingTokens < _count */\n      lt\n        /* \"Auction.sol\":2203:2267  tokenDetails[msg.sender].remainingTokens < _count || _itemId > 2 */\n      dup1\n      tag_43\n      jumpi\n      pop\n        /* \"Auction.sol\":2266:2267  2 */\n      0x02\n        /* \"Auction.sol\":2256:2263  _itemId */\n      dup3\n        /* \"Auction.sol\":2256:2267  _itemId > 2 */\n      gt\n        /* \"Auction.sol\":2203:2267  tokenDetails[msg.sender].remainingTokens < _count || _itemId > 2 */\n    tag_43:\n        /* \"Auction.sol\":2199:2289  if (tokenDetails[msg.sender].remainingTokens < _count || _itemId > 2)... */\n      iszero\n      tag_44\n      jumpi\n        /* \"Auction.sol\":2281:2289  revert() */\n      0x00\n      dup1\n      revert\n        /* \"Auction.sol\":2199:2289  if (tokenDetails[msg.sender].remainingTokens < _count || _itemId > 2)... */\n    tag_44:\n        /* \"Auction.sol\":2308:2320  uint balance */\n      0x00\n        /* \"Auction.sol\":2366:2372  _count */\n      dup2\n        /* \"Auction.sol\":2323:2335  tokenDetails */\n      0x00\n        /* \"Auction.sol\":2323:2347  tokenDetails[msg.sender] */\n      dup1\n        /* \"Auction.sol\":2336:2346  msg.sender */\n      caller\n        /* \"Auction.sol\":2323:2347  tokenDetails[msg.sender] */\n      0xffffffffffffffffffffffffffffffffffffffff\n      and\n      0xffffffffffffffffffffffffffffffffffffffff\n      and\n      dup2\n      mstore\n      0x20\n      add\n      swap1\n      dup2\n      mstore\n      0x20\n      add\n      0x00\n      keccak256\n        /* \"Auction.sol\":2323:2363  tokenDetails[msg.sender].remainingTokens */\n      0x00\n      add\n      sload\n        /* \"Auction.sol\":2323:2372  tokenDetails[msg.sender].remainingTokens - _count */\n      sub\n        /* \"Auction.sol\":2308:2372  uint balance = tokenDetails[msg.sender].remainingTokens - _count */\n      swap1\n      pop\n        /* \"Auction.sol\":2426:2433  balance */\n      dup1\n        /* \"Auction.sol\":2383:2395  tokenDetails */\n      0x00\n        /* \"Auction.sol\":2383:2407  tokenDetails[msg.sender] */\n      dup1\n        /* \"Auction.sol\":2396:2406  msg.sender */\n      caller\n        /* \"Auction.sol\":2383:2407  tokenDetails[msg.sender] */\n      0xffffffffffffffffffffffffffffffffffffffff\n      and\n      0xffffffffffffffffffffffffffffffffffffffff\n      and\n      dup2\n      mstore\n      0x20\n      add\n      swap1\n      dup2\n      mstore\n      0x20\n      add\n      0x00\n      keccak256\n        /* \"Auction.sol\":2383:2423  tokenDetails[msg.sender].remainingTokens */\n      0x00\n      add\n        /* \"Auction.sol\":2383:2433  tokenDetails[msg.sender].remainingTokens = balance */\n      dup2\n      swap1\n      sstore\n      pop\n        /* \"Auction.sol\":2504:2511  balance */\n      dup1\n        /* \"Auction.sol\":2443:2450  bidders */\n      0x01\n        /* \"Auction.sol\":2451:2463  tokenDetails */\n      0x00\n        /* \"Auction.sol\":2451:2475  tokenDetails[msg.sender] */\n      dup1\n        /* \"Auction.sol\":2464:2474  msg.sender */\n      caller\n        /* \"Auction.sol\":2451:2475  tokenDetails[msg.sender] */\n      0xffffffffffffffffffffffffffffffffffffffff\n      and\n      0xffffffffffffffffffffffffffffffffffffffff\n      and\n      dup2\n      mstore\n      0x20\n      add\n      swap1\n      dup2\n      mstore\n      0x20\n      add\n      0x00\n      keccak256\n        /* \"Auction.sol\":2451:2484  tokenDetails[msg.sender].personId */\n      0x01\n      add\n      sload\n        /* \"Auction.sol\":2443:2485  bidders[tokenDetails[msg.sender].personId] */\n      0x04\n      dup2\n      lt\n      tag_45\n      jumpi\n      invalid\n    tag_45:\n      0x03\n      mul\n      add\n        /* \"Auction.sol\":2443:2501  bidders[tokenDetails[msg.sender].personId].remainingTokens */\n      0x00\n      add\n        /* \"Auction.sol\":2443:2511  bidders[tokenDetails[msg.sender].personId].remainingTokens = balance */\n      dup2\n      swap1\n      sstore\n      pop\n        /* \"Auction.sol\":2573:2593  Item storage bidItem */\n      0x00\n        /* \"Auction.sol\":2596:2601  items */\n      0x0d\n        /* \"Auction.sol\":2602:2609  _itemId */\n      dup5\n        /* \"Auction.sol\":2596:2610  items[_itemId] */\n      0x03\n      dup2\n      lt\n      tag_47\n      jumpi\n      invalid\n    tag_47:\n      0x02\n      mul\n      add\n        /* \"Auction.sol\":2573:2610  Item storage bidItem = items[_itemId] */\n      swap1\n      pop\n        /* \"Auction.sol\":2624:2630  uint i */\n      0x00\n        /* \"Auction.sol\":2633:2634  0 */\n      dup1\n        /* \"Auction.sol\":2624:2634  uint i = 0 */\n      swap1\n      pop\n        /* \"Auction.sol\":2620:2740  for(uint i = 0; i < _count; i++) {... */\n    tag_49:\n        /* \"Auction.sol\":2640:2646  _count */\n      dup4\n        /* \"Auction.sol\":2636:2637  i */\n      dup2\n        /* \"Auction.sol\":2636:2646  i < _count */\n      lt\n        /* \"Auction.sol\":2620:2740  for(uint i = 0; i < _count; i++) {... */\n      iszero\n      tag_50\n      jumpi\n        /* \"Auction.sol\":2667:2674  bidItem */\n      dup2\n        /* \"Auction.sol\":2667:2685  bidItem.itemTokens */\n      0x01\n      add\n        /* \"Auction.sol\":2691:2703  tokenDetails */\n      0x00\n        /* \"Auction.sol\":2691:2715  tokenDetails[msg.sender] */\n      dup1\n        /* \"Auction.sol\":2704:2714  msg.sender */\n      caller\n        /* \"Auction.sol\":2691:2715  tokenDetails[msg.sender] */\n      0xffffffffffffffffffffffffffffffffffffffff\n      and\n      0xffffffffffffffffffffffffffffffffffffffff\n      and\n      dup2\n      mstore\n      0x20\n      add\n      swap1\n      dup2\n      mstore\n      0x20\n      add\n      0x00\n      keccak256\n        /* \"Auction.sol\":2691:2724  tokenDetails[msg.sender].personId */\n      0x01\n      add\n      sload\n        /* \"Auction.sol\":2667:2725  bidItem.itemTokens.push(tokenDetails[msg.sender].personId) */\n      swap1\n      dup1\n        /* \"--CODEGEN--\":39:40   */\n      0x01\n        /* \"--CODEGEN--\":33:36   */\n      dup2\n        /* \"--CODEGEN--\":27:37   */\n      sload\n        /* \"--CODEGEN--\":23:41   */\n      add\n        /* \"--CODEGEN--\":57:67   */\n      dup1\n        /* \"--CODEGEN--\":52:55   */\n      dup3\n        /* \"--CODEGEN--\":45:68   */\n      sstore\n        /* \"--CODEGEN--\":79:89   */\n      dup1\n        /* \"--CODEGEN--\":72:89   */\n      swap2\n      pop\n        /* \"--CODEGEN--\":0:93   */\n      pop\n        /* \"Auction.sol\":2667:2725  bidItem.itemTokens.push(tokenDetails[msg.sender].personId) */\n      swap1\n      0x01\n      dup3\n      sub\n      swap1\n      0x00\n      mstore\n      keccak256(0x00, 0x20)\n      add\n      0x00\n      swap1\n      swap2\n      swap3\n      swap1\n      swap2\n      swap1\n      swap2\n      pop\n      sstore\n      pop\n        /* \"Auction.sol\":2648:2651  i++ */\n      dup1\n      dup1\n      0x01\n      add\n      swap2\n      pop\n      pop\n        /* \"Auction.sol\":2620:2740  for(uint i = 0; i < _count; i++) {... */\n      jump(tag_49)\n    tag_50:\n      pop\n        /* \"Auction.sol\":1440:2746  function bid(uint _itemId, uint _count) public payable {... */\n      pop\n      pop\n      pop\n      pop\n      jump\t// out\n        /* \"Auction.sol\":4122:4290  function getPersonDetails(uint id) public view returns(uint, uint, address){... */\n    tag_21:\n        /* \"Auction.sol\":4177:4181  uint */\n      0x00\n        /* \"Auction.sol\":4183:4187  uint */\n      dup1\n        /* \"Auction.sol\":4189:4196  address */\n      0x00\n        /* \"Auction.sol\":4215:4222  bidders */\n      0x01\n        /* \"Auction.sol\":4223:4225  id */\n      dup5\n        /* \"Auction.sol\":4215:4226  bidders[id] */\n      0x04\n      dup2\n      lt\n      tag_54\n      jumpi\n      invalid\n    tag_54:\n      0x03\n      mul\n      add\n        /* \"Auction.sol\":4215:4242  bidders[id].remainingTokens */\n      0x00\n      add\n      sload\n        /* \"Auction.sol\":4244:4251  bidders */\n      0x01\n        /* \"Auction.sol\":4252:4254  id */\n      dup6\n        /* \"Auction.sol\":4244:4255  bidders[id] */\n      0x04\n      dup2\n      lt\n      tag_56\n      jumpi\n      invalid\n    tag_56:\n      0x03\n      mul\n      add\n        /* \"Auction.sol\":4244:4264  bidders[id].personId */\n      0x01\n      add\n      sload\n        /* \"Auction.sol\":4266:4273  bidders */\n      0x01\n        /* \"Auction.sol\":4274:4276  id */\n      dup7\n        /* \"Auction.sol\":4266:4277  bidders[id] */\n      0x04\n      dup2\n      lt\n      tag_58\n      jumpi\n      invalid\n    tag_58:\n      0x03\n      mul\n      add\n        /* \"Auction.sol\":4266:4282  bidders[id].addr */\n      0x02\n      add\n      0x00\n      swap1\n      sload\n      swap1\n      0x0100\n      exp\n      swap1\n      div\n      0xffffffffffffffffffffffffffffffffffffffff\n      and\n        /* \"Auction.sol\":4207:4283  return (bidders[id].remainingTokens, bidders[id].personId, bidders[id].addr) */\n      swap3\n      pop\n      swap3\n      pop\n      swap3\n      pop\n        /* \"Auction.sol\":4122:4290  function getPersonDetails(uint id) public view returns(uint, uint, address){... */\n      swap2\n      swap4\n      swap1\n      swap3\n      pop\n      jump\t// out\n        /* \"Auction.sol\":3049:4020  function revealWinners() public onlyOwner {... */\n    tag_24:\n        /* \"Auction.sol\":3004:3015  beneficiary */\n      0x16\n      0x00\n      swap1\n      sload\n      swap1\n      0x0100\n      exp\n      swap1\n      div\n      0xffffffffffffffffffffffffffffffffffffffff\n      and\n        /* \"Auction.sol\":2990:3015  msg.sender == beneficiary */\n      0xffffffffffffffffffffffffffffffffffffffff\n      and\n        /* \"Auction.sol\":2990:3000  msg.sender */\n      caller\n        /* \"Auction.sol\":2990:3015  msg.sender == beneficiary */\n      0xffffffffffffffffffffffffffffffffffffffff\n      and\n      eq\n        /* \"Auction.sol\":2982:3016  require(msg.sender == beneficiary) */\n      tag_61\n      jumpi\n      0x00\n      dup1\n      revert\n    tag_61:\n        /* \"Auction.sol\":3282:3289  uint id */\n      0x00\n        /* \"Auction.sol\":3292:3293  0 */\n      dup1\n        /* \"Auction.sol\":3282:3293  uint id = 0 */\n      swap1\n      pop\n        /* \"Auction.sol\":3277:4014  for (uint id = 0; id < 3; id++) {... */\n    tag_63:\n        /* \"Auction.sol\":3300:3301  3 */\n      0x03\n        /* \"Auction.sol\":3295:3297  id */\n      dup2\n        /* \"Auction.sol\":3295:3301  id < 3 */\n      lt\n        /* \"Auction.sol\":3277:4014  for (uint id = 0; id < 3; id++) {... */\n      iszero\n      tag_64\n      jumpi\n        /* \"Auction.sol\":3323:3347  Item storage currentItem */\n      0x00\n        /* \"Auction.sol\":3350:3355  items */\n      0x0d\n        /* \"Auction.sol\":3356:3358  id */\n      dup3\n        /* \"Auction.sol\":3350:3359  items[id] */\n      0x03\n      dup2\n      lt\n      tag_66\n      jumpi\n      invalid\n    tag_66:\n      0x02\n      mul\n      add\n        /* \"Auction.sol\":3323:3359  Item storage currentItem = items[id] */\n      swap1\n      pop\n        /* \"Auction.sol\":3410:3411  0 */\n      0x00\n        /* \"Auction.sol\":3377:3388  currentItem */\n      dup2\n        /* \"Auction.sol\":3377:3399  currentItem.itemTokens */\n      0x01\n      add\n        /* \"Auction.sol\":3377:3406  currentItem.itemTokens.length */\n      dup1\n      sload\n      swap1\n      pop\n        /* \"Auction.sol\":3377:3411  currentItem.itemTokens.length != 0 */\n      eq\n        /* \"Auction.sol\":3373:4004  if (currentItem.itemTokens.length != 0) {... */\n      tag_68\n      jumpi\n        /* \"Auction.sol\":3478:3494  uint randomIndex */\n      0x00\n        /* \"Auction.sol\":3546:3557  currentItem */\n      dup2\n        /* \"Auction.sol\":3546:3568  currentItem.itemTokens */\n      0x01\n      add\n        /* \"Auction.sol\":3546:3575  currentItem.itemTokens.length */\n      dup1\n      sload\n      swap1\n      pop\n        /* \"Auction.sol\":3513:3524  currentItem */\n      dup3\n        /* \"Auction.sol\":3513:3535  currentItem.itemTokens */\n      0x01\n      add\n        /* \"Auction.sol\":3513:3542  currentItem.itemTokens.length */\n      dup1\n      sload\n      swap1\n      pop\n        /* \"Auction.sol\":3498:3510  block.number */\n      number\n        /* \"Auction.sol\":3498:3542  block.number / currentItem.itemTokens.length */\n      dup2\n      tag_69\n      jumpi\n      invalid\n    tag_69:\n      div\n        /* \"Auction.sol\":3497:3575  (block.number / currentItem.itemTokens.length) % currentItem.itemTokens.length */\n      dup2\n      tag_70\n      jumpi\n      invalid\n    tag_70:\n      mod\n        /* \"Auction.sol\":3478:3575  uint randomIndex = (block.number / currentItem.itemTokens.length) % currentItem.itemTokens.length */\n      swap1\n      pop\n        /* \"Auction.sol\":3633:3646  uint winnerId */\n      0x00\n        /* \"Auction.sol\":3649:3660  currentItem */\n      dup3\n        /* \"Auction.sol\":3649:3671  currentItem.itemTokens */\n      0x01\n      add\n        /* \"Auction.sol\":3672:3683  randomIndex */\n      dup3\n        /* \"Auction.sol\":3649:3684  currentItem.itemTokens[randomIndex] */\n      dup2\n      sload\n      dup2\n      lt\n      tag_71\n      jumpi\n      invalid\n    tag_71:\n      swap1\n      0x00\n      mstore\n      keccak256(0x00, 0x20)\n      add\n      sload\n        /* \"Auction.sol\":3633:3684  uint winnerId = currentItem.itemTokens[randomIndex] */\n      swap1\n      pop\n        /* \"Auction.sol\":3960:3967  bidders */\n      0x01\n        /* \"Auction.sol\":3968:3976  winnerId */\n      dup2\n        /* \"Auction.sol\":3960:3977  bidders[winnerId] */\n      0x04\n      dup2\n      lt\n      tag_73\n      jumpi\n      invalid\n    tag_73:\n      0x03\n      mul\n      add\n        /* \"Auction.sol\":3960:3982  bidders[winnerId].addr */\n      0x02\n      add\n      0x00\n      swap1\n      sload\n      swap1\n      0x0100\n      exp\n      swap1\n      div\n      0xffffffffffffffffffffffffffffffffffffffff\n      and\n        /* \"Auction.sol\":3946:3953  winners */\n      0x13\n        /* \"Auction.sol\":3954:3956  id */\n      dup6\n        /* \"Auction.sol\":3946:3957  winners[id] */\n      0x03\n      dup2\n      lt\n      tag_75\n      jumpi\n      invalid\n    tag_75:\n      add\n      0x00\n        /* \"Auction.sol\":3946:3982  winners[id] = bidders[winnerId].addr */\n      0x0100\n      exp\n      dup2\n      sload\n      dup2\n      0xffffffffffffffffffffffffffffffffffffffff\n      mul\n      not\n      and\n      swap1\n      dup4\n      0xffffffffffffffffffffffffffffffffffffffff\n      and\n      mul\n      or\n      swap1\n      sstore\n      pop\n        /* \"Auction.sol\":3373:4004  if (currentItem.itemTokens.length != 0) {... */\n      pop\n      pop\n    tag_68:\n        /* \"Auction.sol\":3277:4014  for (uint id = 0; id < 3; id++) {... */\n      pop\n        /* \"Auction.sol\":3303:3307  id++ */\n      dup1\n      dup1\n      0x01\n      add\n      swap2\n      pop\n      pop\n        /* \"Auction.sol\":3277:4014  for (uint id = 0; id < 3; id++) {... */\n      jump(tag_63)\n    tag_64:\n      pop\n        /* \"Auction.sol\":3049:4020  function revealWinners() public onlyOwner {... */\n      jump\t// out\n        /* \"Auction.sol\":666:691  address[3] public winners */\n    tag_28:\n      0x13\n      dup2\n      0x03\n      dup2\n      lt\n      tag_77\n      jumpi\n      invalid\n    tag_77:\n      add\n      0x00\n      swap2\n      pop\n      sload\n      swap1\n      0x0100\n      exp\n      swap1\n      div\n      0xffffffffffffffffffffffffffffffffffffffff\n      and\n      dup2\n      jump\t// out\n        /* \"Auction.sol\":606:627  Item [3] public items */\n    tag_32:\n      0x0d\n      dup2\n      0x03\n      dup2\n      lt\n      tag_79\n      jumpi\n      invalid\n    tag_79:\n      0x02\n      mul\n      add\n      0x00\n      swap2\n      pop\n      swap1\n      pop\n      dup1\n      0x00\n      add\n      sload\n      swap1\n      pop\n      dup2\n      jump\t// out\n\n    auxdata: 0xa265627a7a72305820a9300d4d02f9a9c1feed4b9074433c129897650c84578d2d07a91a3ee60e706c64736f6c63430005090032\n}\n",
				"bytecode": {
					"linkReferences": {},
					"object": "6080604052600060175533601660006101000a81548173ffffffffffffffffffffffffffffffffffffffff021916908373ffffffffffffffffffffffffffffffffffffffff160217905550606060405180604001604052806000815260200182815250600d60006003811061007057fe5b6002020160008201518160000155602082015181600101908051906020019061009a929190610148565b5090505060405180604001604052806001815260200182815250600d6001600381106100c257fe5b600202016000820151816000015560208201518160010190805190602001906100ec929190610148565b5090505060405180604001604052806002815260200182815250600d60026003811061011457fe5b6002020160008201518160000155602082015181600101908051906020019061013e929190610148565b50905050506101ba565b828054828255906000526020600020908101928215610184579160200282015b82811115610183578251825591602001919060010190610168565b5b5090506101919190610195565b5090565b6101b791905b808211156101b357600081600090555060010161019b565b5090565b90565b610855806101c96000396000f3fe6080604052600436106100705760003560e01c8063609817051161004e578063609817051461010e578063952587d614610197578063a2fb1175146101ae578063bfb231d21461022957610070565b80631aa3a0081461007557806338af3eed1461007f578063598647f8146100d6575b600080fd5b61007d610278565b005b34801561008b57600080fd5b506100946103e9565b604051808273ffffffffffffffffffffffffffffffffffffffff1673ffffffffffffffffffffffffffffffffffffffff16815260200191505060405180910390f35b61010c600480360360408110156100ec57600080fd5b81019080803590602001909291908035906020019092919050505061040f565b005b34801561011a57600080fd5b506101476004803603602081101561013157600080fd5b81019080803590602001909291905050506105f6565b604051808481526020018381526020018273ffffffffffffffffffffffffffffffffffffffff1673ffffffffffffffffffffffffffffffffffffffff168152602001935050505060405180910390f35b3480156101a357600080fd5b506101ac610667565b005b3480156101ba57600080fd5b506101e7600480360360208110156101d157600080fd5b81019080803590602001909291905050506107cc565b604051808273ffffffffffffffffffffffffffffffffffffffff1673ffffffffffffffffffffffffffffffffffffffff16815260200191505060405180910390f35b34801561023557600080fd5b506102626004803603602081101561024c57600080fd5b81019080803590602001909291905050506107ff565b6040518082815260200191505060405180910390f35b60175460016017546004811061028a57fe5b6003020160010181905550336001601754600481106102a557fe5b6003020160020160006101000a81548173ffffffffffffffffffffffffffffffffffffffff021916908373ffffffffffffffffffffffffffffffffffffffff16021790555060056001601754600481106102fb57fe5b600302016000018190555060016017546004811061031557fe5b600302016000803373ffffffffffffffffffffffffffffffffffffffff1673ffffffffffffffffffffffffffffffffffffffff16815260200190815260200160002060008201548160000155600182015481600101556002820160009054906101000a900473ffffffffffffffffffffffffffffffffffffffff168160020160006101000a81548173ffffffffffffffffffffffffffffffffffffffff021916908373ffffffffffffffffffffffffffffffffffffffff160217905550905050601760008154809291906001019190505550565b601660009054906101000a900473ffffffffffffffffffffffffffffffffffffffff1681565b806000803373ffffffffffffffffffffffffffffffffffffffff1673ffffffffffffffffffffffffffffffffffffffff16815260200190815260200160002060000154108061045e5750600282115b1561046857600080fd5b6000816000803373ffffffffffffffffffffffffffffffffffffffff1673ffffffffffffffffffffffffffffffffffffffff16815260200190815260200160002060000154039050806000803373ffffffffffffffffffffffffffffffffffffffff1673ffffffffffffffffffffffffffffffffffffffff168152602001908152602001600020600001819055508060016000803373ffffffffffffffffffffffffffffffffffffffff1673ffffffffffffffffffffffffffffffffffffffff168152602001908152602001600020600101546004811061054557fe5b60030201600001819055506000600d846003811061055f57fe5b60020201905060008090505b838110156105ef57816001016000803373ffffffffffffffffffffffffffffffffffffffff1673ffffffffffffffffffffffffffffffffffffffff168152602001908152602001600020600101549080600181540180825580915050906001820390600052602060002001600090919290919091505550808060010191505061056b565b5050505050565b60008060006001846004811061060857fe5b60030201600001546001856004811061061d57fe5b60030201600101546001866004811061063257fe5b6003020160020160009054906101000a900473ffffffffffffffffffffffffffffffffffffffff169250925092509193909250565b601660009054906101000a900473ffffffffffffffffffffffffffffffffffffffff1673ffffffffffffffffffffffffffffffffffffffff163373ffffffffffffffffffffffffffffffffffffffff16146106c157600080fd5b60008090505b60038110156107c9576000600d82600381106106df57fe5b60020201905060008160010180549050146107bb57600081600101805490508260010180549050438161070e57fe5b048161071657fe5b069050600082600101828154811061072a57fe5b906000526020600020015490506001816004811061074457fe5b6003020160020160009054906101000a900473ffffffffffffffffffffffffffffffffffffffff166013856003811061077957fe5b0160006101000a81548173ffffffffffffffffffffffffffffffffffffffff021916908373ffffffffffffffffffffffffffffffffffffffff16021790555050505b5080806001019150506106c7565b50565b601381600381106107d957fe5b016000915054906101000a900473ffffffffffffffffffffffffffffffffffffffff1681565b600d816003811061080c57fe5b60020201600091509050806000015490508156fea265627a7a72305820a9300d4d02f9a9c1feed4b9074433c129897650c84578d2d07a91a3ee60e706c64736f6c63430005090032",
					"opcodes": "PUSH1 0x80 PUSH1 0x40 MSTORE PUSH1 0x0 PUSH1 0x17 SSTORE CALLER PUSH1 0x16 PUSH1 0x0 PUSH2 0x100 EXP DUP2 SLOAD DUP2 PUSH20 0xFFFFFFFFFFFFFFFFFFFFFFFFFFFFFFFFFFFFFFFF MUL NOT AND SWAP1 DUP4 PUSH20 0xFFFFFFFFFFFFFFFFFFFFFFFFFFFFFFFFFFFFFFFF AND MUL OR SWAP1 SSTORE POP PUSH1 0x60 PUSH1 0x40 MLOAD DUP1 PUSH1 0x40 ADD PUSH1 0x40 MSTORE DUP1 PUSH1 0x0 DUP2 MSTORE PUSH1 0x20 ADD DUP3 DUP2 MSTORE POP PUSH1 0xD PUSH1 0x0 PUSH1 0x3 DUP2 LT PUSH2 0x70 JUMPI INVALID JUMPDEST PUSH1 0x2 MUL ADD PUSH1 0x0 DUP3 ADD MLOAD DUP2 PUSH1 0x0 ADD SSTORE PUSH1 0x20 DUP3 ADD MLOAD DUP2 PUSH1 0x1 ADD SWAP1 DUP1 MLOAD SWAP1 PUSH1 0x20 ADD SWAP1 PUSH2 0x9A SWAP3 SWAP2 SWAP1 PUSH2 0x148 JUMP JUMPDEST POP SWAP1 POP POP PUSH1 0x40 MLOAD DUP1 PUSH1 0x40 ADD PUSH1 0x40 MSTORE DUP1 PUSH1 0x1 DUP2 MSTORE PUSH1 0x20 ADD DUP3 DUP2 MSTORE POP PUSH1 0xD PUSH1 0x1 PUSH1 0x3 DUP2 LT PUSH2 0xC2 JUMPI INVALID JUMPDEST PUSH1 0x2 MUL ADD PUSH1 0x0 DUP3 ADD MLOAD DUP2 PUSH1 0x0 ADD SSTORE PUSH1 0x20 DUP3 ADD MLOAD DUP2 PUSH1 0x1 ADD SWAP1 DUP1 MLOAD SWAP1 PUSH1 0x20 ADD SWAP1 PUSH2 0xEC SWAP3 SWAP2 SWAP1 PUSH2 0x148 JUMP JUMPDEST POP SWAP1 POP POP PUSH1 0x40 MLOAD DUP1 PUSH1 0x40 ADD PUSH1 0x40 MSTORE DUP1 PUSH1 0x2 DUP2 MSTORE PUSH1 0x20 ADD DUP3 DUP2 MSTORE POP PUSH1 0xD PUSH1 0x2 PUSH1 0x3 DUP2 LT PUSH2 0x114 JUMPI INVALID JUMPDEST PUSH1 0x2 MUL ADD PUSH1 0x0 DUP3 ADD MLOAD DUP2 PUSH1 0x0 ADD SSTORE PUSH1 0x20 DUP3 ADD MLOAD DUP2 PUSH1 0x1 ADD SWAP1 DUP1 MLOAD SWAP1 PUSH1 0x20 ADD SWAP1 PUSH2 0x13E SWAP3 SWAP2 SWAP1 PUSH2 0x148 JUMP JUMPDEST POP SWAP1 POP POP POP PUSH2 0x1BA JUMP JUMPDEST DUP3 DUP1 SLOAD DUP3 DUP3 SSTORE SWAP1 PUSH1 0x0 MSTORE PUSH1 0x20 PUSH1 0x0 KECCAK256 SWAP1 DUP2 ADD SWAP3 DUP3 ISZERO PUSH2 0x184 JUMPI SWAP2 PUSH1 0x20 MUL DUP3 ADD JUMPDEST DUP3 DUP2 GT ISZERO PUSH2 0x183 JUMPI DUP3 MLOAD DUP3 SSTORE SWAP2 PUSH1 0x20 ADD SWAP2 SWAP1 PUSH1 0x1 ADD SWAP1 PUSH2 0x168 JUMP JUMPDEST JUMPDEST POP SWAP1 POP PUSH2 0x191 SWAP2 SWAP1 PUSH2 0x195 JUMP JUMPDEST POP SWAP1 JUMP JUMPDEST PUSH2 0x1B7 SWAP2 SWAP1 JUMPDEST DUP1 DUP3 GT ISZERO PUSH2 0x1B3 JUMPI PUSH1 0x0 DUP2 PUSH1 0x0 SWAP1 SSTORE POP PUSH1 0x1 ADD PUSH2 0x19B JUMP JUMPDEST POP SWAP1 JUMP JUMPDEST SWAP1 JUMP JUMPDEST PUSH2 0x855 DUP1 PUSH2 0x1C9 PUSH1 0x0 CODECOPY PUSH1 0x0 RETURN INVALID PUSH1 0x80 PUSH1 0x40 MSTORE PUSH1 0x4 CALLDATASIZE LT PUSH2 0x70 JUMPI PUSH1 0x0 CALLDATALOAD PUSH1 0xE0 SHR DUP1 PUSH4 0x60981705 GT PUSH2 0x4E JUMPI DUP1 PUSH4 0x60981705 EQ PUSH2 0x10E JUMPI DUP1 PUSH4 0x952587D6 EQ PUSH2 0x197 JUMPI DUP1 PUSH4 0xA2FB1175 EQ PUSH2 0x1AE JUMPI DUP1 PUSH4 0xBFB231D2 EQ PUSH2 0x229 JUMPI PUSH2 0x70 JUMP JUMPDEST DUP1 PUSH4 0x1AA3A008 EQ PUSH2 0x75 JUMPI DUP1 PUSH4 0x38AF3EED EQ PUSH2 0x7F JUMPI DUP1 PUSH4 0x598647F8 EQ PUSH2 0xD6 JUMPI JUMPDEST PUSH1 0x0 DUP1 REVERT JUMPDEST PUSH2 0x7D PUSH2 0x278 JUMP JUMPDEST STOP JUMPDEST CALLVALUE DUP1 ISZERO PUSH2 0x8B JUMPI PUSH1 0x0 DUP1 REVERT JUMPDEST POP PUSH2 0x94 PUSH2 0x3E9 JUMP JUMPDEST PUSH1 0x40 MLOAD DUP1 DUP3 PUSH20 0xFFFFFFFFFFFFFFFFFFFFFFFFFFFFFFFFFFFFFFFF AND PUSH20 0xFFFFFFFFFFFFFFFFFFFFFFFFFFFFFFFFFFFFFFFF AND DUP2 MSTORE PUSH1 0x20 ADD SWAP2 POP POP PUSH1 0x40 MLOAD DUP1 SWAP2 SUB SWAP1 RETURN JUMPDEST PUSH2 0x10C PUSH1 0x4 DUP1 CALLDATASIZE SUB PUSH1 0x40 DUP2 LT ISZERO PUSH2 0xEC JUMPI PUSH1 0x0 DUP1 REVERT JUMPDEST DUP2 ADD SWAP1 DUP1 DUP1 CALLDATALOAD SWAP1 PUSH1 0x20 ADD SWAP1 SWAP3 SWAP2 SWAP1 DUP1 CALLDATALOAD SWAP1 PUSH1 0x20 ADD SWAP1 SWAP3 SWAP2 SWAP1 POP POP POP PUSH2 0x40F JUMP JUMPDEST STOP JUMPDEST CALLVALUE DUP1 ISZERO PUSH2 0x11A JUMPI PUSH1 0x0 DUP1 REVERT JUMPDEST POP PUSH2 0x147 PUSH1 0x4 DUP1 CALLDATASIZE SUB PUSH1 0x20 DUP2 LT ISZERO PUSH2 0x131 JUMPI PUSH1 0x0 DUP1 REVERT JUMPDEST DUP2 ADD SWAP1 DUP1 DUP1 CALLDATALOAD SWAP1 PUSH1 0x20 ADD SWAP1 SWAP3 SWAP2 SWAP1 POP POP POP PUSH2 0x5F6 JUMP JUMPDEST PUSH1 0x40 MLOAD DUP1 DUP5 DUP2 MSTORE PUSH1 0x20 ADD DUP4 DUP2 MSTORE PUSH1 0x20 ADD DUP3 PUSH20 0xFFFFFFFFFFFFFFFFFFFFFFFFFFFFFFFFFFFFFFFF AND PUSH20 0xFFFFFFFFFFFFFFFFFFFFFFFFFFFFFFFFFFFFFFFF AND DUP2 MSTORE PUSH1 0x20 ADD SWAP4 POP POP POP POP PUSH1 0x40 MLOAD DUP1 SWAP2 SUB SWAP1 RETURN JUMPDEST CALLVALUE DUP1 ISZERO PUSH2 0x1A3 JUMPI PUSH1 0x0 DUP1 REVERT JUMPDEST POP PUSH2 0x1AC PUSH2 0x667 JUMP JUMPDEST STOP JUMPDEST CALLVALUE DUP1 ISZERO PUSH2 0x1BA JUMPI PUSH1 0x0 DUP1 REVERT JUMPDEST POP PUSH2 0x1E7 PUSH1 0x4 DUP1 CALLDATASIZE SUB PUSH1 0x20 DUP2 LT ISZERO PUSH2 0x1D1 JUMPI PUSH1 0x0 DUP1 REVERT JUMPDEST DUP2 ADD SWAP1 DUP1 DUP1 CALLDATALOAD SWAP1 PUSH1 0x20 ADD SWAP1 SWAP3 SWAP2 SWAP1 POP POP POP PUSH2 0x7CC JUMP JUMPDEST PUSH1 0x40 MLOAD DUP1 DUP3 PUSH20 0xFFFFFFFFFFFFFFFFFFFFFFFFFFFFFFFFFFFFFFFF AND PUSH20 0xFFFFFFFFFFFFFFFFFFFFFFFFFFFFFFFFFFFFFFFF AND DUP2 MSTORE PUSH1 0x20 ADD SWAP2 POP POP PUSH1 0x40 MLOAD DUP1 SWAP2 SUB SWAP1 RETURN JUMPDEST CALLVALUE DUP1 ISZERO PUSH2 0x235 JUMPI PUSH1 0x0 DUP1 REVERT JUMPDEST POP PUSH2 0x262 PUSH1 0x4 DUP1 CALLDATASIZE SUB PUSH1 0x20 DUP2 LT ISZERO PUSH2 0x24C JUMPI PUSH1 0x0 DUP1 REVERT JUMPDEST DUP2 ADD SWAP1 DUP1 DUP1 CALLDATALOAD SWAP1 PUSH1 0x20 ADD SWAP1 SWAP3 SWAP2 SWAP1 POP POP POP PUSH2 0x7FF JUMP JUMPDEST PUSH1 0x40 MLOAD DUP1 DUP3 DUP2 MSTORE PUSH1 0x20 ADD SWAP2 POP POP PUSH1 0x40 MLOAD DUP1 SWAP2 SUB SWAP1 RETURN JUMPDEST PUSH1 0x17 SLOAD PUSH1 0x1 PUSH1 0x17 SLOAD PUSH1 0x4 DUP2 LT PUSH2 0x28A JUMPI INVALID JUMPDEST PUSH1 0x3 MUL ADD PUSH1 0x1 ADD DUP2 SWAP1 SSTORE POP CALLER PUSH1 0x1 PUSH1 0x17 SLOAD PUSH1 0x4 DUP2 LT PUSH2 0x2A5 JUMPI INVALID JUMPDEST PUSH1 0x3 MUL ADD PUSH1 0x2 ADD PUSH1 0x0 PUSH2 0x100 EXP DUP2 SLOAD DUP2 PUSH20 0xFFFFFFFFFFFFFFFFFFFFFFFFFFFFFFFFFFFFFFFF MUL NOT AND SWAP1 DUP4 PUSH20 0xFFFFFFFFFFFFFFFFFFFFFFFFFFFFFFFFFFFFFFFF AND MUL OR SWAP1 SSTORE POP PUSH1 0x5 PUSH1 0x1 PUSH1 0x17 SLOAD PUSH1 0x4 DUP2 LT PUSH2 0x2FB JUMPI INVALID JUMPDEST PUSH1 0x3 MUL ADD PUSH1 0x0 ADD DUP2 SWAP1 SSTORE POP PUSH1 0x1 PUSH1 0x17 SLOAD PUSH1 0x4 DUP2 LT PUSH2 0x315 JUMPI INVALID JUMPDEST PUSH1 0x3 MUL ADD PUSH1 0x0 DUP1 CALLER PUSH20 0xFFFFFFFFFFFFFFFFFFFFFFFFFFFFFFFFFFFFFFFF AND PUSH20 0xFFFFFFFFFFFFFFFFFFFFFFFFFFFFFFFFFFFFFFFF AND DUP2 MSTORE PUSH1 0x20 ADD SWAP1 DUP2 MSTORE PUSH1 0x20 ADD PUSH1 0x0 KECCAK256 PUSH1 0x0 DUP3 ADD SLOAD DUP2 PUSH1 0x0 ADD SSTORE PUSH1 0x1 DUP3 ADD SLOAD DUP2 PUSH1 0x1 ADD SSTORE PUSH1 0x2 DUP3 ADD PUSH1 0x0 SWAP1 SLOAD SWAP1 PUSH2 0x100 EXP SWAP1 DIV PUSH20 0xFFFFFFFFFFFFFFFFFFFFFFFFFFFFFFFFFFFFFFFF AND DUP2 PUSH1 0x2 ADD PUSH1 0x0 PUSH2 0x100 EXP DUP2 SLOAD DUP2 PUSH20 0xFFFFFFFFFFFFFFFFFFFFFFFFFFFFFFFFFFFFFFFF MUL NOT AND SWAP1 DUP4 PUSH20 0xFFFFFFFFFFFFFFFFFFFFFFFFFFFFFFFFFFFFFFFF AND MUL OR SWAP1 SSTORE POP SWAP1 POP POP PUSH1 0x17 PUSH1 0x0 DUP2 SLOAD DUP1 SWAP3 SWAP2 SWAP1 PUSH1 0x1 ADD SWAP2 SWAP1 POP SSTORE POP JUMP JUMPDEST PUSH1 0x16 PUSH1 0x0 SWAP1 SLOAD SWAP1 PUSH2 0x100 EXP SWAP1 DIV PUSH20 0xFFFFFFFFFFFFFFFFFFFFFFFFFFFFFFFFFFFFFFFF AND DUP2 JUMP JUMPDEST DUP1 PUSH1 0x0 DUP1 CALLER PUSH20 0xFFFFFFFFFFFFFFFFFFFFFFFFFFFFFFFFFFFFFFFF AND PUSH20 0xFFFFFFFFFFFFFFFFFFFFFFFFFFFFFFFFFFFFFFFF AND DUP2 MSTORE PUSH1 0x20 ADD SWAP1 DUP2 MSTORE PUSH1 0x20 ADD PUSH1 0x0 KECCAK256 PUSH1 0x0 ADD SLOAD LT DUP1 PUSH2 0x45E JUMPI POP PUSH1 0x2 DUP3 GT JUMPDEST ISZERO PUSH2 0x468 JUMPI PUSH1 0x0 DUP1 REVERT JUMPDEST PUSH1 0x0 DUP2 PUSH1 0x0 DUP1 CALLER PUSH20 0xFFFFFFFFFFFFFFFFFFFFFFFFFFFFFFFFFFFFFFFF AND PUSH20 0xFFFFFFFFFFFFFFFFFFFFFFFFFFFFFFFFFFFFFFFF AND DUP2 MSTORE PUSH1 0x20 ADD SWAP1 DUP2 MSTORE PUSH1 0x20 ADD PUSH1 0x0 KECCAK256 PUSH1 0x0 ADD SLOAD SUB SWAP1 POP DUP1 PUSH1 0x0 DUP1 CALLER PUSH20 0xFFFFFFFFFFFFFFFFFFFFFFFFFFFFFFFFFFFFFFFF AND PUSH20 0xFFFFFFFFFFFFFFFFFFFFFFFFFFFFFFFFFFFFFFFF AND DUP2 MSTORE PUSH1 0x20 ADD SWAP1 DUP2 MSTORE PUSH1 0x20 ADD PUSH1 0x0 KECCAK256 PUSH1 0x0 ADD DUP2 SWAP1 SSTORE POP DUP1 PUSH1 0x1 PUSH1 0x0 DUP1 CALLER PUSH20 0xFFFFFFFFFFFFFFFFFFFFFFFFFFFFFFFFFFFFFFFF AND PUSH20 0xFFFFFFFFFFFFFFFFFFFFFFFFFFFFFFFFFFFFFFFF AND DUP2 MSTORE PUSH1 0x20 ADD SWAP1 DUP2 MSTORE PUSH1 0x20 ADD PUSH1 0x0 KECCAK256 PUSH1 0x1 ADD SLOAD PUSH1 0x4 DUP2 LT PUSH2 0x545 JUMPI INVALID JUMPDEST PUSH1 0x3 MUL ADD PUSH1 0x0 ADD DUP2 SWAP1 SSTORE POP PUSH1 0x0 PUSH1 0xD DUP5 PUSH1 0x3 DUP2 LT PUSH2 0x55F JUMPI INVALID JUMPDEST PUSH1 0x2 MUL ADD SWAP1 POP PUSH1 0x0 DUP1 SWAP1 POP JUMPDEST DUP4 DUP2 LT ISZERO PUSH2 0x5EF JUMPI DUP2 PUSH1 0x1 ADD PUSH1 0x0 DUP1 CALLER PUSH20 0xFFFFFFFFFFFFFFFFFFFFFFFFFFFFFFFFFFFFFFFF AND PUSH20 0xFFFFFFFFFFFFFFFFFFFFFFFFFFFFFFFFFFFFFFFF AND DUP2 MSTORE PUSH1 0x20 ADD SWAP1 DUP2 MSTORE PUSH1 0x20 ADD PUSH1 0x0 KECCAK256 PUSH1 0x1 ADD SLOAD SWAP1 DUP1 PUSH1 0x1 DUP2 SLOAD ADD DUP1 DUP3 SSTORE DUP1 SWAP2 POP POP SWAP1 PUSH1 0x1 DUP3 SUB SWAP1 PUSH1 0x0 MSTORE PUSH1 0x20 PUSH1 0x0 KECCAK256 ADD PUSH1 0x0 SWAP1 SWAP2 SWAP3 SWAP1 SWAP2 SWAP1 SWAP2 POP SSTORE POP DUP1 DUP1 PUSH1 0x1 ADD SWAP2 POP POP PUSH2 0x56B JUMP JUMPDEST POP POP POP POP POP JUMP JUMPDEST PUSH1 0x0 DUP1 PUSH1 0x0 PUSH1 0x1 DUP5 PUSH1 0x4 DUP2 LT PUSH2 0x608 JUMPI INVALID JUMPDEST PUSH1 0x3 MUL ADD PUSH1 0x0 ADD SLOAD PUSH1 0x1 DUP6 PUSH1 0x4 DUP2 LT PUSH2 0x61D JUMPI INVALID JUMPDEST PUSH1 0x3 MUL ADD PUSH1 0x1 ADD SLOAD PUSH1 0x1 DUP7 PUSH1 0x4 DUP2 LT PUSH2 0x632 JUMPI INVALID JUMPDEST PUSH1 0x3 MUL ADD PUSH1 0x2 ADD PUSH1 0x0 SWAP1 SLOAD SWAP1 PUSH2 0x100 EXP SWAP1 DIV PUSH20 0xFFFFFFFFFFFFFFFFFFFFFFFFFFFFFFFFFFFFFFFF AND SWAP3 POP SWAP3 POP SWAP3 POP SWAP2 SWAP4 SWAP1 SWAP3 POP JUMP JUMPDEST PUSH1 0x16 PUSH1 0x0 SWAP1 SLOAD SWAP1 PUSH2 0x100 EXP SWAP1 DIV PUSH20 0xFFFFFFFFFFFFFFFFFFFFFFFFFFFFFFFFFFFFFFFF AND PUSH20 0xFFFFFFFFFFFFFFFFFFFFFFFFFFFFFFFFFFFFFFFF AND CALLER PUSH20 0xFFFFFFFFFFFFFFFFFFFFFFFFFFFFFFFFFFFFFFFF AND EQ PUSH2 0x6C1 JUMPI PUSH1 0x0 DUP1 REVERT JUMPDEST PUSH1 0x0 DUP1 SWAP1 POP JUMPDEST PUSH1 0x3 DUP2 LT ISZERO PUSH2 0x7C9 JUMPI PUSH1 0x0 PUSH1 0xD DUP3 PUSH1 0x3 DUP2 LT PUSH2 0x6DF JUMPI INVALID JUMPDEST PUSH1 0x2 MUL ADD SWAP1 POP PUSH1 0x0 DUP2 PUSH1 0x1 ADD DUP1 SLOAD SWAP1 POP EQ PUSH2 0x7BB JUMPI PUSH1 0x0 DUP2 PUSH1 0x1 ADD DUP1 SLOAD SWAP1 POP DUP3 PUSH1 0x1 ADD DUP1 SLOAD SWAP1 POP NUMBER DUP2 PUSH2 0x70E JUMPI INVALID JUMPDEST DIV DUP2 PUSH2 0x716 JUMPI INVALID JUMPDEST MOD SWAP1 POP PUSH1 0x0 DUP3 PUSH1 0x1 ADD DUP3 DUP2 SLOAD DUP2 LT PUSH2 0x72A JUMPI INVALID JUMPDEST SWAP1 PUSH1 0x0 MSTORE PUSH1 0x20 PUSH1 0x0 KECCAK256 ADD SLOAD SWAP1 POP PUSH1 0x1 DUP2 PUSH1 0x4 DUP2 LT PUSH2 0x744 JUMPI INVALID JUMPDEST PUSH1 0x3 MUL ADD PUSH1 0x2 ADD PUSH1 0x0 SWAP1 SLOAD SWAP1 PUSH2 0x100 EXP SWAP1 DIV PUSH20 0xFFFFFFFFFFFFFFFFFFFFFFFFFFFFFFFFFFFFFFFF AND PUSH1 0x13 DUP6 PUSH1 0x3 DUP2 LT PUSH2 0x779 JUMPI INVALID JUMPDEST ADD PUSH1 0x0 PUSH2 0x100 EXP DUP2 SLOAD DUP2 PUSH20 0xFFFFFFFFFFFFFFFFFFFFFFFFFFFFFFFFFFFFFFFF MUL NOT AND SWAP1 DUP4 PUSH20 0xFFFFFFFFFFFFFFFFFFFFFFFFFFFFFFFFFFFFFFFF AND MUL OR SWAP1 SSTORE POP POP POP JUMPDEST POP DUP1 DUP1 PUSH1 0x1 ADD SWAP2 POP POP PUSH2 0x6C7 JUMP JUMPDEST POP JUMP JUMPDEST PUSH1 0x13 DUP2 PUSH1 0x3 DUP2 LT PUSH2 0x7D9 JUMPI INVALID JUMPDEST ADD PUSH1 0x0 SWAP2 POP SLOAD SWAP1 PUSH2 0x100 EXP SWAP1 DIV PUSH20 0xFFFFFFFFFFFFFFFFFFFFFFFFFFFFFFFFFFFFFFFF AND DUP2 JUMP JUMPDEST PUSH1 0xD DUP2 PUSH1 0x3 DUP2 LT PUSH2 0x80C JUMPI INVALID JUMPDEST PUSH1 0x2 MUL ADD PUSH1 0x0 SWAP2 POP SWAP1 POP DUP1 PUSH1 0x0 ADD SLOAD SWAP1 POP DUP2 JUMP INVALID LOG2 PUSH6 0x627A7A723058 KECCAK256 0xa9 ADDRESS 0xd 0x4d MUL 0xf9 0xa9 0xc1 INVALID 0xed 0x4b SWAP1 PUSH21 0x433C129897650C84578D2D07A91A3EE60E706C6473 PUSH16 0x6C634300050900320000000000000000 "
				},
				"gasEstimates": {
					"creation": {
						"codeDepositCost": "426600",
						"executionCost": "infinite",
						"totalCost": "infinite"
					},
					"external": {
						"beneficiary()": "476",
						"bid(uint256,uint256)": "infinite",
						"getPersonDetails(uint256)": "1145",
						"items(uint256)": "617",
						"register()": "142871",
						"revealWinners()": "infinite",
						"winners(uint256)": "610"
					}
				},
				"methodIdentifiers": {
					"beneficiary()": "38af3eed",
					"bid(uint256,uint256)": "598647f8",
					"getPersonDetails(uint256)": "60981705",
					"items(uint256)": "bfb231d2",
					"register()": "1aa3a008",
					"revealWinners()": "952587d6",
					"winners(uint256)": "a2fb1175"
				}
			},
			"userdoc": {
				"methods": {}
			}
		}
	}
}