{
	"StateTrans.sol": {
		"StateTransV2": {
			"abi": [
				{
					"constant": false,
					"inputs": [],
					"name": "advanceState",
					"outputs": [],
					"payable": false,
					"stateMutability": "nonpayable",
					"type": "function"
				},
				{
					"constant": true,
					"inputs": [],
					"name": "stage",
					"outputs": [
						{
							"name": "",
							"type": "uint8"
						}
					],
					"payable": false,
					"stateMutability": "view",
					"type": "function"
				},
				{
					"constant": true,
					"inputs": [],
					"name": "timeNow",
					"outputs": [
						{
							"name": "",
							"type": "uint256"
						}
					],
					"payable": false,
					"stateMutability": "view",
					"type": "function"
				},
				{
					"inputs": [],
					"payable": false,
					"stateMutability": "nonpayable",
					"type": "constructor"
				}
			],
			"devdoc": {
				"methods": {}
			},
			"evm": {
				"assembly": "    /* \"StateTrans.sol\":24:942  contract StateTransV2 {... */\n  mstore(0x40, 0x80)\n    /* \"StateTrans.sol\":166:247  constructor() public {... */\n  callvalue\n    /* \"--CODEGEN--\":8:17   */\n  dup1\n    /* \"--CODEGEN--\":5:7   */\n  iszero\n  tag_1\n  jumpi\n    /* \"--CODEGEN--\":30:31   */\n  0x00\n    /* \"--CODEGEN--\":27:28   */\n  dup1\n    /* \"--CODEGEN--\":20:32   */\n  revert\n    /* \"--CODEGEN--\":5:7   */\ntag_1:\n    /* \"StateTrans.sol\":166:247  constructor() public {... */\n  pop\n    /* \"StateTrans.sol\":205:215  Stage.Init */\n  0x00\n    /* \"StateTrans.sol\":197:202  stage */\n  dup1\n  0x00\n    /* \"StateTrans.sol\":197:215  stage = Stage.Init */\n  0x0100\n  exp\n  dup2\n  sload\n  dup2\n  0xff\n  mul\n  not\n  and\n  swap1\n  dup4\n  0x03\n  dup2\n  gt\n  iszero\n  tag_4\n  jumpi\n  invalid\ntag_4:\n  mul\n  or\n  swap1\n  sstore\n  pop\n    /* \"StateTrans.sol\":237:240  now */\n  timestamp\n    /* \"StateTrans.sol\":225:234  startTime */\n  0x01\n    /* \"StateTrans.sol\":225:240  startTime = now */\n  dup2\n  swap1\n  sstore\n  pop\n    /* \"StateTrans.sol\":24:942  contract StateTransV2 {... */\n  dataSize(sub_0)\n  dup1\n  dataOffset(sub_0)\n  0x00\n  codecopy\n  0x00\n  return\nstop\n\nsub_0: assembly {\n        /* \"StateTrans.sol\":24:942  contract StateTransV2 {... */\n      mstore(0x40, 0x80)\n      callvalue\n        /* \"--CODEGEN--\":8:17   */\n      dup1\n        /* \"--CODEGEN--\":5:7   */\n      iszero\n      tag_1\n      jumpi\n        /* \"--CODEGEN--\":30:31   */\n      0x00\n        /* \"--CODEGEN--\":27:28   */\n      dup1\n        /* \"--CODEGEN--\":20:32   */\n      revert\n        /* \"--CODEGEN--\":5:7   */\n    tag_1:\n        /* \"StateTrans.sol\":24:942  contract StateTransV2 {... */\n      pop\n      jumpi(tag_2, lt(calldatasize, 0x04))\n      shr(0xe0, calldataload(0x00))\n      dup1\n      0x84ecdaf6\n      eq\n      tag_3\n      jumpi\n      dup1\n      0xc040e6b8\n      eq\n      tag_4\n      jumpi\n      dup1\n      0xd95660be\n      eq\n      tag_5\n      jumpi\n    tag_2:\n      0x00\n      dup1\n      revert\n        /* \"StateTrans.sol\":583:940  function advanceState () public  {... */\n    tag_3:\n      tag_6\n      tag_7\n      jump\t// in\n    tag_6:\n      stop\n        /* \"StateTrans.sol\":92:110  Stage public stage */\n    tag_4:\n      tag_8\n      tag_9\n      jump\t// in\n    tag_8:\n      mload(0x40)\n      dup1\n      dup3\n      0x03\n      dup2\n      gt\n      iszero\n      tag_10\n      jumpi\n      invalid\n    tag_10:\n      0xff\n      and\n      dup2\n      mstore\n      0x20\n      add\n      swap2\n      pop\n      pop\n      mload(0x40)\n      dup1\n      swap2\n      sub\n      swap1\n      return\n        /* \"StateTrans.sol\":136:155  uint public timeNow */\n    tag_5:\n      tag_11\n      tag_12\n      jump\t// in\n    tag_11:\n      mload(0x40)\n      dup1\n      dup3\n      dup2\n      mstore\n      0x20\n      add\n      swap2\n      pop\n      pop\n      mload(0x40)\n      dup1\n      swap2\n      sub\n      swap1\n      return\n        /* \"StateTrans.sol\":583:940  function advanceState () public  {... */\n    tag_7:\n        /* \"StateTrans.sol\":636:639  now */\n      timestamp\n        /* \"StateTrans.sol\":626:633  timeNow */\n      0x02\n        /* \"StateTrans.sol\":626:639  timeNow = now */\n      dup2\n      swap1\n      sstore\n      pop\n        /* \"StateTrans.sol\":676:686  10 seconds */\n      0x0a\n        /* \"StateTrans.sol\":664:673  startTime */\n      sload(0x01)\n        /* \"StateTrans.sol\":664:686  startTime + 10 seconds */\n      add\n        /* \"StateTrans.sol\":653:660  timeNow */\n      sload(0x02)\n        /* \"StateTrans.sol\":653:687  timeNow > (startTime + 10 seconds) */\n      gt\n        /* \"StateTrans.sol\":649:934  if (timeNow > (startTime + 10 seconds)) {... */\n      iszero\n      tag_14\n      jumpi\n        /* \"StateTrans.sol\":711:718  timeNow */\n      sload(0x02)\n        /* \"StateTrans.sol\":699:708  startTime */\n      0x01\n        /* \"StateTrans.sol\":699:718  startTime = timeNow */\n      dup2\n      swap1\n      sstore\n      pop\n        /* \"StateTrans.sol\":743:753  Stage.Init */\n      0x00\n        /* \"StateTrans.sol\":734:753  stage == Stage.Init */\n      0x03\n      dup2\n      gt\n      iszero\n      tag_15\n      jumpi\n      invalid\n    tag_15:\n        /* \"StateTrans.sol\":734:739  stage */\n      0x00\n      dup1\n      swap1\n      sload\n      swap1\n      0x0100\n      exp\n      swap1\n      div\n      0xff\n      and\n        /* \"StateTrans.sol\":734:753  stage == Stage.Init */\n      0x03\n      dup2\n      gt\n      iszero\n      tag_16\n      jumpi\n      invalid\n    tag_16:\n      eq\n        /* \"StateTrans.sol\":730:783  if (stage == Stage.Init) {stage = Stage.Reg; return;} */\n      iszero\n      tag_17\n      jumpi\n        /* \"StateTrans.sol\":764:773  Stage.Reg */\n      0x01\n        /* \"StateTrans.sol\":756:761  stage */\n      0x00\n      dup1\n        /* \"StateTrans.sol\":756:773  stage = Stage.Reg */\n      0x0100\n      exp\n      dup2\n      sload\n      dup2\n      0xff\n      mul\n      not\n      and\n      swap1\n      dup4\n      0x03\n      dup2\n      gt\n      iszero\n      tag_18\n      jumpi\n      invalid\n    tag_18:\n      mul\n      or\n      swap1\n      sstore\n      pop\n        /* \"StateTrans.sol\":775:782  return; */\n      jump(tag_13)\n        /* \"StateTrans.sol\":730:783  if (stage == Stage.Init) {stage = Stage.Reg; return;} */\n    tag_17:\n        /* \"StateTrans.sol\":805:814  Stage.Reg */\n      0x01\n        /* \"StateTrans.sol\":796:814  stage == Stage.Reg */\n      0x03\n      dup2\n      gt\n      iszero\n      tag_19\n      jumpi\n      invalid\n    tag_19:\n        /* \"StateTrans.sol\":796:801  stage */\n      0x00\n      dup1\n      swap1\n      sload\n      swap1\n      0x0100\n      exp\n      swap1\n      div\n      0xff\n      and\n        /* \"StateTrans.sol\":796:814  stage == Stage.Reg */\n      0x03\n      dup2\n      gt\n      iszero\n      tag_20\n      jumpi\n      invalid\n    tag_20:\n      eq\n        /* \"StateTrans.sol\":792:845  if (stage == Stage.Reg) {stage = Stage.Vote; return;} */\n      iszero\n      tag_21\n      jumpi\n        /* \"StateTrans.sol\":825:835  Stage.Vote */\n      0x02\n        /* \"StateTrans.sol\":817:822  stage */\n      0x00\n      dup1\n        /* \"StateTrans.sol\":817:835  stage = Stage.Vote */\n      0x0100\n      exp\n      dup2\n      sload\n      dup2\n      0xff\n      mul\n      not\n      and\n      swap1\n      dup4\n      0x03\n      dup2\n      gt\n      iszero\n      tag_22\n      jumpi\n      invalid\n    tag_22:\n      mul\n      or\n      swap1\n      sstore\n      pop\n        /* \"StateTrans.sol\":837:844  return; */\n      jump(tag_13)\n        /* \"StateTrans.sol\":792:845  if (stage == Stage.Reg) {stage = Stage.Vote; return;} */\n    tag_21:\n        /* \"StateTrans.sol\":867:877  Stage.Vote */\n      0x02\n        /* \"StateTrans.sol\":858:877  stage == Stage.Vote */\n      0x03\n      dup2\n      gt\n      iszero\n      tag_23\n      jumpi\n      invalid\n    tag_23:\n        /* \"StateTrans.sol\":858:863  stage */\n      0x00\n      dup1\n      swap1\n      sload\n      swap1\n      0x0100\n      exp\n      swap1\n      div\n      0xff\n      and\n        /* \"StateTrans.sol\":858:877  stage == Stage.Vote */\n      0x03\n      dup2\n      gt\n      iszero\n      tag_24\n      jumpi\n      invalid\n    tag_24:\n      eq\n        /* \"StateTrans.sol\":854:908  if (stage == Stage.Vote) {stage = Stage.Done; return;} */\n      iszero\n      tag_25\n      jumpi\n        /* \"StateTrans.sol\":888:898  Stage.Done */\n      0x03\n        /* \"StateTrans.sol\":880:885  stage */\n      0x00\n      dup1\n        /* \"StateTrans.sol\":880:898  stage = Stage.Done */\n      0x0100\n      exp\n      dup2\n      sload\n      dup2\n      0xff\n      mul\n      not\n      and\n      swap1\n      dup4\n      0x03\n      dup2\n      gt\n      iszero\n      tag_26\n      jumpi\n      invalid\n    tag_26:\n      mul\n      or\n      swap1\n      sstore\n      pop\n        /* \"StateTrans.sol\":900:907  return; */\n      jump(tag_13)\n        /* \"StateTrans.sol\":854:908  if (stage == Stage.Vote) {stage = Stage.Done; return;} */\n    tag_25:\n        /* \"StateTrans.sol\":917:924  return; */\n      jump(tag_13)\n        /* \"StateTrans.sol\":649:934  if (timeNow > (startTime + 10 seconds)) {... */\n    tag_14:\n        /* \"StateTrans.sol\":583:940  function advanceState () public  {... */\n    tag_13:\n      jump\t// out\n        /* \"StateTrans.sol\":92:110  Stage public stage */\n    tag_9:\n      0x00\n      dup1\n      swap1\n      sload\n      swap1\n      0x0100\n      exp\n      swap1\n      div\n      0xff\n      and\n      dup2\n      jump\t// out\n        /* \"StateTrans.sol\":136:155  uint public timeNow */\n    tag_12:\n      sload(0x02)\n      dup2\n      jump\t// out\n\n    auxdata: 0xa265627a7a72305820c75c901d9f695f6f2073d5b408153771584c7a9981401f910574b4f9019974fd64736f6c63430005090032\n}\n",
				"bytecode": {
					"linkReferences": {},
					"object": "608060405234801561001057600080fd5b5060008060006101000a81548160ff0219169083600381111561002f57fe5b02179055504260018190555061020d8061004a6000396000f3fe608060405234801561001057600080fd5b50600436106100415760003560e01c806384ecdaf614610046578063c040e6b814610050578063d95660be1461007c575b600080fd5b61004e61009a565b005b6100586101c0565b6040518082600381111561006857fe5b60ff16815260200191505060405180910390f35b6100846101d2565b6040518082815260200191505060405180910390f35b42600281905550600a6001540160025411156101bd57600254600181905550600060038111156100c657fe5b6000809054906101000a900460ff1660038111156100e057fe5b141561010e5760016000806101000a81548160ff0219169083600381111561010457fe5b02179055506101be565b6001600381111561011b57fe5b6000809054906101000a900460ff16600381111561013557fe5b14156101635760026000806101000a81548160ff0219169083600381111561015957fe5b02179055506101be565b6002600381111561017057fe5b6000809054906101000a900460ff16600381111561018a57fe5b14156101b85760036000806101000a81548160ff021916908360038111156101ae57fe5b02179055506101be565b6101be565b5b565b6000809054906101000a900460ff1681565b6002548156fea265627a7a72305820c75c901d9f695f6f2073d5b408153771584c7a9981401f910574b4f9019974fd64736f6c63430005090032",
					"opcodes": "PUSH1 0x80 PUSH1 0x40 MSTORE CALLVALUE DUP1 ISZERO PUSH2 0x10 JUMPI PUSH1 0x0 DUP1 REVERT JUMPDEST POP PUSH1 0x0 DUP1 PUSH1 0x0 PUSH2 0x100 EXP DUP2 SLOAD DUP2 PUSH1 0xFF MUL NOT AND SWAP1 DUP4 PUSH1 0x3 DUP2 GT ISZERO PUSH2 0x2F JUMPI INVALID JUMPDEST MUL OR SWAP1 SSTORE POP TIMESTAMP PUSH1 0x1 DUP2 SWAP1 SSTORE POP PUSH2 0x20D DUP1 PUSH2 0x4A PUSH1 0x0 CODECOPY PUSH1 0x0 RETURN INVALID PUSH1 0x80 PUSH1 0x40 MSTORE CALLVALUE DUP1 ISZERO PUSH2 0x10 JUMPI PUSH1 0x0 DUP1 REVERT JUMPDEST POP PUSH1 0x4 CALLDATASIZE LT PUSH2 0x41 JUMPI PUSH1 0x0 CALLDATALOAD PUSH1 0xE0 SHR DUP1 PUSH4 0x84ECDAF6 EQ PUSH2 0x46 JUMPI DUP1 PUSH4 0xC040E6B8 EQ PUSH2 0x50 JUMPI DUP1 PUSH4 0xD95660BE EQ PUSH2 0x7C JUMPI JUMPDEST PUSH1 0x0 DUP1 REVERT JUMPDEST PUSH2 0x4E PUSH2 0x9A JUMP JUMPDEST STOP JUMPDEST PUSH2 0x58 PUSH2 0x1C0 JUMP JUMPDEST PUSH1 0x40 MLOAD DUP1 DUP3 PUSH1 0x3 DUP2 GT ISZERO PUSH2 0x68 JUMPI INVALID JUMPDEST PUSH1 0xFF AND DUP2 MSTORE PUSH1 0x20 ADD SWAP2 POP POP PUSH1 0x40 MLOAD DUP1 SWAP2 SUB SWAP1 RETURN JUMPDEST PUSH2 0x84 PUSH2 0x1D2 JUMP JUMPDEST PUSH1 0x40 MLOAD DUP1 DUP3 DUP2 MSTORE PUSH1 0x20 ADD SWAP2 POP POP PUSH1 0x40 MLOAD DUP1 SWAP2 SUB SWAP1 RETURN JUMPDEST TIMESTAMP PUSH1 0x2 DUP2 SWAP1 SSTORE POP PUSH1 0xA PUSH1 0x1 SLOAD ADD PUSH1 0x2 SLOAD GT ISZERO PUSH2 0x1BD JUMPI PUSH1 0x2 SLOAD PUSH1 0x1 DUP2 SWAP1 SSTORE POP PUSH1 0x0 PUSH1 0x3 DUP2 GT ISZERO PUSH2 0xC6 JUMPI INVALID JUMPDEST PUSH1 0x0 DUP1 SWAP1 SLOAD SWAP1 PUSH2 0x100 EXP SWAP1 DIV PUSH1 0xFF AND PUSH1 0x3 DUP2 GT ISZERO PUSH2 0xE0 JUMPI INVALID JUMPDEST EQ ISZERO PUSH2 0x10E JUMPI PUSH1 0x1 PUSH1 0x0 DUP1 PUSH2 0x100 EXP DUP2 SLOAD DUP2 PUSH1 0xFF MUL NOT AND SWAP1 DUP4 PUSH1 0x3 DUP2 GT ISZERO PUSH2 0x104 JUMPI INVALID JUMPDEST MUL OR SWAP1 SSTORE POP PUSH2 0x1BE JUMP JUMPDEST PUSH1 0x1 PUSH1 0x3 DUP2 GT ISZERO PUSH2 0x11B JUMPI INVALID JUMPDEST PUSH1 0x0 DUP1 SWAP1 SLOAD SWAP1 PUSH2 0x100 EXP SWAP1 DIV PUSH1 0xFF AND PUSH1 0x3 DUP2 GT ISZERO PUSH2 0x135 JUMPI INVALID JUMPDEST EQ ISZERO PUSH2 0x163 JUMPI PUSH1 0x2 PUSH1 0x0 DUP1 PUSH2 0x100 EXP DUP2 SLOAD DUP2 PUSH1 0xFF MUL NOT AND SWAP1 DUP4 PUSH1 0x3 DUP2 GT ISZERO PUSH2 0x159 JUMPI INVALID JUMPDEST MUL OR SWAP1 SSTORE POP PUSH2 0x1BE JUMP JUMPDEST PUSH1 0x2 PUSH1 0x3 DUP2 GT ISZERO PUSH2 0x170 JUMPI INVALID JUMPDEST PUSH1 0x0 DUP1 SWAP1 SLOAD SWAP1 PUSH2 0x100 EXP SWAP1 DIV PUSH1 0xFF AND PUSH1 0x3 DUP2 GT ISZERO PUSH2 0x18A JUMPI INVALID JUMPDEST EQ ISZERO PUSH2 0x1B8 JUMPI PUSH1 0x3 PUSH1 0x0 DUP1 PUSH2 0x100 EXP DUP2 SLOAD DUP2 PUSH1 0xFF MUL NOT AND SWAP1 DUP4 PUSH1 0x3 DUP2 GT ISZERO PUSH2 0x1AE JUMPI INVALID JUMPDEST MUL OR SWAP1 SSTORE POP PUSH2 0x1BE JUMP JUMPDEST PUSH2 0x1BE JUMP JUMPDEST JUMPDEST JUMP JUMPDEST PUSH1 0x0 DUP1 SWAP1 SLOAD SWAP1 PUSH2 0x100 EXP SWAP1 DIV PUSH1 0xFF AND DUP2 JUMP JUMPDEST PUSH1 0x2 SLOAD DUP2 JUMP INVALID LOG2 PUSH6 0x627A7A723058 KECCAK256 0xc7 0x5c SWAP1 SAR SWAP16 PUSH10 0x5F6F2073D5B408153771 PC 0x4c PUSH27 0x9981401F910574B4F9019974FD64736F6C63430005090032000000 "
				},
				"gasEstimates": {
					"creation": {
						"codeDepositCost": "105000",
						"executionCost": "40453",
						"totalCost": "145453"
					},
					"external": {
						"advanceState()": "62020",
						"stage()": "473",
						"timeNow()": "427"
					}
				},
				"methodIdentifiers": {
					"advanceState()": "84ecdaf6",
					"stage()": "c040e6b8",
					"timeNow()": "d95660be"
				}
			},
			"userdoc": {
				"methods": {}
			}
		}
	}
}