{
	"BallotWithStages.sol": {
		"Ballot": {
			"abi": [
				{
					"constant": false,
					"inputs": [
						{
							"name": "toVoter",
							"type": "address"
						}
					],
					"name": "register",
					"outputs": [],
					"payable": false,
					"stateMutability": "nonpayable",
					"type": "function"
				},
				{
					"constant": true,
					"inputs": [],
					"name": "winningProposal",
					"outputs": [
						{
							"name": "_winningProposal",
							"type": "uint8"
						}
					],
					"payable": false,
					"stateMutability": "view",
					"type": "function"
				},
				{
					"constant": false,
					"inputs": [
						{
							"name": "toProposal",
							"type": "uint8"
						}
					],
					"name": "vote",
					"outputs": [],
					"payable": false,
					"stateMutability": "nonpayable",
					"type": "function"
				},
				{
					"constant": true,
					"inputs": [],
					"name": "stage",
					"outputs": [
						{
							"name": "",
							"type": "uint8"
						}
					],
					"payable": false,
					"stateMutability": "view",
					"type": "function"
				},
				{
					"inputs": [
						{
							"name": "_numProposals",
							"type": "uint8"
						}
					],
					"payable": false,
					"stateMutability": "nonpayable",
					"type": "constructor"
				}
			],
			"devdoc": {
				"methods": {}
			},
			"evm": {
				"assembly": "    /* \"BallotWithStages.sol\":24:2054  contract Ballot {... */\n  mstore(0x40, 0x80)\n    /* \"BallotWithStages.sol\":244:254  Stage.Init */\n  0x00\n    /* \"BallotWithStages.sol\":223:254  Stage public stage = Stage.Init */\n  dup1\n  exp(0x0100, 0x00)\n  dup2\n  sload\n  dup2\n  0xff\n  mul\n  not\n  and\n  swap1\n  dup4\n  0x03\n  dup2\n  gt\n  iszero\n  tag_1\n  jumpi\n  invalid\ntag_1:\n  mul\n  or\n  swap1\n  sstore\n  pop\n    /* \"BallotWithStages.sol\":455:706  constructor(uint8 _numProposals) public {... */\n  callvalue\n    /* \"--CODEGEN--\":8:17   */\n  dup1\n    /* \"--CODEGEN--\":5:7   */\n  iszero\n  tag_2\n  jumpi\n    /* \"--CODEGEN--\":30:31   */\n  0x00\n    /* \"--CODEGEN--\":27:28   */\n  dup1\n    /* \"--CODEGEN--\":20:32   */\n  revert\n    /* \"--CODEGEN--\":5:7   */\ntag_2:\n    /* \"BallotWithStages.sol\":455:706  constructor(uint8 _numProposals) public {... */\n  pop\n  mload(0x40)\n  sub(codesize, bytecodeSize)\n  dup1\n  bytecodeSize\n  dup4\n  codecopy\n  dup2\n  dup2\n  add\n  0x40\n  mstore\n    /* \"--CODEGEN--\":13:15   */\n  0x20\n    /* \"--CODEGEN--\":8:11   */\n  dup2\n    /* \"--CODEGEN--\":5:16   */\n  lt\n    /* \"--CODEGEN--\":2:4   */\n  iszero\n  tag_3\n  jumpi\n    /* \"--CODEGEN--\":29:30   */\n  0x00\n    /* \"--CODEGEN--\":26:27   */\n  dup1\n    /* \"--CODEGEN--\":19:31   */\n  revert\n    /* \"--CODEGEN--\":2:4   */\ntag_3:\n    /* \"BallotWithStages.sol\":455:706  constructor(uint8 _numProposals) public {... */\n  dup2\n  add\n  swap1\n  dup1\n  dup1\n  mload\n  swap1\n  0x20\n  add\n  swap1\n  swap3\n  swap2\n  swap1\n  pop\n  pop\n  pop\n    /* \"BallotWithStages.sol\":519:529  msg.sender */\n  caller\n    /* \"BallotWithStages.sol\":505:516  chairperson */\n  0x00\n  0x01\n    /* \"BallotWithStages.sol\":505:529  chairperson = msg.sender */\n  0x0100\n  exp\n  dup2\n  sload\n  dup2\n  0xffffffffffffffffffffffffffffffffffffffff\n  mul\n  not\n  and\n  swap1\n  dup4\n  0xffffffffffffffffffffffffffffffffffffffff\n  and\n  mul\n  or\n  swap1\n  sstore\n  pop\n    /* \"BallotWithStages.sol\":568:569  2 */\n  0x02\n    /* \"BallotWithStages.sol\":539:545  voters */\n  0x01\n    /* \"BallotWithStages.sol\":539:558  voters[chairperson] */\n  0x00\n    /* \"BallotWithStages.sol\":546:557  chairperson */\n  dup1\n  0x01\n  swap1\n  sload\n  swap1\n  0x0100\n  exp\n  swap1\n  div\n  0xffffffffffffffffffffffffffffffffffffffff\n  and\n    /* \"BallotWithStages.sol\":539:558  voters[chairperson] */\n  0xffffffffffffffffffffffffffffffffffffffff\n  and\n  0xffffffffffffffffffffffffffffffffffffffff\n  and\n  dup2\n  mstore\n  0x20\n  add\n  swap1\n  dup2\n  mstore\n  0x20\n  add\n  0x00\n  keccak256\n    /* \"BallotWithStages.sol\":539:565  voters[chairperson].weight */\n  0x00\n  add\n    /* \"BallotWithStages.sol\":539:569  voters[chairperson].weight = 2 */\n  dup2\n  swap1\n  sstore\n  pop\n    /* \"BallotWithStages.sol\":634:647  _numProposals */\n  dup1\n    /* \"BallotWithStages.sol\":615:647  proposals.length = _numProposals */\n  0xff\n  and\n    /* \"BallotWithStages.sol\":615:624  proposals */\n  0x02\n    /* \"BallotWithStages.sol\":615:647  proposals.length = _numProposals */\n  dup2\n  tag_6\n  swap2\n  swap1\n  tag_7\n  jump\t// in\ntag_6:\n  pop\n    /* \"BallotWithStages.sol\":665:674  Stage.Reg */\n  0x01\n    /* \"BallotWithStages.sol\":657:662  stage */\n  0x00\n  dup1\n    /* \"BallotWithStages.sol\":657:674  stage = Stage.Reg */\n  0x0100\n  exp\n  dup2\n  sload\n  dup2\n  0xff\n  mul\n  not\n  and\n  swap1\n  dup4\n  0x03\n  dup2\n  gt\n  iszero\n  tag_8\n  jumpi\n  invalid\ntag_8:\n  mul\n  or\n  swap1\n  sstore\n  pop\n    /* \"BallotWithStages.sol\":696:699  now */\n  timestamp\n    /* \"BallotWithStages.sol\":684:693  startTime */\n  0x03\n    /* \"BallotWithStages.sol\":684:699  startTime = now */\n  dup2\n  swap1\n  sstore\n  pop\n    /* \"BallotWithStages.sol\":455:706  constructor(uint8 _numProposals) public {... */\n  pop\n    /* \"BallotWithStages.sol\":24:2054  contract Ballot {... */\n  jump(tag_9)\ntag_7:\n  dup2\n  sload\n  dup2\n  dup4\n  sstore\n  dup2\n  dup2\n  gt\n  iszero\n  tag_10\n  jumpi\n  dup2\n  dup4\n  0x00\n  mstore\n  keccak256(0x00, 0x20)\n  swap2\n  dup3\n  add\n  swap2\n  add\n  tag_11\n  swap2\n  swap1\n  tag_12\n  jump\t// in\ntag_11:\ntag_10:\n  pop\n  pop\n  pop\n  jump\t// out\ntag_12:\n  tag_13\n  swap2\n  swap1\ntag_14:\n  dup1\n  dup3\n  gt\n  iszero\n  tag_15\n  jumpi\n  0x00\n  dup1\n  dup3\n  add\n  0x00\n  swap1\n  sstore\n  pop\n  0x01\n  add\n  jump(tag_14)\ntag_15:\n  pop\n  swap1\n  jump\ntag_13:\n  swap1\n  jump\t// out\ntag_9:\n  dataSize(sub_0)\n  dup1\n  dataOffset(sub_0)\n  0x00\n  codecopy\n  0x00\n  return\nstop\n\nsub_0: assembly {\n        /* \"BallotWithStages.sol\":24:2054  contract Ballot {... */\n      mstore(0x40, 0x80)\n      callvalue\n        /* \"--CODEGEN--\":8:17   */\n      dup1\n        /* \"--CODEGEN--\":5:7   */\n      iszero\n      tag_1\n      jumpi\n        /* \"--CODEGEN--\":30:31   */\n      0x00\n        /* \"--CODEGEN--\":27:28   */\n      dup1\n        /* \"--CODEGEN--\":20:32   */\n      revert\n        /* \"--CODEGEN--\":5:7   */\n    tag_1:\n        /* \"BallotWithStages.sol\":24:2054  contract Ballot {... */\n      pop\n      jumpi(tag_2, lt(calldatasize, 0x04))\n      shr(0xe0, calldataload(0x00))\n      dup1\n      0x4420e486\n      eq\n      tag_3\n      jumpi\n      dup1\n      0x609ff1bd\n      eq\n      tag_4\n      jumpi\n      dup1\n      0xb3f98adc\n      eq\n      tag_5\n      jumpi\n      dup1\n      0xc040e6b8\n      eq\n      tag_6\n      jumpi\n    tag_2:\n      0x00\n      dup1\n      revert\n        /* \"BallotWithStages.sol\":816:1144  function register(address toVoter) public {... */\n    tag_3:\n      tag_7\n      0x04\n      dup1\n      calldatasize\n      sub\n        /* \"--CODEGEN--\":13:15   */\n      0x20\n        /* \"--CODEGEN--\":8:11   */\n      dup2\n        /* \"--CODEGEN--\":5:16   */\n      lt\n        /* \"--CODEGEN--\":2:4   */\n      iszero\n      tag_8\n      jumpi\n        /* \"--CODEGEN--\":29:30   */\n      0x00\n        /* \"--CODEGEN--\":26:27   */\n      dup1\n        /* \"--CODEGEN--\":19:31   */\n      revert\n        /* \"--CODEGEN--\":2:4   */\n    tag_8:\n        /* \"BallotWithStages.sol\":816:1144  function register(address toVoter) public {... */\n      dup2\n      add\n      swap1\n      dup1\n      dup1\n      calldataload\n      0xffffffffffffffffffffffffffffffffffffffff\n      and\n      swap1\n      0x20\n      add\n      swap1\n      swap3\n      swap2\n      swap1\n      pop\n      pop\n      pop\n      tag_9\n      jump\t// in\n    tag_7:\n      stop\n        /* \"BallotWithStages.sol\":1624:2052  function winningProposal() public view returns (uint8 _winningProposal) {... */\n    tag_4:\n      tag_10\n      tag_11\n      jump\t// in\n    tag_10:\n      mload(0x40)\n      dup1\n      dup3\n      0xff\n      and\n      0xff\n      and\n      dup2\n      mstore\n      0x20\n      add\n      swap2\n      pop\n      pop\n      mload(0x40)\n      dup1\n      swap2\n      sub\n      swap1\n      return\n        /* \"BallotWithStages.sol\":1204:1618  function vote(uint8 toProposal) public {... */\n    tag_5:\n      tag_12\n      0x04\n      dup1\n      calldatasize\n      sub\n        /* \"--CODEGEN--\":13:15   */\n      0x20\n        /* \"--CODEGEN--\":8:11   */\n      dup2\n        /* \"--CODEGEN--\":5:16   */\n      lt\n        /* \"--CODEGEN--\":2:4   */\n      iszero\n      tag_13\n      jumpi\n        /* \"--CODEGEN--\":29:30   */\n      0x00\n        /* \"--CODEGEN--\":26:27   */\n      dup1\n        /* \"--CODEGEN--\":19:31   */\n      revert\n        /* \"--CODEGEN--\":2:4   */\n    tag_13:\n        /* \"BallotWithStages.sol\":1204:1618  function vote(uint8 toProposal) public {... */\n      dup2\n      add\n      swap1\n      dup1\n      dup1\n      calldataload\n      0xff\n      and\n      swap1\n      0x20\n      add\n      swap1\n      swap3\n      swap2\n      swap1\n      pop\n      pop\n      pop\n      tag_14\n      jump\t// in\n    tag_12:\n      stop\n        /* \"BallotWithStages.sol\":223:254  Stage public stage = Stage.Init */\n    tag_6:\n      tag_15\n      tag_16\n      jump\t// in\n    tag_15:\n      mload(0x40)\n      dup1\n      dup3\n      0x03\n      dup2\n      gt\n      iszero\n      tag_17\n      jumpi\n      invalid\n    tag_17:\n      0xff\n      and\n      dup2\n      mstore\n      0x20\n      add\n      swap2\n      pop\n      pop\n      mload(0x40)\n      dup1\n      swap2\n      sub\n      swap1\n      return\n        /* \"BallotWithStages.sol\":816:1144  function register(address toVoter) public {... */\n    tag_9:\n        /* \"BallotWithStages.sol\":881:890  Stage.Reg */\n      0x01\n        /* \"BallotWithStages.sol\":872:890  stage != Stage.Reg */\n      0x03\n      dup2\n      gt\n      iszero\n      tag_19\n      jumpi\n      invalid\n    tag_19:\n        /* \"BallotWithStages.sol\":872:877  stage */\n      0x00\n      dup1\n      swap1\n      sload\n      swap1\n      0x0100\n      exp\n      swap1\n      div\n      0xff\n      and\n        /* \"BallotWithStages.sol\":872:890  stage != Stage.Reg */\n      0x03\n      dup2\n      gt\n      iszero\n      tag_20\n      jumpi\n      invalid\n    tag_20:\n      eq\n        /* \"BallotWithStages.sol\":868:901  if (stage != Stage.Reg) {return;} */\n      tag_21\n      jumpi\n        /* \"BallotWithStages.sol\":893:900  return; */\n      jump(tag_18)\n        /* \"BallotWithStages.sol\":868:901  if (stage != Stage.Reg) {return;} */\n    tag_21:\n        /* \"BallotWithStages.sol\":928:939  chairperson */\n      0x00\n      0x01\n      swap1\n      sload\n      swap1\n      0x0100\n      exp\n      swap1\n      div\n      0xffffffffffffffffffffffffffffffffffffffff\n      and\n        /* \"BallotWithStages.sol\":914:939  msg.sender != chairperson */\n      0xffffffffffffffffffffffffffffffffffffffff\n      and\n        /* \"BallotWithStages.sol\":914:924  msg.sender */\n      caller\n        /* \"BallotWithStages.sol\":914:939  msg.sender != chairperson */\n      0xffffffffffffffffffffffffffffffffffffffff\n      and\n      eq\n      iszero\n        /* \"BallotWithStages.sol\":914:964  msg.sender != chairperson || voters[toVoter].voted */\n      dup1\n      tag_22\n      jumpi\n      pop\n        /* \"BallotWithStages.sol\":943:949  voters */\n      0x01\n        /* \"BallotWithStages.sol\":943:958  voters[toVoter] */\n      0x00\n        /* \"BallotWithStages.sol\":950:957  toVoter */\n      dup3\n        /* \"BallotWithStages.sol\":943:958  voters[toVoter] */\n      0xffffffffffffffffffffffffffffffffffffffff\n      and\n      0xffffffffffffffffffffffffffffffffffffffff\n      and\n      dup2\n      mstore\n      0x20\n      add\n      swap1\n      dup2\n      mstore\n      0x20\n      add\n      0x00\n      keccak256\n        /* \"BallotWithStages.sol\":943:964  voters[toVoter].voted */\n      0x01\n      add\n      0x00\n      swap1\n      sload\n      swap1\n      0x0100\n      exp\n      swap1\n      div\n      0xff\n      and\n        /* \"BallotWithStages.sol\":914:964  msg.sender != chairperson || voters[toVoter].voted */\n    tag_22:\n        /* \"BallotWithStages.sol\":910:973  if (msg.sender != chairperson || voters[toVoter].voted) return; */\n      iszero\n      tag_23\n      jumpi\n        /* \"BallotWithStages.sol\":966:973  return; */\n      jump(tag_18)\n        /* \"BallotWithStages.sol\":910:973  if (msg.sender != chairperson || voters[toVoter].voted) return; */\n    tag_23:\n        /* \"BallotWithStages.sol\":1007:1008  1 */\n      0x01\n        /* \"BallotWithStages.sol\":982:988  voters */\n      dup1\n        /* \"BallotWithStages.sol\":982:997  voters[toVoter] */\n      0x00\n        /* \"BallotWithStages.sol\":989:996  toVoter */\n      dup4\n        /* \"BallotWithStages.sol\":982:997  voters[toVoter] */\n      0xffffffffffffffffffffffffffffffffffffffff\n      and\n      0xffffffffffffffffffffffffffffffffffffffff\n      and\n      dup2\n      mstore\n      0x20\n      add\n      swap1\n      dup2\n      mstore\n      0x20\n      add\n      0x00\n      keccak256\n        /* \"BallotWithStages.sol\":982:1004  voters[toVoter].weight */\n      0x00\n      add\n        /* \"BallotWithStages.sol\":982:1008  voters[toVoter].weight = 1 */\n      dup2\n      swap1\n      sstore\n      pop\n        /* \"BallotWithStages.sol\":1042:1047  false */\n      0x00\n        /* \"BallotWithStages.sol\":1018:1024  voters */\n      0x01\n        /* \"BallotWithStages.sol\":1018:1033  voters[toVoter] */\n      0x00\n        /* \"BallotWithStages.sol\":1025:1032  toVoter */\n      dup4\n        /* \"BallotWithStages.sol\":1018:1033  voters[toVoter] */\n      0xffffffffffffffffffffffffffffffffffffffff\n      and\n      0xffffffffffffffffffffffffffffffffffffffff\n      and\n      dup2\n      mstore\n      0x20\n      add\n      swap1\n      dup2\n      mstore\n      0x20\n      add\n      0x00\n      keccak256\n        /* \"BallotWithStages.sol\":1018:1039  voters[toVoter].voted */\n      0x01\n      add\n      0x00\n        /* \"BallotWithStages.sol\":1018:1047  voters[toVoter].voted = false */\n      0x0100\n      exp\n      dup2\n      sload\n      dup2\n      0xff\n      mul\n      not\n      and\n      swap1\n      dup4\n      iszero\n      iszero\n      mul\n      or\n      swap1\n      sstore\n      pop\n        /* \"BallotWithStages.sol\":1079:1089  10 seconds */\n      0x0a\n        /* \"BallotWithStages.sol\":1068:1077  startTime */\n      sload(0x03)\n        /* \"BallotWithStages.sol\":1068:1089  startTime+ 10 seconds */\n      add\n        /* \"BallotWithStages.sol\":1061:1064  now */\n      timestamp\n        /* \"BallotWithStages.sol\":1061:1090  now > (startTime+ 10 seconds) */\n      gt\n        /* \"BallotWithStages.sol\":1057:1130  if (now > (startTime+ 10 seconds)) {stage = Stage.Vote; startTime = now;} */\n      iszero\n      tag_24\n      jumpi\n        /* \"BallotWithStages.sol\":1101:1111  Stage.Vote */\n      0x02\n        /* \"BallotWithStages.sol\":1093:1098  stage */\n      0x00\n      dup1\n        /* \"BallotWithStages.sol\":1093:1111  stage = Stage.Vote */\n      0x0100\n      exp\n      dup2\n      sload\n      dup2\n      0xff\n      mul\n      not\n      and\n      swap1\n      dup4\n      0x03\n      dup2\n      gt\n      iszero\n      tag_25\n      jumpi\n      invalid\n    tag_25:\n      mul\n      or\n      swap1\n      sstore\n      pop\n        /* \"BallotWithStages.sol\":1125:1128  now */\n      timestamp\n        /* \"BallotWithStages.sol\":1113:1122  startTime */\n      0x03\n        /* \"BallotWithStages.sol\":1113:1128  startTime = now */\n      dup2\n      swap1\n      sstore\n      pop\n        /* \"BallotWithStages.sol\":1057:1130  if (now > (startTime+ 10 seconds)) {stage = Stage.Vote; startTime = now;} */\n    tag_24:\n        /* \"BallotWithStages.sol\":816:1144  function register(address toVoter) public {... */\n    tag_18:\n      pop\n      jump\t// out\n        /* \"BallotWithStages.sol\":1624:2052  function winningProposal() public view returns (uint8 _winningProposal) {... */\n    tag_11:\n        /* \"BallotWithStages.sol\":1672:1694  uint8 _winningProposal */\n      0x00\n        /* \"BallotWithStages.sol\":1719:1729  Stage.Done */\n      0x03\n        /* \"BallotWithStages.sol\":1710:1729  stage != Stage.Done */\n      dup1\n      dup2\n      gt\n      iszero\n      tag_27\n      jumpi\n      invalid\n    tag_27:\n        /* \"BallotWithStages.sol\":1710:1715  stage */\n      0x00\n      dup1\n      swap1\n      sload\n      swap1\n      0x0100\n      exp\n      swap1\n      div\n      0xff\n      and\n        /* \"BallotWithStages.sol\":1710:1729  stage != Stage.Done */\n      0x03\n      dup2\n      gt\n      iszero\n      tag_28\n      jumpi\n      invalid\n    tag_28:\n      eq\n        /* \"BallotWithStages.sol\":1706:1757  if (stage != Stage.Done) {return _winningProposal;} */\n      tag_29\n      jumpi\n        /* \"BallotWithStages.sol\":1739:1755  _winningProposal */\n      dup1\n        /* \"BallotWithStages.sol\":1732:1755  return _winningProposal */\n      swap1\n      pop\n      jump(tag_26)\n        /* \"BallotWithStages.sol\":1706:1757  if (stage != Stage.Done) {return _winningProposal;} */\n    tag_29:\n        /* \"BallotWithStages.sol\":1766:1790  uint256 winningVoteCount */\n      0x00\n        /* \"BallotWithStages.sol\":1793:1794  0 */\n      dup1\n        /* \"BallotWithStages.sol\":1766:1794  uint256 winningVoteCount = 0 */\n      swap1\n      pop\n        /* \"BallotWithStages.sol\":1809:1819  uint8 prop */\n      0x00\n        /* \"BallotWithStages.sol\":1822:1823  0 */\n      dup1\n        /* \"BallotWithStages.sol\":1809:1823  uint8 prop = 0 */\n      swap1\n      pop\n        /* \"BallotWithStages.sol\":1804:2038  for (uint8 prop = 0; prop < proposals.length; prop++)... */\n    tag_30:\n        /* \"BallotWithStages.sol\":1832:1841  proposals */\n      0x02\n        /* \"BallotWithStages.sol\":1832:1848  proposals.length */\n      dup1\n      sload\n      swap1\n      pop\n        /* \"BallotWithStages.sol\":1825:1829  prop */\n      dup2\n        /* \"BallotWithStages.sol\":1825:1848  prop < proposals.length */\n      0xff\n      and\n      lt\n        /* \"BallotWithStages.sol\":1804:2038  for (uint8 prop = 0; prop < proposals.length; prop++)... */\n      iszero\n      tag_31\n      jumpi\n        /* \"BallotWithStages.sol\":1902:1918  winningVoteCount */\n      dup2\n        /* \"BallotWithStages.sol\":1874:1883  proposals */\n      0x02\n        /* \"BallotWithStages.sol\":1884:1888  prop */\n      dup3\n        /* \"BallotWithStages.sol\":1874:1889  proposals[prop] */\n      0xff\n      and\n      dup2\n      sload\n      dup2\n      lt\n      tag_33\n      jumpi\n      invalid\n    tag_33:\n      swap1\n      0x00\n      mstore\n      keccak256(0x00, 0x20)\n      add\n        /* \"BallotWithStages.sol\":1874:1899  proposals[prop].voteCount */\n      0x00\n      add\n      sload\n        /* \"BallotWithStages.sol\":1874:1918  proposals[prop].voteCount > winningVoteCount */\n      gt\n        /* \"BallotWithStages.sol\":1870:2038  if (proposals[prop].voteCount > winningVoteCount) {... */\n      iszero\n      tag_35\n      jumpi\n        /* \"BallotWithStages.sol\":1957:1966  proposals */\n      0x02\n        /* \"BallotWithStages.sol\":1967:1971  prop */\n      dup2\n        /* \"BallotWithStages.sol\":1957:1972  proposals[prop] */\n      0xff\n      and\n      dup2\n      sload\n      dup2\n      lt\n      tag_36\n      jumpi\n      invalid\n    tag_36:\n      swap1\n      0x00\n      mstore\n      keccak256(0x00, 0x20)\n      add\n        /* \"BallotWithStages.sol\":1957:1982  proposals[prop].voteCount */\n      0x00\n      add\n      sload\n        /* \"BallotWithStages.sol\":1938:1982  winningVoteCount = proposals[prop].voteCount */\n      swap2\n      pop\n        /* \"BallotWithStages.sol\":2019:2023  prop */\n      dup1\n        /* \"BallotWithStages.sol\":2000:2023  _winningProposal = prop */\n      swap3\n      pop\n        /* \"BallotWithStages.sol\":1870:2038  if (proposals[prop].voteCount > winningVoteCount) {... */\n    tag_35:\n        /* \"BallotWithStages.sol\":1850:1856  prop++ */\n      dup1\n      dup1\n      0x01\n      add\n      swap2\n      pop\n      pop\n        /* \"BallotWithStages.sol\":1804:2038  for (uint8 prop = 0; prop < proposals.length; prop++)... */\n      jump(tag_30)\n    tag_31:\n      pop\n        /* \"BallotWithStages.sol\":1624:2052  function winningProposal() public view returns (uint8 _winningProposal) {... */\n      pop\n    tag_26:\n      swap1\n      jump\t// out\n        /* \"BallotWithStages.sol\":1204:1618  function vote(uint8 toProposal) public {... */\n    tag_14:\n        /* \"BallotWithStages.sol\":1266:1276  Stage.Vote */\n      0x02\n        /* \"BallotWithStages.sol\":1257:1276  stage != Stage.Vote */\n      0x03\n      dup2\n      gt\n      iszero\n      tag_39\n      jumpi\n      invalid\n    tag_39:\n        /* \"BallotWithStages.sol\":1257:1262  stage */\n      0x00\n      dup1\n      swap1\n      sload\n      swap1\n      0x0100\n      exp\n      swap1\n      div\n      0xff\n      and\n        /* \"BallotWithStages.sol\":1257:1276  stage != Stage.Vote */\n      0x03\n      dup2\n      gt\n      iszero\n      tag_40\n      jumpi\n      invalid\n    tag_40:\n      eq\n        /* \"BallotWithStages.sol\":1253:1287  if (stage != Stage.Vote) {return;} */\n      tag_41\n      jumpi\n        /* \"BallotWithStages.sol\":1279:1286  return; */\n      jump(tag_38)\n        /* \"BallotWithStages.sol\":1253:1287  if (stage != Stage.Vote) {return;} */\n    tag_41:\n        /* \"BallotWithStages.sol\":1296:1316  Voter storage sender */\n      0x00\n        /* \"BallotWithStages.sol\":1319:1325  voters */\n      0x01\n        /* \"BallotWithStages.sol\":1319:1337  voters[msg.sender] */\n      0x00\n        /* \"BallotWithStages.sol\":1326:1336  msg.sender */\n      caller\n        /* \"BallotWithStages.sol\":1319:1337  voters[msg.sender] */\n      0xffffffffffffffffffffffffffffffffffffffff\n      and\n      0xffffffffffffffffffffffffffffffffffffffff\n      and\n      dup2\n      mstore\n      0x20\n      add\n      swap1\n      dup2\n      mstore\n      0x20\n      add\n      0x00\n      keccak256\n        /* \"BallotWithStages.sol\":1296:1337  Voter storage sender = voters[msg.sender] */\n      swap1\n      pop\n        /* \"BallotWithStages.sol\":1351:1357  sender */\n      dup1\n        /* \"BallotWithStages.sol\":1351:1363  sender.voted */\n      0x01\n      add\n      0x00\n      swap1\n      sload\n      swap1\n      0x0100\n      exp\n      swap1\n      div\n      0xff\n      and\n        /* \"BallotWithStages.sol\":1351:1397  sender.voted || toProposal >= proposals.length */\n      dup1\n      tag_42\n      jumpi\n      pop\n        /* \"BallotWithStages.sol\":1381:1390  proposals */\n      0x02\n        /* \"BallotWithStages.sol\":1381:1397  proposals.length */\n      dup1\n      sload\n      swap1\n      pop\n        /* \"BallotWithStages.sol\":1367:1377  toProposal */\n      dup3\n        /* \"BallotWithStages.sol\":1367:1397  toProposal >= proposals.length */\n      0xff\n      and\n      lt\n      iszero\n        /* \"BallotWithStages.sol\":1351:1397  sender.voted || toProposal >= proposals.length */\n    tag_42:\n        /* \"BallotWithStages.sol\":1347:1406  if (sender.voted || toProposal >= proposals.length) return; */\n      iszero\n      tag_43\n      jumpi\n        /* \"BallotWithStages.sol\":1399:1406  return; */\n      pop\n      jump(tag_38)\n        /* \"BallotWithStages.sol\":1347:1406  if (sender.voted || toProposal >= proposals.length) return; */\n    tag_43:\n        /* \"BallotWithStages.sol\":1430:1434  true */\n      0x01\n        /* \"BallotWithStages.sol\":1415:1421  sender */\n      dup2\n        /* \"BallotWithStages.sol\":1415:1427  sender.voted */\n      0x01\n      add\n      0x00\n        /* \"BallotWithStages.sol\":1415:1434  sender.voted = true */\n      0x0100\n      exp\n      dup2\n      sload\n      dup2\n      0xff\n      mul\n      not\n      and\n      swap1\n      dup4\n      iszero\n      iszero\n      mul\n      or\n      swap1\n      sstore\n      pop\n        /* \"BallotWithStages.sol\":1458:1468  toProposal */\n      dup2\n        /* \"BallotWithStages.sol\":1444:1450  sender */\n      dup2\n        /* \"BallotWithStages.sol\":1444:1455  sender.vote */\n      0x01\n      add\n      0x01\n        /* \"BallotWithStages.sol\":1444:1468  sender.vote = toProposal */\n      0x0100\n      exp\n      dup2\n      sload\n      dup2\n      0xff\n      mul\n      not\n      and\n      swap1\n      dup4\n      0xff\n      and\n      mul\n      or\n      swap1\n      sstore\n      pop\n        /* \"BallotWithStages.sol\":1516:1522  sender */\n      dup1\n        /* \"BallotWithStages.sol\":1516:1529  sender.weight */\n      0x00\n      add\n      sload\n        /* \"BallotWithStages.sol\":1481:1490  proposals */\n      0x02\n        /* \"BallotWithStages.sol\":1491:1501  toProposal */\n      dup4\n        /* \"BallotWithStages.sol\":1481:1502  proposals[toProposal] */\n      0xff\n      and\n      dup2\n      sload\n      dup2\n      lt\n      tag_44\n      jumpi\n      invalid\n    tag_44:\n      swap1\n      0x00\n      mstore\n      keccak256(0x00, 0x20)\n      add\n        /* \"BallotWithStages.sol\":1481:1512  proposals[toProposal].voteCount */\n      0x00\n      add\n      0x00\n        /* \"BallotWithStages.sol\":1481:1529  proposals[toProposal].voteCount += sender.weight */\n      dup3\n      dup3\n      sload\n      add\n      swap3\n      pop\n      pop\n      dup2\n      swap1\n      sstore\n      pop\n        /* \"BallotWithStages.sol\":1561:1571  10 seconds */\n      0x0a\n        /* \"BallotWithStages.sol\":1550:1559  startTime */\n      sload(0x03)\n        /* \"BallotWithStages.sol\":1550:1571  startTime+ 10 seconds */\n      add\n        /* \"BallotWithStages.sol\":1543:1546  now */\n      timestamp\n        /* \"BallotWithStages.sol\":1543:1572  now > (startTime+ 10 seconds) */\n      gt\n        /* \"BallotWithStages.sol\":1539:1595  if (now > (startTime+ 10 seconds)) {stage = Stage.Done;} */\n      iszero\n      tag_46\n      jumpi\n        /* \"BallotWithStages.sol\":1583:1593  Stage.Done */\n      0x03\n        /* \"BallotWithStages.sol\":1575:1580  stage */\n      0x00\n      dup1\n        /* \"BallotWithStages.sol\":1575:1593  stage = Stage.Done */\n      0x0100\n      exp\n      dup2\n      sload\n      dup2\n      0xff\n      mul\n      not\n      and\n      swap1\n      dup4\n      0x03\n      dup2\n      gt\n      iszero\n      tag_47\n      jumpi\n      invalid\n    tag_47:\n      mul\n      or\n      swap1\n      sstore\n      pop\n        /* \"BallotWithStages.sol\":1539:1595  if (now > (startTime+ 10 seconds)) {stage = Stage.Done;} */\n    tag_46:\n        /* \"BallotWithStages.sol\":1204:1618  function vote(uint8 toProposal) public {... */\n      pop\n    tag_38:\n      pop\n      jump\t// out\n        /* \"BallotWithStages.sol\":223:254  Stage public stage = Stage.Init */\n    tag_16:\n      0x00\n      dup1\n      swap1\n      sload\n      swap1\n      0x0100\n      exp\n      swap1\n      div\n      0xff\n      and\n      dup2\n      jump\t// out\n\n    auxdata: 0xa265627a7a72305820b8bb55713e81ef7ab03ba58a692ae53fb52dde5dfa22fadaf20df2677b297ae964736f6c63430005090032\n}\n",
				"bytecode": {
					"linkReferences": {},
					"object": "608060405260008060006101000a81548160ff0219169083600381111561002257fe5b021790555034801561003357600080fd5b506040516106c33803806106c38339818101604052602081101561005657600080fd5b810190808051906020019092919050505033600060016101000a81548173ffffffffffffffffffffffffffffffffffffffff021916908373ffffffffffffffffffffffffffffffffffffffff1602179055506002600160008060019054906101000a900473ffffffffffffffffffffffffffffffffffffffff1673ffffffffffffffffffffffffffffffffffffffff1673ffffffffffffffffffffffffffffffffffffffff168152602001908152602001600020600001819055508060ff166002816101229190610153565b5060016000806101000a81548160ff0219169083600381111561014157fe5b021790555042600381905550506101a6565b81548183558181111561017a57818360005260206000209182019101610179919061017f565b5b505050565b6101a391905b8082111561019f5760008082016000905550600101610185565b5090565b90565b61050e806101b56000396000f3fe608060405234801561001057600080fd5b506004361061004c5760003560e01c80634420e48614610051578063609ff1bd14610095578063b3f98adc146100b9578063c040e6b8146100ea575b600080fd5b6100936004803603602081101561006757600080fd5b81019080803573ffffffffffffffffffffffffffffffffffffffff169060200190929190505050610116565b005b61009d6102d8565b604051808260ff1660ff16815260200191505060405180910390f35b6100e8600480360360208110156100cf57600080fd5b81019080803560ff169060200190929190505050610384565b005b6100f26104c7565b6040518082600381111561010257fe5b60ff16815260200191505060405180910390f35b6001600381111561012357fe5b6000809054906101000a900460ff16600381111561013d57fe5b14610147576102d5565b600060019054906101000a900473ffffffffffffffffffffffffffffffffffffffff1673ffffffffffffffffffffffffffffffffffffffff163373ffffffffffffffffffffffffffffffffffffffff161415806101f05750600160008273ffffffffffffffffffffffffffffffffffffffff1673ffffffffffffffffffffffffffffffffffffffff16815260200190815260200160002060010160009054906101000a900460ff165b156101fa576102d5565b60018060008373ffffffffffffffffffffffffffffffffffffffff1673ffffffffffffffffffffffffffffffffffffffff168152602001908152602001600020600001819055506000600160008373ffffffffffffffffffffffffffffffffffffffff1673ffffffffffffffffffffffffffffffffffffffff16815260200190815260200160002060010160006101000a81548160ff021916908315150217905550600a600354014211156102d45760026000806101000a81548160ff021916908360038111156102c757fe5b0217905550426003819055505b5b50565b60006003808111156102e657fe5b6000809054906101000a900460ff16600381111561030057fe5b1461030d57809050610381565b600080905060008090505b6002805490508160ff16101561037e578160028260ff168154811061033957fe5b906000526020600020016000015411156103715760028160ff168154811061035d57fe5b906000526020600020016000015491508092505b8080600101915050610318565b50505b90565b6002600381111561039157fe5b6000809054906101000a900460ff1660038111156103ab57fe5b146103b5576104c4565b6000600160003373ffffffffffffffffffffffffffffffffffffffff1673ffffffffffffffffffffffffffffffffffffffff16815260200190815260200160002090508060010160009054906101000a900460ff168061041d57506002805490508260ff1610155b1561042857506104c4565b60018160010160006101000a81548160ff021916908315150217905550818160010160016101000a81548160ff021916908360ff160217905550806000015460028360ff168154811061047757fe5b9060005260206000200160000160008282540192505081905550600a600354014211156104c25760036000806101000a81548160ff021916908360038111156104bc57fe5b02179055505b505b50565b6000809054906101000a900460ff168156fea265627a7a72305820b8bb55713e81ef7ab03ba58a692ae53fb52dde5dfa22fadaf20df2677b297ae964736f6c63430005090032",
					"opcodes": "PUSH1 0x80 PUSH1 0x40 MSTORE PUSH1 0x0 DUP1 PUSH1 0x0 PUSH2 0x100 EXP DUP2 SLOAD DUP2 PUSH1 0xFF MUL NOT AND SWAP1 DUP4 PUSH1 0x3 DUP2 GT ISZERO PUSH2 0x22 JUMPI INVALID JUMPDEST MUL OR SWAP1 SSTORE POP CALLVALUE DUP1 ISZERO PUSH2 0x33 JUMPI PUSH1 0x0 DUP1 REVERT JUMPDEST POP PUSH1 0x40 MLOAD PUSH2 0x6C3 CODESIZE SUB DUP1 PUSH2 0x6C3 DUP4 CODECOPY DUP2 DUP2 ADD PUSH1 0x40 MSTORE PUSH1 0x20 DUP2 LT ISZERO PUSH2 0x56 JUMPI PUSH1 0x0 DUP1 REVERT JUMPDEST DUP2 ADD SWAP1 DUP1 DUP1 MLOAD SWAP1 PUSH1 0x20 ADD SWAP1 SWAP3 SWAP2 SWAP1 POP POP POP CALLER PUSH1 0x0 PUSH1 0x1 PUSH2 0x100 EXP DUP2 SLOAD DUP2 PUSH20 0xFFFFFFFFFFFFFFFFFFFFFFFFFFFFFFFFFFFFFFFF MUL NOT AND SWAP1 DUP4 PUSH20 0xFFFFFFFFFFFFFFFFFFFFFFFFFFFFFFFFFFFFFFFF AND MUL OR SWAP1 SSTORE POP PUSH1 0x2 PUSH1 0x1 PUSH1 0x0 DUP1 PUSH1 0x1 SWAP1 SLOAD SWAP1 PUSH2 0x100 EXP SWAP1 DIV PUSH20 0xFFFFFFFFFFFFFFFFFFFFFFFFFFFFFFFFFFFFFFFF AND PUSH20 0xFFFFFFFFFFFFFFFFFFFFFFFFFFFFFFFFFFFFFFFF AND PUSH20 0xFFFFFFFFFFFFFFFFFFFFFFFFFFFFFFFFFFFFFFFF AND DUP2 MSTORE PUSH1 0x20 ADD SWAP1 DUP2 MSTORE PUSH1 0x20 ADD PUSH1 0x0 KECCAK256 PUSH1 0x0 ADD DUP2 SWAP1 SSTORE POP DUP1 PUSH1 0xFF AND PUSH1 0x2 DUP2 PUSH2 0x122 SWAP2 SWAP1 PUSH2 0x153 JUMP JUMPDEST POP PUSH1 0x1 PUSH1 0x0 DUP1 PUSH2 0x100 EXP DUP2 SLOAD DUP2 PUSH1 0xFF MUL NOT AND SWAP1 DUP4 PUSH1 0x3 DUP2 GT ISZERO PUSH2 0x141 JUMPI INVALID JUMPDEST MUL OR SWAP1 SSTORE POP TIMESTAMP PUSH1 0x3 DUP2 SWAP1 SSTORE POP POP PUSH2 0x1A6 JUMP JUMPDEST DUP2 SLOAD DUP2 DUP4 SSTORE DUP2 DUP2 GT ISZERO PUSH2 0x17A JUMPI DUP2 DUP4 PUSH1 0x0 MSTORE PUSH1 0x20 PUSH1 0x0 KECCAK256 SWAP2 DUP3 ADD SWAP2 ADD PUSH2 0x179 SWAP2 SWAP1 PUSH2 0x17F JUMP JUMPDEST JUMPDEST POP POP POP JUMP JUMPDEST PUSH2 0x1A3 SWAP2 SWAP1 JUMPDEST DUP1 DUP3 GT ISZERO PUSH2 0x19F JUMPI PUSH1 0x0 DUP1 DUP3 ADD PUSH1 0x0 SWAP1 SSTORE POP PUSH1 0x1 ADD PUSH2 0x185 JUMP JUMPDEST POP SWAP1 JUMP JUMPDEST SWAP1 JUMP JUMPDEST PUSH2 0x50E DUP1 PUSH2 0x1B5 PUSH1 0x0 CODECOPY PUSH1 0x0 RETURN INVALID PUSH1 0x80 PUSH1 0x40 MSTORE CALLVALUE DUP1 ISZERO PUSH2 0x10 JUMPI PUSH1 0x0 DUP1 REVERT JUMPDEST POP PUSH1 0x4 CALLDATASIZE LT PUSH2 0x4C JUMPI PUSH1 0x0 CALLDATALOAD PUSH1 0xE0 SHR DUP1 PUSH4 0x4420E486 EQ PUSH2 0x51 JUMPI DUP1 PUSH4 0x609FF1BD EQ PUSH2 0x95 JUMPI DUP1 PUSH4 0xB3F98ADC EQ PUSH2 0xB9 JUMPI DUP1 PUSH4 0xC040E6B8 EQ PUSH2 0xEA JUMPI JUMPDEST PUSH1 0x0 DUP1 REVERT JUMPDEST PUSH2 0x93 PUSH1 0x4 DUP1 CALLDATASIZE SUB PUSH1 0x20 DUP2 LT ISZERO PUSH2 0x67 JUMPI PUSH1 0x0 DUP1 REVERT JUMPDEST DUP2 ADD SWAP1 DUP1 DUP1 CALLDATALOAD PUSH20 0xFFFFFFFFFFFFFFFFFFFFFFFFFFFFFFFFFFFFFFFF AND SWAP1 PUSH1 0x20 ADD SWAP1 SWAP3 SWAP2 SWAP1 POP POP POP PUSH2 0x116 JUMP JUMPDEST STOP JUMPDEST PUSH2 0x9D PUSH2 0x2D8 JUMP JUMPDEST PUSH1 0x40 MLOAD DUP1 DUP3 PUSH1 0xFF AND PUSH1 0xFF AND DUP2 MSTORE PUSH1 0x20 ADD SWAP2 POP POP PUSH1 0x40 MLOAD DUP1 SWAP2 SUB SWAP1 RETURN JUMPDEST PUSH2 0xE8 PUSH1 0x4 DUP1 CALLDATASIZE SUB PUSH1 0x20 DUP2 LT ISZERO PUSH2 0xCF JUMPI PUSH1 0x0 DUP1 REVERT JUMPDEST DUP2 ADD SWAP1 DUP1 DUP1 CALLDATALOAD PUSH1 0xFF AND SWAP1 PUSH1 0x20 ADD SWAP1 SWAP3 SWAP2 SWAP1 POP POP POP PUSH2 0x384 JUMP JUMPDEST STOP JUMPDEST PUSH2 0xF2 PUSH2 0x4C7 JUMP JUMPDEST PUSH1 0x40 MLOAD DUP1 DUP3 PUSH1 0x3 DUP2 GT ISZERO PUSH2 0x102 JUMPI INVALID JUMPDEST PUSH1 0xFF AND DUP2 MSTORE PUSH1 0x20 ADD SWAP2 POP POP PUSH1 0x40 MLOAD DUP1 SWAP2 SUB SWAP1 RETURN JUMPDEST PUSH1 0x1 PUSH1 0x3 DUP2 GT ISZERO PUSH2 0x123 JUMPI INVALID JUMPDEST PUSH1 0x0 DUP1 SWAP1 SLOAD SWAP1 PUSH2 0x100 EXP SWAP1 DIV PUSH1 0xFF AND PUSH1 0x3 DUP2 GT ISZERO PUSH2 0x13D JUMPI INVALID JUMPDEST EQ PUSH2 0x147 JUMPI PUSH2 0x2D5 JUMP JUMPDEST PUSH1 0x0 PUSH1 0x1 SWAP1 SLOAD SWAP1 PUSH2 0x100 EXP SWAP1 DIV PUSH20 0xFFFFFFFFFFFFFFFFFFFFFFFFFFFFFFFFFFFFFFFF AND PUSH20 0xFFFFFFFFFFFFFFFFFFFFFFFFFFFFFFFFFFFFFFFF AND CALLER PUSH20 0xFFFFFFFFFFFFFFFFFFFFFFFFFFFFFFFFFFFFFFFF AND EQ ISZERO DUP1 PUSH2 0x1F0 JUMPI POP PUSH1 0x1 PUSH1 0x0 DUP3 PUSH20 0xFFFFFFFFFFFFFFFFFFFFFFFFFFFFFFFFFFFFFFFF AND PUSH20 0xFFFFFFFFFFFFFFFFFFFFFFFFFFFFFFFFFFFFFFFF AND DUP2 MSTORE PUSH1 0x20 ADD SWAP1 DUP2 MSTORE PUSH1 0x20 ADD PUSH1 0x0 KECCAK256 PUSH1 0x1 ADD PUSH1 0x0 SWAP1 SLOAD SWAP1 PUSH2 0x100 EXP SWAP1 DIV PUSH1 0xFF AND JUMPDEST ISZERO PUSH2 0x1FA JUMPI PUSH2 0x2D5 JUMP JUMPDEST PUSH1 0x1 DUP1 PUSH1 0x0 DUP4 PUSH20 0xFFFFFFFFFFFFFFFFFFFFFFFFFFFFFFFFFFFFFFFF AND PUSH20 0xFFFFFFFFFFFFFFFFFFFFFFFFFFFFFFFFFFFFFFFF AND DUP2 MSTORE PUSH1 0x20 ADD SWAP1 DUP2 MSTORE PUSH1 0x20 ADD PUSH1 0x0 KECCAK256 PUSH1 0x0 ADD DUP2 SWAP1 SSTORE POP PUSH1 0x0 PUSH1 0x1 PUSH1 0x0 DUP4 PUSH20 0xFFFFFFFFFFFFFFFFFFFFFFFFFFFFFFFFFFFFFFFF AND PUSH20 0xFFFFFFFFFFFFFFFFFFFFFFFFFFFFFFFFFFFFFFFF AND DUP2 MSTORE PUSH1 0x20 ADD SWAP1 DUP2 MSTORE PUSH1 0x20 ADD PUSH1 0x0 KECCAK256 PUSH1 0x1 ADD PUSH1 0x0 PUSH2 0x100 EXP DUP2 SLOAD DUP2 PUSH1 0xFF MUL NOT AND SWAP1 DUP4 ISZERO ISZERO MUL OR SWAP1 SSTORE POP PUSH1 0xA PUSH1 0x3 SLOAD ADD TIMESTAMP GT ISZERO PUSH2 0x2D4 JUMPI PUSH1 0x2 PUSH1 0x0 DUP1 PUSH2 0x100 EXP DUP2 SLOAD DUP2 PUSH1 0xFF MUL NOT AND SWAP1 DUP4 PUSH1 0x3 DUP2 GT ISZERO PUSH2 0x2C7 JUMPI INVALID JUMPDEST MUL OR SWAP1 SSTORE POP TIMESTAMP PUSH1 0x3 DUP2 SWAP1 SSTORE POP JUMPDEST JUMPDEST POP JUMP JUMPDEST PUSH1 0x0 PUSH1 0x3 DUP1 DUP2 GT ISZERO PUSH2 0x2E6 JUMPI INVALID JUMPDEST PUSH1 0x0 DUP1 SWAP1 SLOAD SWAP1 PUSH2 0x100 EXP SWAP1 DIV PUSH1 0xFF AND PUSH1 0x3 DUP2 GT ISZERO PUSH2 0x300 JUMPI INVALID JUMPDEST EQ PUSH2 0x30D JUMPI DUP1 SWAP1 POP PUSH2 0x381 JUMP JUMPDEST PUSH1 0x0 DUP1 SWAP1 POP PUSH1 0x0 DUP1 SWAP1 POP JUMPDEST PUSH1 0x2 DUP1 SLOAD SWAP1 POP DUP2 PUSH1 0xFF AND LT ISZERO PUSH2 0x37E JUMPI DUP2 PUSH1 0x2 DUP3 PUSH1 0xFF AND DUP2 SLOAD DUP2 LT PUSH2 0x339 JUMPI INVALID JUMPDEST SWAP1 PUSH1 0x0 MSTORE PUSH1 0x20 PUSH1 0x0 KECCAK256 ADD PUSH1 0x0 ADD SLOAD GT ISZERO PUSH2 0x371 JUMPI PUSH1 0x2 DUP2 PUSH1 0xFF AND DUP2 SLOAD DUP2 LT PUSH2 0x35D JUMPI INVALID JUMPDEST SWAP1 PUSH1 0x0 MSTORE PUSH1 0x20 PUSH1 0x0 KECCAK256 ADD PUSH1 0x0 ADD SLOAD SWAP2 POP DUP1 SWAP3 POP JUMPDEST DUP1 DUP1 PUSH1 0x1 ADD SWAP2 POP POP PUSH2 0x318 JUMP JUMPDEST POP POP JUMPDEST SWAP1 JUMP JUMPDEST PUSH1 0x2 PUSH1 0x3 DUP2 GT ISZERO PUSH2 0x391 JUMPI INVALID JUMPDEST PUSH1 0x0 DUP1 SWAP1 SLOAD SWAP1 PUSH2 0x100 EXP SWAP1 DIV PUSH1 0xFF AND PUSH1 0x3 DUP2 GT ISZERO PUSH2 0x3AB JUMPI INVALID JUMPDEST EQ PUSH2 0x3B5 JUMPI PUSH2 0x4C4 JUMP JUMPDEST PUSH1 0x0 PUSH1 0x1 PUSH1 0x0 CALLER PUSH20 0xFFFFFFFFFFFFFFFFFFFFFFFFFFFFFFFFFFFFFFFF AND PUSH20 0xFFFFFFFFFFFFFFFFFFFFFFFFFFFFFFFFFFFFFFFF AND DUP2 MSTORE PUSH1 0x20 ADD SWAP1 DUP2 MSTORE PUSH1 0x20 ADD PUSH1 0x0 KECCAK256 SWAP1 POP DUP1 PUSH1 0x1 ADD PUSH1 0x0 SWAP1 SLOAD SWAP1 PUSH2 0x100 EXP SWAP1 DIV PUSH1 0xFF AND DUP1 PUSH2 0x41D JUMPI POP PUSH1 0x2 DUP1 SLOAD SWAP1 POP DUP3 PUSH1 0xFF AND LT ISZERO JUMPDEST ISZERO PUSH2 0x428 JUMPI POP PUSH2 0x4C4 JUMP JUMPDEST PUSH1 0x1 DUP2 PUSH1 0x1 ADD PUSH1 0x0 PUSH2 0x100 EXP DUP2 SLOAD DUP2 PUSH1 0xFF MUL NOT AND SWAP1 DUP4 ISZERO ISZERO MUL OR SWAP1 SSTORE POP DUP2 DUP2 PUSH1 0x1 ADD PUSH1 0x1 PUSH2 0x100 EXP DUP2 SLOAD DUP2 PUSH1 0xFF MUL NOT AND SWAP1 DUP4 PUSH1 0xFF AND MUL OR SWAP1 SSTORE POP DUP1 PUSH1 0x0 ADD SLOAD PUSH1 0x2 DUP4 PUSH1 0xFF AND DUP2 SLOAD DUP2 LT PUSH2 0x477 JUMPI INVALID JUMPDEST SWAP1 PUSH1 0x0 MSTORE PUSH1 0x20 PUSH1 0x0 KECCAK256 ADD PUSH1 0x0 ADD PUSH1 0x0 DUP3 DUP3 SLOAD ADD SWAP3 POP POP DUP2 SWAP1 SSTORE POP PUSH1 0xA PUSH1 0x3 SLOAD ADD TIMESTAMP GT ISZERO PUSH2 0x4C2 JUMPI PUSH1 0x3 PUSH1 0x0 DUP1 PUSH2 0x100 EXP DUP2 SLOAD DUP2 PUSH1 0xFF MUL NOT AND SWAP1 DUP4 PUSH1 0x3 DUP2 GT ISZERO PUSH2 0x4BC JUMPI INVALID JUMPDEST MUL OR SWAP1 SSTORE POP JUMPDEST POP JUMPDEST POP JUMP JUMPDEST PUSH1 0x0 DUP1 SWAP1 SLOAD SWAP1 PUSH2 0x100 EXP SWAP1 DIV PUSH1 0xFF AND DUP2 JUMP INVALID LOG2 PUSH6 0x627A7A723058 KECCAK256 0xb8 0xbb SSTORE PUSH18 0x3E81EF7AB03BA58A692AE53FB52DDE5DFA22 STATICCALL 0xda CALLCODE 0xd CALLCODE PUSH8 0x7B297AE964736F6C PUSH4 0x43000509 STOP ORIGIN "
				},
				"gasEstimates": {
					"creation": {
						"codeDepositCost": "258800",
						"executionCost": "infinite",
						"totalCost": "infinite"
					},
					"external": {
						"register(address)": "82208",
						"stage()": "517",
						"vote(uint8)": "83022",
						"winningProposal()": "infinite"
					}
				},
				"methodIdentifiers": {
					"register(address)": "4420e486",
					"stage()": "c040e6b8",
					"vote(uint8)": "b3f98adc",
					"winningProposal()": "609ff1bd"
				}
			},
			"userdoc": {
				"methods": {
					"constructor": "Create a new ballot with $(_numProposals) different proposals.",
					"register(address)": {
						"notice": "Give $(toVoter) the right to vote on this ballot. May only be called by $(chairperson)."
					},
					"vote(uint8)": {
						"notice": "Give a single vote to proposal $(toProposal)."
					}
				}
			}
		}
	}
}