{
	"BallotBasic.sol": {
		"Ballot": {
			"abi": [
				{
					"constant": false,
					"inputs": [
						{
							"name": "toVoter",
							"type": "address"
						}
					],
					"name": "register",
					"outputs": [],
					"payable": false,
					"stateMutability": "nonpayable",
					"type": "function"
				},
				{
					"constant": true,
					"inputs": [],
					"name": "winningProposal",
					"outputs": [
						{
							"name": "_winningProposal",
							"type": "uint8"
						}
					],
					"payable": false,
					"stateMutability": "view",
					"type": "function"
				},
				{
					"constant": false,
					"inputs": [
						{
							"name": "toProposal",
							"type": "uint8"
						}
					],
					"name": "vote",
					"outputs": [],
					"payable": false,
					"stateMutability": "nonpayable",
					"type": "function"
				},
				{
					"inputs": [
						{
							"name": "_numProposals",
							"type": "uint8"
						}
					],
					"payable": false,
					"stateMutability": "nonpayable",
					"type": "constructor"
				}
			],
			"devdoc": {
				"methods": {}
			},
			"evm": {
				"assembly": "    /* \"BallotBasic.sol\":24:1603  contract Ballot {... */\n  mstore(0x40, 0x80)\n    /* \"BallotBasic.sol\":419:583  constructor(uint8 _numProposals) public {... */\n  callvalue\n    /* \"--CODEGEN--\":8:17   */\n  dup1\n    /* \"--CODEGEN--\":5:7   */\n  iszero\n  tag_1\n  jumpi\n    /* \"--CODEGEN--\":30:31   */\n  0x00\n    /* \"--CODEGEN--\":27:28   */\n  dup1\n    /* \"--CODEGEN--\":20:32   */\n  revert\n    /* \"--CODEGEN--\":5:7   */\ntag_1:\n    /* \"BallotBasic.sol\":419:583  constructor(uint8 _numProposals) public {... */\n  pop\n  mload(0x40)\n  sub(codesize, bytecodeSize)\n  dup1\n  bytecodeSize\n  dup4\n  codecopy\n  dup2\n  dup2\n  add\n  0x40\n  mstore\n    /* \"--CODEGEN--\":13:15   */\n  0x20\n    /* \"--CODEGEN--\":8:11   */\n  dup2\n    /* \"--CODEGEN--\":5:16   */\n  lt\n    /* \"--CODEGEN--\":2:4   */\n  iszero\n  tag_2\n  jumpi\n    /* \"--CODEGEN--\":29:30   */\n  0x00\n    /* \"--CODEGEN--\":26:27   */\n  dup1\n    /* \"--CODEGEN--\":19:31   */\n  revert\n    /* \"--CODEGEN--\":2:4   */\ntag_2:\n    /* \"BallotBasic.sol\":419:583  constructor(uint8 _numProposals) public {... */\n  dup2\n  add\n  swap1\n  dup1\n  dup1\n  mload\n  swap1\n  0x20\n  add\n  swap1\n  swap3\n  swap2\n  swap1\n  pop\n  pop\n  pop\n    /* \"BallotBasic.sol\":483:493  msg.sender */\n  caller\n    /* \"BallotBasic.sol\":469:480  chairperson */\n  0x00\n  dup1\n    /* \"BallotBasic.sol\":469:493  chairperson = msg.sender */\n  0x0100\n  exp\n  dup2\n  sload\n  dup2\n  0xffffffffffffffffffffffffffffffffffffffff\n  mul\n  not\n  and\n  swap1\n  dup4\n  0xffffffffffffffffffffffffffffffffffffffff\n  and\n  mul\n  or\n  swap1\n  sstore\n  pop\n    /* \"BallotBasic.sol\":532:533  2 */\n  0x02\n    /* \"BallotBasic.sol\":503:509  voters */\n  0x01\n    /* \"BallotBasic.sol\":503:522  voters[chairperson] */\n  0x00\n    /* \"BallotBasic.sol\":510:521  chairperson */\n  dup1\n  0x00\n  swap1\n  sload\n  swap1\n  0x0100\n  exp\n  swap1\n  div\n  0xffffffffffffffffffffffffffffffffffffffff\n  and\n    /* \"BallotBasic.sol\":503:522  voters[chairperson] */\n  0xffffffffffffffffffffffffffffffffffffffff\n  and\n  0xffffffffffffffffffffffffffffffffffffffff\n  and\n  dup2\n  mstore\n  0x20\n  add\n  swap1\n  dup2\n  mstore\n  0x20\n  add\n  0x00\n  keccak256\n    /* \"BallotBasic.sol\":503:529  voters[chairperson].weight */\n  0x00\n  add\n    /* \"BallotBasic.sol\":503:533  voters[chairperson].weight = 2 */\n  dup2\n  swap1\n  sstore\n  pop\n    /* \"BallotBasic.sol\":562:575  _numProposals */\n  dup1\n    /* \"BallotBasic.sol\":543:575  proposals.length = _numProposals */\n  0xff\n  and\n    /* \"BallotBasic.sol\":543:552  proposals */\n  0x02\n    /* \"BallotBasic.sol\":543:575  proposals.length = _numProposals */\n  dup2\n  tag_5\n  swap2\n  swap1\n  tag_6\n  jump\t// in\ntag_5:\n  pop\n    /* \"BallotBasic.sol\":419:583  constructor(uint8 _numProposals) public {... */\n  pop\n    /* \"BallotBasic.sol\":24:1603  contract Ballot {... */\n  jump(tag_7)\ntag_6:\n  dup2\n  sload\n  dup2\n  dup4\n  sstore\n  dup2\n  dup2\n  gt\n  iszero\n  tag_8\n  jumpi\n  dup2\n  dup4\n  0x00\n  mstore\n  keccak256(0x00, 0x20)\n  swap2\n  dup3\n  add\n  swap2\n  add\n  tag_9\n  swap2\n  swap1\n  tag_10\n  jump\t// in\ntag_9:\ntag_8:\n  pop\n  pop\n  pop\n  jump\t// out\ntag_10:\n  tag_11\n  swap2\n  swap1\ntag_12:\n  dup1\n  dup3\n  gt\n  iszero\n  tag_13\n  jumpi\n  0x00\n  dup1\n  dup3\n  add\n  0x00\n  swap1\n  sstore\n  pop\n  0x01\n  add\n  jump(tag_12)\ntag_13:\n  pop\n  swap1\n  jump\ntag_11:\n  swap1\n  jump\t// out\ntag_7:\n  dataSize(sub_0)\n  dup1\n  dataOffset(sub_0)\n  0x00\n  codecopy\n  0x00\n  return\nstop\n\nsub_0: assembly {\n        /* \"BallotBasic.sol\":24:1603  contract Ballot {... */\n      mstore(0x40, 0x80)\n      callvalue\n        /* \"--CODEGEN--\":8:17   */\n      dup1\n        /* \"--CODEGEN--\":5:7   */\n      iszero\n      tag_1\n      jumpi\n        /* \"--CODEGEN--\":30:31   */\n      0x00\n        /* \"--CODEGEN--\":27:28   */\n      dup1\n        /* \"--CODEGEN--\":20:32   */\n      revert\n        /* \"--CODEGEN--\":5:7   */\n    tag_1:\n        /* \"BallotBasic.sol\":24:1603  contract Ballot {... */\n      pop\n      jumpi(tag_2, lt(calldatasize, 0x04))\n      shr(0xe0, calldataload(0x00))\n      dup1\n      0x4420e486\n      eq\n      tag_3\n      jumpi\n      dup1\n      0x609ff1bd\n      eq\n      tag_4\n      jumpi\n      dup1\n      0xb3f98adc\n      eq\n      tag_5\n      jumpi\n    tag_2:\n      0x00\n      dup1\n      revert\n        /* \"BallotBasic.sol\":693:889  function register(address toVoter) public {... */\n    tag_3:\n      tag_6\n      0x04\n      dup1\n      calldatasize\n      sub\n        /* \"--CODEGEN--\":13:15   */\n      0x20\n        /* \"--CODEGEN--\":8:11   */\n      dup2\n        /* \"--CODEGEN--\":5:16   */\n      lt\n        /* \"--CODEGEN--\":2:4   */\n      iszero\n      tag_7\n      jumpi\n        /* \"--CODEGEN--\":29:30   */\n      0x00\n        /* \"--CODEGEN--\":26:27   */\n      dup1\n        /* \"--CODEGEN--\":19:31   */\n      revert\n        /* \"--CODEGEN--\":2:4   */\n    tag_7:\n        /* \"BallotBasic.sol\":693:889  function register(address toVoter) public {... */\n      dup2\n      add\n      swap1\n      dup1\n      dup1\n      calldataload\n      0xffffffffffffffffffffffffffffffffffffffff\n      and\n      swap1\n      0x20\n      add\n      swap1\n      swap3\n      swap2\n      swap1\n      pop\n      pop\n      pop\n      tag_8\n      jump\t// in\n    tag_6:\n      stop\n        /* \"BallotBasic.sol\":1241:1601  function winningProposal() public view returns (uint8 _winningProposal) {... */\n    tag_4:\n      tag_9\n      tag_10\n      jump\t// in\n    tag_9:\n      mload(0x40)\n      dup1\n      dup3\n      0xff\n      and\n      0xff\n      and\n      dup2\n      mstore\n      0x20\n      add\n      swap2\n      pop\n      pop\n      mload(0x40)\n      dup1\n      swap2\n      sub\n      swap1\n      return\n        /* \"BallotBasic.sol\":949:1235  function vote(uint8 toProposal) public {... */\n    tag_5:\n      tag_11\n      0x04\n      dup1\n      calldatasize\n      sub\n        /* \"--CODEGEN--\":13:15   */\n      0x20\n        /* \"--CODEGEN--\":8:11   */\n      dup2\n        /* \"--CODEGEN--\":5:16   */\n      lt\n        /* \"--CODEGEN--\":2:4   */\n      iszero\n      tag_12\n      jumpi\n        /* \"--CODEGEN--\":29:30   */\n      0x00\n        /* \"--CODEGEN--\":26:27   */\n      dup1\n        /* \"--CODEGEN--\":19:31   */\n      revert\n        /* \"--CODEGEN--\":2:4   */\n    tag_12:\n        /* \"BallotBasic.sol\":949:1235  function vote(uint8 toProposal) public {... */\n      dup2\n      add\n      swap1\n      dup1\n      dup1\n      calldataload\n      0xff\n      and\n      swap1\n      0x20\n      add\n      swap1\n      swap3\n      swap2\n      swap1\n      pop\n      pop\n      pop\n      tag_13\n      jump\t// in\n    tag_11:\n      stop\n        /* \"BallotBasic.sol\":693:889  function register(address toVoter) public {... */\n    tag_8:\n        /* \"BallotBasic.sol\":763:774  chairperson */\n      0x00\n      dup1\n      swap1\n      sload\n      swap1\n      0x0100\n      exp\n      swap1\n      div\n      0xffffffffffffffffffffffffffffffffffffffff\n      and\n        /* \"BallotBasic.sol\":749:774  msg.sender != chairperson */\n      0xffffffffffffffffffffffffffffffffffffffff\n      and\n        /* \"BallotBasic.sol\":749:759  msg.sender */\n      caller\n        /* \"BallotBasic.sol\":749:774  msg.sender != chairperson */\n      0xffffffffffffffffffffffffffffffffffffffff\n      and\n      eq\n      iszero\n        /* \"BallotBasic.sol\":749:799  msg.sender != chairperson || voters[toVoter].voted */\n      dup1\n      tag_15\n      jumpi\n      pop\n        /* \"BallotBasic.sol\":778:784  voters */\n      0x01\n        /* \"BallotBasic.sol\":778:793  voters[toVoter] */\n      0x00\n        /* \"BallotBasic.sol\":785:792  toVoter */\n      dup3\n        /* \"BallotBasic.sol\":778:793  voters[toVoter] */\n      0xffffffffffffffffffffffffffffffffffffffff\n      and\n      0xffffffffffffffffffffffffffffffffffffffff\n      and\n      dup2\n      mstore\n      0x20\n      add\n      swap1\n      dup2\n      mstore\n      0x20\n      add\n      0x00\n      keccak256\n        /* \"BallotBasic.sol\":778:799  voters[toVoter].voted */\n      0x01\n      add\n      0x00\n      swap1\n      sload\n      swap1\n      0x0100\n      exp\n      swap1\n      div\n      0xff\n      and\n        /* \"BallotBasic.sol\":749:799  msg.sender != chairperson || voters[toVoter].voted */\n    tag_15:\n        /* \"BallotBasic.sol\":745:808  if (msg.sender != chairperson || voters[toVoter].voted) return; */\n      iszero\n      tag_16\n      jumpi\n        /* \"BallotBasic.sol\":801:808  return; */\n      jump(tag_14)\n        /* \"BallotBasic.sol\":745:808  if (msg.sender != chairperson || voters[toVoter].voted) return; */\n    tag_16:\n        /* \"BallotBasic.sol\":842:843  1 */\n      0x01\n        /* \"BallotBasic.sol\":817:823  voters */\n      dup1\n        /* \"BallotBasic.sol\":817:832  voters[toVoter] */\n      0x00\n        /* \"BallotBasic.sol\":824:831  toVoter */\n      dup4\n        /* \"BallotBasic.sol\":817:832  voters[toVoter] */\n      0xffffffffffffffffffffffffffffffffffffffff\n      and\n      0xffffffffffffffffffffffffffffffffffffffff\n      and\n      dup2\n      mstore\n      0x20\n      add\n      swap1\n      dup2\n      mstore\n      0x20\n      add\n      0x00\n      keccak256\n        /* \"BallotBasic.sol\":817:839  voters[toVoter].weight */\n      0x00\n      add\n        /* \"BallotBasic.sol\":817:843  voters[toVoter].weight = 1 */\n      dup2\n      swap1\n      sstore\n      pop\n        /* \"BallotBasic.sol\":877:882  false */\n      0x00\n        /* \"BallotBasic.sol\":853:859  voters */\n      0x01\n        /* \"BallotBasic.sol\":853:868  voters[toVoter] */\n      0x00\n        /* \"BallotBasic.sol\":860:867  toVoter */\n      dup4\n        /* \"BallotBasic.sol\":853:868  voters[toVoter] */\n      0xffffffffffffffffffffffffffffffffffffffff\n      and\n      0xffffffffffffffffffffffffffffffffffffffff\n      and\n      dup2\n      mstore\n      0x20\n      add\n      swap1\n      dup2\n      mstore\n      0x20\n      add\n      0x00\n      keccak256\n        /* \"BallotBasic.sol\":853:874  voters[toVoter].voted */\n      0x01\n      add\n      0x00\n        /* \"BallotBasic.sol\":853:882  voters[toVoter].voted = false */\n      0x0100\n      exp\n      dup2\n      sload\n      dup2\n      0xff\n      mul\n      not\n      and\n      swap1\n      dup4\n      iszero\n      iszero\n      mul\n      or\n      swap1\n      sstore\n      pop\n        /* \"BallotBasic.sol\":693:889  function register(address toVoter) public {... */\n    tag_14:\n      pop\n      jump\t// out\n        /* \"BallotBasic.sol\":1241:1601  function winningProposal() public view returns (uint8 _winningProposal) {... */\n    tag_10:\n        /* \"BallotBasic.sol\":1289:1311  uint8 _winningProposal */\n      0x00\n        /* \"BallotBasic.sol\":1323:1347  uint256 winningVoteCount */\n      dup1\n        /* \"BallotBasic.sol\":1350:1351  0 */\n      0x00\n        /* \"BallotBasic.sol\":1323:1351  uint256 winningVoteCount = 0 */\n      swap1\n      pop\n        /* \"BallotBasic.sol\":1366:1376  uint8 prop */\n      0x00\n        /* \"BallotBasic.sol\":1379:1380  0 */\n      dup1\n        /* \"BallotBasic.sol\":1366:1380  uint8 prop = 0 */\n      swap1\n      pop\n        /* \"BallotBasic.sol\":1361:1595  for (uint8 prop = 0; prop < proposals.length; prop++)... */\n    tag_18:\n        /* \"BallotBasic.sol\":1389:1398  proposals */\n      0x02\n        /* \"BallotBasic.sol\":1389:1405  proposals.length */\n      dup1\n      sload\n      swap1\n      pop\n        /* \"BallotBasic.sol\":1382:1386  prop */\n      dup2\n        /* \"BallotBasic.sol\":1382:1405  prop < proposals.length */\n      0xff\n      and\n      lt\n        /* \"BallotBasic.sol\":1361:1595  for (uint8 prop = 0; prop < proposals.length; prop++)... */\n      iszero\n      tag_19\n      jumpi\n        /* \"BallotBasic.sol\":1459:1475  winningVoteCount */\n      dup2\n        /* \"BallotBasic.sol\":1431:1440  proposals */\n      0x02\n        /* \"BallotBasic.sol\":1441:1445  prop */\n      dup3\n        /* \"BallotBasic.sol\":1431:1446  proposals[prop] */\n      0xff\n      and\n      dup2\n      sload\n      dup2\n      lt\n      tag_21\n      jumpi\n      invalid\n    tag_21:\n      swap1\n      0x00\n      mstore\n      keccak256(0x00, 0x20)\n      add\n        /* \"BallotBasic.sol\":1431:1456  proposals[prop].voteCount */\n      0x00\n      add\n      sload\n        /* \"BallotBasic.sol\":1431:1475  proposals[prop].voteCount > winningVoteCount */\n      gt\n        /* \"BallotBasic.sol\":1427:1595  if (proposals[prop].voteCount > winningVoteCount) {... */\n      iszero\n      tag_23\n      jumpi\n        /* \"BallotBasic.sol\":1514:1523  proposals */\n      0x02\n        /* \"BallotBasic.sol\":1524:1528  prop */\n      dup2\n        /* \"BallotBasic.sol\":1514:1529  proposals[prop] */\n      0xff\n      and\n      dup2\n      sload\n      dup2\n      lt\n      tag_24\n      jumpi\n      invalid\n    tag_24:\n      swap1\n      0x00\n      mstore\n      keccak256(0x00, 0x20)\n      add\n        /* \"BallotBasic.sol\":1514:1539  proposals[prop].voteCount */\n      0x00\n      add\n      sload\n        /* \"BallotBasic.sol\":1495:1539  winningVoteCount = proposals[prop].voteCount */\n      swap2\n      pop\n        /* \"BallotBasic.sol\":1576:1580  prop */\n      dup1\n        /* \"BallotBasic.sol\":1557:1580  _winningProposal = prop */\n      swap3\n      pop\n        /* \"BallotBasic.sol\":1427:1595  if (proposals[prop].voteCount > winningVoteCount) {... */\n    tag_23:\n        /* \"BallotBasic.sol\":1407:1413  prop++ */\n      dup1\n      dup1\n      0x01\n      add\n      swap2\n      pop\n      pop\n        /* \"BallotBasic.sol\":1361:1595  for (uint8 prop = 0; prop < proposals.length; prop++)... */\n      jump(tag_18)\n    tag_19:\n      pop\n        /* \"BallotBasic.sol\":1241:1601  function winningProposal() public view returns (uint8 _winningProposal) {... */\n      pop\n      swap1\n      jump\t// out\n        /* \"BallotBasic.sol\":949:1235  function vote(uint8 toProposal) public {... */\n    tag_13:\n        /* \"BallotBasic.sol\":998:1018  Voter storage sender */\n      0x00\n        /* \"BallotBasic.sol\":1021:1027  voters */\n      0x01\n        /* \"BallotBasic.sol\":1021:1039  voters[msg.sender] */\n      0x00\n        /* \"BallotBasic.sol\":1028:1038  msg.sender */\n      caller\n        /* \"BallotBasic.sol\":1021:1039  voters[msg.sender] */\n      0xffffffffffffffffffffffffffffffffffffffff\n      and\n      0xffffffffffffffffffffffffffffffffffffffff\n      and\n      dup2\n      mstore\n      0x20\n      add\n      swap1\n      dup2\n      mstore\n      0x20\n      add\n      0x00\n      keccak256\n        /* \"BallotBasic.sol\":998:1039  Voter storage sender = voters[msg.sender] */\n      swap1\n      pop\n        /* \"BallotBasic.sol\":1053:1059  sender */\n      dup1\n        /* \"BallotBasic.sol\":1053:1065  sender.voted */\n      0x01\n      add\n      0x00\n      swap1\n      sload\n      swap1\n      0x0100\n      exp\n      swap1\n      div\n      0xff\n      and\n        /* \"BallotBasic.sol\":1053:1099  sender.voted || toProposal >= proposals.length */\n      dup1\n      tag_27\n      jumpi\n      pop\n        /* \"BallotBasic.sol\":1083:1092  proposals */\n      0x02\n        /* \"BallotBasic.sol\":1083:1099  proposals.length */\n      dup1\n      sload\n      swap1\n      pop\n        /* \"BallotBasic.sol\":1069:1079  toProposal */\n      dup3\n        /* \"BallotBasic.sol\":1069:1099  toProposal >= proposals.length */\n      0xff\n      and\n      lt\n      iszero\n        /* \"BallotBasic.sol\":1053:1099  sender.voted || toProposal >= proposals.length */\n    tag_27:\n        /* \"BallotBasic.sol\":1049:1108  if (sender.voted || toProposal >= proposals.length) return; */\n      iszero\n      tag_28\n      jumpi\n        /* \"BallotBasic.sol\":1101:1108  return; */\n      pop\n      jump(tag_26)\n        /* \"BallotBasic.sol\":1049:1108  if (sender.voted || toProposal >= proposals.length) return; */\n    tag_28:\n        /* \"BallotBasic.sol\":1132:1136  true */\n      0x01\n        /* \"BallotBasic.sol\":1117:1123  sender */\n      dup2\n        /* \"BallotBasic.sol\":1117:1129  sender.voted */\n      0x01\n      add\n      0x00\n        /* \"BallotBasic.sol\":1117:1136  sender.voted = true */\n      0x0100\n      exp\n      dup2\n      sload\n      dup2\n      0xff\n      mul\n      not\n      and\n      swap1\n      dup4\n      iszero\n      iszero\n      mul\n      or\n      swap1\n      sstore\n      pop\n        /* \"BallotBasic.sol\":1160:1170  toProposal */\n      dup2\n        /* \"BallotBasic.sol\":1146:1152  sender */\n      dup2\n        /* \"BallotBasic.sol\":1146:1157  sender.vote */\n      0x01\n      add\n      0x01\n        /* \"BallotBasic.sol\":1146:1170  sender.vote = toProposal */\n      0x0100\n      exp\n      dup2\n      sload\n      dup2\n      0xff\n      mul\n      not\n      and\n      swap1\n      dup4\n      0xff\n      and\n      mul\n      or\n      swap1\n      sstore\n      pop\n        /* \"BallotBasic.sol\":1215:1221  sender */\n      dup1\n        /* \"BallotBasic.sol\":1215:1228  sender.weight */\n      0x00\n      add\n      sload\n        /* \"BallotBasic.sol\":1180:1189  proposals */\n      0x02\n        /* \"BallotBasic.sol\":1190:1200  toProposal */\n      dup4\n        /* \"BallotBasic.sol\":1180:1201  proposals[toProposal] */\n      0xff\n      and\n      dup2\n      sload\n      dup2\n      lt\n      tag_29\n      jumpi\n      invalid\n    tag_29:\n      swap1\n      0x00\n      mstore\n      keccak256(0x00, 0x20)\n      add\n        /* \"BallotBasic.sol\":1180:1211  proposals[toProposal].voteCount */\n      0x00\n      add\n      0x00\n        /* \"BallotBasic.sol\":1180:1228  proposals[toProposal].voteCount += sender.weight */\n      dup3\n      dup3\n      sload\n      add\n      swap3\n      pop\n      pop\n      dup2\n      swap1\n      sstore\n      pop\n        /* \"BallotBasic.sol\":949:1235  function vote(uint8 toProposal) public {... */\n      pop\n    tag_26:\n      pop\n      jump\t// out\n\n    auxdata: 0xa265627a7a72305820b51752926c2b342518e18d06aaa7ff782ca1e357f78f6c1c9e3d5898894c3df664736f6c63430005090032\n}\n",
				"bytecode": {
					"linkReferences": {},
					"object": "608060405234801561001057600080fd5b5060405161052c38038061052c8339818101604052602081101561003357600080fd5b8101908080519060200190929190505050336000806101000a81548173ffffffffffffffffffffffffffffffffffffffff021916908373ffffffffffffffffffffffffffffffffffffffff1602179055506002600160008060009054906101000a900473ffffffffffffffffffffffffffffffffffffffff1673ffffffffffffffffffffffffffffffffffffffff1673ffffffffffffffffffffffffffffffffffffffff168152602001908152602001600020600001819055508060ff166002816100fe9190610105565b5050610158565b81548183558181111561012c5781836000526020600020918201910161012b9190610131565b5b505050565b61015591905b808211156101515760008082016000905550600101610137565b5090565b90565b6103c5806101676000396000f3fe608060405234801561001057600080fd5b50600436106100415760003560e01c80634420e48614610046578063609ff1bd1461008a578063b3f98adc146100ae575b600080fd5b6100886004803603602081101561005c57600080fd5b81019080803573ffffffffffffffffffffffffffffffffffffffff1690602001909291905050506100df565b005b610092610237565b604051808260ff1660ff16815260200191505060405180910390f35b6100dd600480360360208110156100c457600080fd5b81019080803560ff1690602001909291905050506102af565b005b6000809054906101000a900473ffffffffffffffffffffffffffffffffffffffff1673ffffffffffffffffffffffffffffffffffffffff163373ffffffffffffffffffffffffffffffffffffffff161415806101875750600160008273ffffffffffffffffffffffffffffffffffffffff1673ffffffffffffffffffffffffffffffffffffffff16815260200190815260200160002060010160009054906101000a900460ff165b1561019157610234565b60018060008373ffffffffffffffffffffffffffffffffffffffff1673ffffffffffffffffffffffffffffffffffffffff168152602001908152602001600020600001819055506000600160008373ffffffffffffffffffffffffffffffffffffffff1673ffffffffffffffffffffffffffffffffffffffff16815260200190815260200160002060010160006101000a81548160ff0219169083151502179055505b50565b6000806000905060008090505b6002805490508160ff1610156102aa578160028260ff168154811061026557fe5b9060005260206000200160000154111561029d5760028160ff168154811061028957fe5b906000526020600020016000015491508092505b8080600101915050610244565b505090565b6000600160003373ffffffffffffffffffffffffffffffffffffffff1673ffffffffffffffffffffffffffffffffffffffff16815260200190815260200160002090508060010160009054906101000a900460ff168061031757506002805490508260ff1610155b15610322575061038d565b60018160010160006101000a81548160ff021916908315150217905550818160010160016101000a81548160ff021916908360ff160217905550806000015460028360ff168154811061037157fe5b9060005260206000200160000160008282540192505081905550505b5056fea265627a7a72305820b51752926c2b342518e18d06aaa7ff782ca1e357f78f6c1c9e3d5898894c3df664736f6c63430005090032",
					"opcodes": "PUSH1 0x80 PUSH1 0x40 MSTORE CALLVALUE DUP1 ISZERO PUSH2 0x10 JUMPI PUSH1 0x0 DUP1 REVERT JUMPDEST POP PUSH1 0x40 MLOAD PUSH2 0x52C CODESIZE SUB DUP1 PUSH2 0x52C DUP4 CODECOPY DUP2 DUP2 ADD PUSH1 0x40 MSTORE PUSH1 0x20 DUP2 LT ISZERO PUSH2 0x33 JUMPI PUSH1 0x0 DUP1 REVERT JUMPDEST DUP2 ADD SWAP1 DUP1 DUP1 MLOAD SWAP1 PUSH1 0x20 ADD SWAP1 SWAP3 SWAP2 SWAP1 POP POP POP CALLER PUSH1 0x0 DUP1 PUSH2 0x100 EXP DUP2 SLOAD DUP2 PUSH20 0xFFFFFFFFFFFFFFFFFFFFFFFFFFFFFFFFFFFFFFFF MUL NOT AND SWAP1 DUP4 PUSH20 0xFFFFFFFFFFFFFFFFFFFFFFFFFFFFFFFFFFFFFFFF AND MUL OR SWAP1 SSTORE POP PUSH1 0x2 PUSH1 0x1 PUSH1 0x0 DUP1 PUSH1 0x0 SWAP1 SLOAD SWAP1 PUSH2 0x100 EXP SWAP1 DIV PUSH20 0xFFFFFFFFFFFFFFFFFFFFFFFFFFFFFFFFFFFFFFFF AND PUSH20 0xFFFFFFFFFFFFFFFFFFFFFFFFFFFFFFFFFFFFFFFF AND PUSH20 0xFFFFFFFFFFFFFFFFFFFFFFFFFFFFFFFFFFFFFFFF AND DUP2 MSTORE PUSH1 0x20 ADD SWAP1 DUP2 MSTORE PUSH1 0x20 ADD PUSH1 0x0 KECCAK256 PUSH1 0x0 ADD DUP2 SWAP1 SSTORE POP DUP1 PUSH1 0xFF AND PUSH1 0x2 DUP2 PUSH2 0xFE SWAP2 SWAP1 PUSH2 0x105 JUMP JUMPDEST POP POP PUSH2 0x158 JUMP JUMPDEST DUP2 SLOAD DUP2 DUP4 SSTORE DUP2 DUP2 GT ISZERO PUSH2 0x12C JUMPI DUP2 DUP4 PUSH1 0x0 MSTORE PUSH1 0x20 PUSH1 0x0 KECCAK256 SWAP2 DUP3 ADD SWAP2 ADD PUSH2 0x12B SWAP2 SWAP1 PUSH2 0x131 JUMP JUMPDEST JUMPDEST POP POP POP JUMP JUMPDEST PUSH2 0x155 SWAP2 SWAP1 JUMPDEST DUP1 DUP3 GT ISZERO PUSH2 0x151 JUMPI PUSH1 0x0 DUP1 DUP3 ADD PUSH1 0x0 SWAP1 SSTORE POP PUSH1 0x1 ADD PUSH2 0x137 JUMP JUMPDEST POP SWAP1 JUMP JUMPDEST SWAP1 JUMP JUMPDEST PUSH2 0x3C5 DUP1 PUSH2 0x167 PUSH1 0x0 CODECOPY PUSH1 0x0 RETURN INVALID PUSH1 0x80 PUSH1 0x40 MSTORE CALLVALUE DUP1 ISZERO PUSH2 0x10 JUMPI PUSH1 0x0 DUP1 REVERT JUMPDEST POP PUSH1 0x4 CALLDATASIZE LT PUSH2 0x41 JUMPI PUSH1 0x0 CALLDATALOAD PUSH1 0xE0 SHR DUP1 PUSH4 0x4420E486 EQ PUSH2 0x46 JUMPI DUP1 PUSH4 0x609FF1BD EQ PUSH2 0x8A JUMPI DUP1 PUSH4 0xB3F98ADC EQ PUSH2 0xAE JUMPI JUMPDEST PUSH1 0x0 DUP1 REVERT JUMPDEST PUSH2 0x88 PUSH1 0x4 DUP1 CALLDATASIZE SUB PUSH1 0x20 DUP2 LT ISZERO PUSH2 0x5C JUMPI PUSH1 0x0 DUP1 REVERT JUMPDEST DUP2 ADD SWAP1 DUP1 DUP1 CALLDATALOAD PUSH20 0xFFFFFFFFFFFFFFFFFFFFFFFFFFFFFFFFFFFFFFFF AND SWAP1 PUSH1 0x20 ADD SWAP1 SWAP3 SWAP2 SWAP1 POP POP POP PUSH2 0xDF JUMP JUMPDEST STOP JUMPDEST PUSH2 0x92 PUSH2 0x237 JUMP JUMPDEST PUSH1 0x40 MLOAD DUP1 DUP3 PUSH1 0xFF AND PUSH1 0xFF AND DUP2 MSTORE PUSH1 0x20 ADD SWAP2 POP POP PUSH1 0x40 MLOAD DUP1 SWAP2 SUB SWAP1 RETURN JUMPDEST PUSH2 0xDD PUSH1 0x4 DUP1 CALLDATASIZE SUB PUSH1 0x20 DUP2 LT ISZERO PUSH2 0xC4 JUMPI PUSH1 0x0 DUP1 REVERT JUMPDEST DUP2 ADD SWAP1 DUP1 DUP1 CALLDATALOAD PUSH1 0xFF AND SWAP1 PUSH1 0x20 ADD SWAP1 SWAP3 SWAP2 SWAP1 POP POP POP PUSH2 0x2AF JUMP JUMPDEST STOP JUMPDEST PUSH1 0x0 DUP1 SWAP1 SLOAD SWAP1 PUSH2 0x100 EXP SWAP1 DIV PUSH20 0xFFFFFFFFFFFFFFFFFFFFFFFFFFFFFFFFFFFFFFFF AND PUSH20 0xFFFFFFFFFFFFFFFFFFFFFFFFFFFFFFFFFFFFFFFF AND CALLER PUSH20 0xFFFFFFFFFFFFFFFFFFFFFFFFFFFFFFFFFFFFFFFF AND EQ ISZERO DUP1 PUSH2 0x187 JUMPI POP PUSH1 0x1 PUSH1 0x0 DUP3 PUSH20 0xFFFFFFFFFFFFFFFFFFFFFFFFFFFFFFFFFFFFFFFF AND PUSH20 0xFFFFFFFFFFFFFFFFFFFFFFFFFFFFFFFFFFFFFFFF AND DUP2 MSTORE PUSH1 0x20 ADD SWAP1 DUP2 MSTORE PUSH1 0x20 ADD PUSH1 0x0 KECCAK256 PUSH1 0x1 ADD PUSH1 0x0 SWAP1 SLOAD SWAP1 PUSH2 0x100 EXP SWAP1 DIV PUSH1 0xFF AND JUMPDEST ISZERO PUSH2 0x191 JUMPI PUSH2 0x234 JUMP JUMPDEST PUSH1 0x1 DUP1 PUSH1 0x0 DUP4 PUSH20 0xFFFFFFFFFFFFFFFFFFFFFFFFFFFFFFFFFFFFFFFF AND PUSH20 0xFFFFFFFFFFFFFFFFFFFFFFFFFFFFFFFFFFFFFFFF AND DUP2 MSTORE PUSH1 0x20 ADD SWAP1 DUP2 MSTORE PUSH1 0x20 ADD PUSH1 0x0 KECCAK256 PUSH1 0x0 ADD DUP2 SWAP1 SSTORE POP PUSH1 0x0 PUSH1 0x1 PUSH1 0x0 DUP4 PUSH20 0xFFFFFFFFFFFFFFFFFFFFFFFFFFFFFFFFFFFFFFFF AND PUSH20 0xFFFFFFFFFFFFFFFFFFFFFFFFFFFFFFFFFFFFFFFF AND DUP2 MSTORE PUSH1 0x20 ADD SWAP1 DUP2 MSTORE PUSH1 0x20 ADD PUSH1 0x0 KECCAK256 PUSH1 0x1 ADD PUSH1 0x0 PUSH2 0x100 EXP DUP2 SLOAD DUP2 PUSH1 0xFF MUL NOT AND SWAP1 DUP4 ISZERO ISZERO MUL OR SWAP1 SSTORE POP JUMPDEST POP JUMP JUMPDEST PUSH1 0x0 DUP1 PUSH1 0x0 SWAP1 POP PUSH1 0x0 DUP1 SWAP1 POP JUMPDEST PUSH1 0x2 DUP1 SLOAD SWAP1 POP DUP2 PUSH1 0xFF AND LT ISZERO PUSH2 0x2AA JUMPI DUP2 PUSH1 0x2 DUP3 PUSH1 0xFF AND DUP2 SLOAD DUP2 LT PUSH2 0x265 JUMPI INVALID JUMPDEST SWAP1 PUSH1 0x0 MSTORE PUSH1 0x20 PUSH1 0x0 KECCAK256 ADD PUSH1 0x0 ADD SLOAD GT ISZERO PUSH2 0x29D JUMPI PUSH1 0x2 DUP2 PUSH1 0xFF AND DUP2 SLOAD DUP2 LT PUSH2 0x289 JUMPI INVALID JUMPDEST SWAP1 PUSH1 0x0 MSTORE PUSH1 0x20 PUSH1 0x0 KECCAK256 ADD PUSH1 0x0 ADD SLOAD SWAP2 POP DUP1 SWAP3 POP JUMPDEST DUP1 DUP1 PUSH1 0x1 ADD SWAP2 POP POP PUSH2 0x244 JUMP JUMPDEST POP POP SWAP1 JUMP JUMPDEST PUSH1 0x0 PUSH1 0x1 PUSH1 0x0 CALLER PUSH20 0xFFFFFFFFFFFFFFFFFFFFFFFFFFFFFFFFFFFFFFFF AND PUSH20 0xFFFFFFFFFFFFFFFFFFFFFFFFFFFFFFFFFFFFFFFF AND DUP2 MSTORE PUSH1 0x20 ADD SWAP1 DUP2 MSTORE PUSH1 0x20 ADD PUSH1 0x0 KECCAK256 SWAP1 POP DUP1 PUSH1 0x1 ADD PUSH1 0x0 SWAP1 SLOAD SWAP1 PUSH2 0x100 EXP SWAP1 DIV PUSH1 0xFF AND DUP1 PUSH2 0x317 JUMPI POP PUSH1 0x2 DUP1 SLOAD SWAP1 POP DUP3 PUSH1 0xFF AND LT ISZERO JUMPDEST ISZERO PUSH2 0x322 JUMPI POP PUSH2 0x38D JUMP JUMPDEST PUSH1 0x1 DUP2 PUSH1 0x1 ADD PUSH1 0x0 PUSH2 0x100 EXP DUP2 SLOAD DUP2 PUSH1 0xFF MUL NOT AND SWAP1 DUP4 ISZERO ISZERO MUL OR SWAP1 SSTORE POP DUP2 DUP2 PUSH1 0x1 ADD PUSH1 0x1 PUSH2 0x100 EXP DUP2 SLOAD DUP2 PUSH1 0xFF MUL NOT AND SWAP1 DUP4 PUSH1 0xFF AND MUL OR SWAP1 SSTORE POP DUP1 PUSH1 0x0 ADD SLOAD PUSH1 0x2 DUP4 PUSH1 0xFF AND DUP2 SLOAD DUP2 LT PUSH2 0x371 JUMPI INVALID JUMPDEST SWAP1 PUSH1 0x0 MSTORE PUSH1 0x20 PUSH1 0x0 KECCAK256 ADD PUSH1 0x0 ADD PUSH1 0x0 DUP3 DUP3 SLOAD ADD SWAP3 POP POP DUP2 SWAP1 SSTORE POP POP JUMPDEST POP JUMP INVALID LOG2 PUSH6 0x627A7A723058 KECCAK256 0xb5 OR MSTORE SWAP3 PUSH13 0x2B342518E18D06AAA7FF782CA1 0xe3 JUMPI 0xf7 DUP16 PUSH13 0x1C9E3D5898894C3DF664736F6C PUSH4 0x43000509 STOP ORIGIN "
				},
				"gasEstimates": {
					"creation": {
						"codeDepositCost": "193000",
						"executionCost": "infinite",
						"totalCost": "infinite"
					},
					"external": {
						"register(address)": "41316",
						"vote(uint8)": "62193",
						"winningProposal()": "infinite"
					}
				},
				"methodIdentifiers": {
					"register(address)": "4420e486",
					"vote(uint8)": "b3f98adc",
					"winningProposal()": "609ff1bd"
				}
			},
			"userdoc": {
				"methods": {
					"constructor": "Create a new ballot with $(_numProposals) different proposals.",
					"register(address)": {
						"notice": "Give $(toVoter) the right to vote on this ballot. May only be called by $(chairperson)."
					},
					"vote(uint8)": {
						"notice": "Give a single vote to proposal $(toProposal)."
					}
				}
			}
		}
	}
}