{
	"": {
		"Ballot": {
			"abi": [
				{
					"constant": false,
					"inputs": [
						{
							"name": "toVoter",
							"type": "address"
						}
					],
					"name": "register",
					"outputs": [],
					"payable": false,
					"type": "function",
					"stateMutability": "nonpayable"
				},
				{
					"constant": true,
					"inputs": [],
					"name": "winningProposal",
					"outputs": [
						{
							"name": "_winningProposal",
							"type": "uint8"
						}
					],
					"payable": false,
					"type": "function",
					"stateMutability": "view"
				},
				{
					"constant": false,
					"inputs": [
						{
							"name": "toProposal",
							"type": "uint8"
						}
					],
					"name": "vote",
					"outputs": [],
					"payable": false,
					"type": "function",
					"stateMutability": "nonpayable"
				},
				{
					"inputs": [
						{
							"name": "_numProposals",
							"type": "uint8"
						}
					],
					"type": "constructor",
					"payable": true,
					"stateMutability": "payable"
				}
			],
			"evm": {
				"bytecode": {
					"object": "6060604052604051602080610463833981016040528080519060200190919050505b33600060006101000a81548173ffffffffffffffffffffffffffffffffffffffff02191690830217905550600260016000506000600060009054906101000a900473ffffffffffffffffffffffffffffffffffffffff1673ffffffffffffffffffffffffffffffffffffffff168152602001908152602001600020600050600001600050819055508060ff166002600050818154818355818115116100fc578183600052602060002091820191016100fb91906100d9565b808211156100f75760006000820160005060009055506001016100d9565b5090565b5b505050505b50610353806101106000396000f360606040526000357c0100000000000000000000000000000000000000000000000000000000900480634420e48614610052578063609ff1bd1461006f578063b3f98adc1461009a5761004d565b610002565b346100025761006d60048080359060200190919050506100b7565b005b346100025761008160048050506101e2565b604051808260ff16815260200191505060405180910390f35b34610002576100b56004808035906020019091905050610279565b005b600060009054906101000a900473ffffffffffffffffffffffffffffffffffffffff1673ffffffffffffffffffffffffffffffffffffffff163373ffffffffffffffffffffffffffffffffffffffff161415806101505750600160005060008273ffffffffffffffffffffffffffffffffffffffff16815260200190815260200160002060005060010160009054906101000a900460ff165b1561015a576101df565b6001600160005060008373ffffffffffffffffffffffffffffffffffffffff168152602001908152602001600020600050600001600050819055506000600160005060008373ffffffffffffffffffffffffffffffffffffffff16815260200190815260200160002060005060010160006101000a81548160ff021916908302179055505b50565b60006000600060009150600090505b6002600050805490508160ff161015610273578160026000508260ff16815481101561000257906000526020600020900160005b506000016000505411156102655760026000508160ff16815481101561000257906000526020600020900160005b50600001600050549150815080925082505b5b80806001019150506101f1565b5b505090565b6000600160005060003373ffffffffffffffffffffffffffffffffffffffff16815260200190815260200160002060005090508060010160009054906101000a900460ff16806102d457506002600050805490508260ff1610155b156102de5761034f565b60018160010160006101000a81548160ff02191690830217905550818160010160016101000a81548160ff02191690830217905550806000016000505460026000508360ff16815481101561000257906000526020600020900160005b506000016000828282505401925050819055505b505056",
					"opcodes": "PUSH1 0x60 PUSH1 0x40 MSTORE PUSH1 0x40 MLOAD PUSH1 0x20 DUP1 PUSH2 0x463 DUP4 CODECOPY DUP2 ADD PUSH1 0x40 MSTORE DUP1 DUP1 MLOAD SWAP1 PUSH1 0x20 ADD SWAP1 SWAP2 SWAP1 POP POP JUMPDEST CALLER PUSH1 0x0 PUSH1 0x0 PUSH2 0x100 EXP DUP2 SLOAD DUP2 PUSH20 0xFFFFFFFFFFFFFFFFFFFFFFFFFFFFFFFFFFFFFFFF MUL NOT AND SWAP1 DUP4 MUL OR SWAP1 SSTORE POP PUSH1 0x2 PUSH1 0x1 PUSH1 0x0 POP PUSH1 0x0 PUSH1 0x0 PUSH1 0x0 SWAP1 SLOAD SWAP1 PUSH2 0x100 EXP SWAP1 DIV PUSH20 0xFFFFFFFFFFFFFFFFFFFFFFFFFFFFFFFFFFFFFFFF AND PUSH20 0xFFFFFFFFFFFFFFFFFFFFFFFFFFFFFFFFFFFFFFFF AND DUP2 MSTORE PUSH1 0x20 ADD SWAP1 DUP2 MSTORE PUSH1 0x20 ADD PUSH1 0x0 SHA3 PUSH1 0x0 POP PUSH1 0x0 ADD PUSH1 0x0 POP DUP2 SWAP1 SSTORE POP DUP1 PUSH1 0xFF AND PUSH1 0x2 PUSH1 0x0 POP DUP2 DUP2 SLOAD DUP2 DUP4 SSTORE DUP2 DUP2 ISZERO GT PUSH2 0xFC JUMPI DUP2 DUP4 PUSH1 0x0 MSTORE PUSH1 0x20 PUSH1 0x0 SHA3 SWAP2 DUP3 ADD SWAP2 ADD PUSH2 0xFB SWAP2 SWAP1 PUSH2 0xD9 JUMP JUMPDEST DUP1 DUP3 GT ISZERO PUSH2 0xF7 JUMPI PUSH1 0x0 PUSH1 0x0 DUP3 ADD PUSH1 0x0 POP PUSH1 0x0 SWAP1 SSTORE POP PUSH1 0x1 ADD PUSH2 0xD9 JUMP JUMPDEST POP SWAP1 JUMP JUMPDEST JUMPDEST POP POP POP POP JUMPDEST POP PUSH2 0x353 DUP1 PUSH2 0x110 PUSH1 0x0 CODECOPY PUSH1 0x0 RETURN PUSH1 0x60 PUSH1 0x40 MSTORE PUSH1 0x0 CALLDATALOAD PUSH29 0x100000000000000000000000000000000000000000000000000000000 SWAP1 DIV DUP1 PUSH4 0x4420E486 EQ PUSH2 0x52 JUMPI DUP1 PUSH4 0x609FF1BD EQ PUSH2 0x6F JUMPI DUP1 PUSH4 0xB3F98ADC EQ PUSH2 0x9A JUMPI PUSH2 0x4D JUMP JUMPDEST PUSH2 0x2 JUMP JUMPDEST CALLVALUE PUSH2 0x2 JUMPI PUSH2 0x6D PUSH1 0x4 DUP1 DUP1 CALLDATALOAD SWAP1 PUSH1 0x20 ADD SWAP1 SWAP2 SWAP1 POP POP PUSH2 0xB7 JUMP JUMPDEST STOP JUMPDEST CALLVALUE PUSH2 0x2 JUMPI PUSH2 0x81 PUSH1 0x4 DUP1 POP POP PUSH2 0x1E2 JUMP JUMPDEST PUSH1 0x40 MLOAD DUP1 DUP3 PUSH1 0xFF AND DUP2 MSTORE PUSH1 0x20 ADD SWAP2 POP POP PUSH1 0x40 MLOAD DUP1 SWAP2 SUB SWAP1 RETURN JUMPDEST CALLVALUE PUSH2 0x2 JUMPI PUSH2 0xB5 PUSH1 0x4 DUP1 DUP1 CALLDATALOAD SWAP1 PUSH1 0x20 ADD SWAP1 SWAP2 SWAP1 POP POP PUSH2 0x279 JUMP JUMPDEST STOP JUMPDEST PUSH1 0x0 PUSH1 0x0 SWAP1 SLOAD SWAP1 PUSH2 0x100 EXP SWAP1 DIV PUSH20 0xFFFFFFFFFFFFFFFFFFFFFFFFFFFFFFFFFFFFFFFF AND PUSH20 0xFFFFFFFFFFFFFFFFFFFFFFFFFFFFFFFFFFFFFFFF AND CALLER PUSH20 0xFFFFFFFFFFFFFFFFFFFFFFFFFFFFFFFFFFFFFFFF AND EQ ISZERO DUP1 PUSH2 0x150 JUMPI POP PUSH1 0x1 PUSH1 0x0 POP PUSH1 0x0 DUP3 PUSH20 0xFFFFFFFFFFFFFFFFFFFFFFFFFFFFFFFFFFFFFFFF AND DUP2 MSTORE PUSH1 0x20 ADD SWAP1 DUP2 MSTORE PUSH1 0x20 ADD PUSH1 0x0 SHA3 PUSH1 0x0 POP PUSH1 0x1 ADD PUSH1 0x0 SWAP1 SLOAD SWAP1 PUSH2 0x100 EXP SWAP1 DIV PUSH1 0xFF AND JUMPDEST ISZERO PUSH2 0x15A JUMPI PUSH2 0x1DF JUMP JUMPDEST PUSH1 0x1 PUSH1 0x1 PUSH1 0x0 POP PUSH1 0x0 DUP4 PUSH20 0xFFFFFFFFFFFFFFFFFFFFFFFFFFFFFFFFFFFFFFFF AND DUP2 MSTORE PUSH1 0x20 ADD SWAP1 DUP2 MSTORE PUSH1 0x20 ADD PUSH1 0x0 SHA3 PUSH1 0x0 POP PUSH1 0x0 ADD PUSH1 0x0 POP DUP2 SWAP1 SSTORE POP PUSH1 0x0 PUSH1 0x1 PUSH1 0x0 POP PUSH1 0x0 DUP4 PUSH20 0xFFFFFFFFFFFFFFFFFFFFFFFFFFFFFFFFFFFFFFFF AND DUP2 MSTORE PUSH1 0x20 ADD SWAP1 DUP2 MSTORE PUSH1 0x20 ADD PUSH1 0x0 SHA3 PUSH1 0x0 POP PUSH1 0x1 ADD PUSH1 0x0 PUSH2 0x100 EXP DUP2 SLOAD DUP2 PUSH1 0xFF MUL NOT AND SWAP1 DUP4 MUL OR SWAP1 SSTORE POP JUMPDEST POP JUMP JUMPDEST PUSH1 0x0 PUSH1 0x0 PUSH1 0x0 PUSH1 0x0 SWAP2 POP PUSH1 0x0 SWAP1 POP JUMPDEST PUSH1 0x2 PUSH1 0x0 POP DUP1 SLOAD SWAP1 POP DUP2 PUSH1 0xFF AND LT ISZERO PUSH2 0x273 JUMPI DUP2 PUSH1 0x2 PUSH1 0x0 POP DUP3 PUSH1 0xFF AND DUP2 SLOAD DUP2 LT ISZERO PUSH2 0x2 JUMPI SWAP1 PUSH1 0x0 MSTORE PUSH1 0x20 PUSH1 0x0 SHA3 SWAP1 ADD PUSH1 0x0 JUMPDEST POP PUSH1 0x0 ADD PUSH1 0x0 POP SLOAD GT ISZERO PUSH2 0x265 JUMPI PUSH1 0x2 PUSH1 0x0 POP DUP2 PUSH1 0xFF AND DUP2 SLOAD DUP2 LT ISZERO PUSH2 0x2 JUMPI SWAP1 PUSH1 0x0 MSTORE PUSH1 0x20 PUSH1 0x0 SHA3 SWAP1 ADD PUSH1 0x0 JUMPDEST POP PUSH1 0x0 ADD PUSH1 0x0 POP SLOAD SWAP2 POP DUP2 POP DUP1 SWAP3 POP DUP3 POP JUMPDEST JUMPDEST DUP1 DUP1 PUSH1 0x1 ADD SWAP2 POP POP PUSH2 0x1F1 JUMP JUMPDEST JUMPDEST POP POP SWAP1 JUMP JUMPDEST PUSH1 0x0 PUSH1 0x1 PUSH1 0x0 POP PUSH1 0x0 CALLER PUSH20 0xFFFFFFFFFFFFFFFFFFFFFFFFFFFFFFFFFFFFFFFF AND DUP2 MSTORE PUSH1 0x20 ADD SWAP1 DUP2 MSTORE PUSH1 0x20 ADD PUSH1 0x0 SHA3 PUSH1 0x0 POP SWAP1 POP DUP1 PUSH1 0x1 ADD PUSH1 0x0 SWAP1 SLOAD SWAP1 PUSH2 0x100 EXP SWAP1 DIV PUSH1 0xFF AND DUP1 PUSH2 0x2D4 JUMPI POP PUSH1 0x2 PUSH1 0x0 POP DUP1 SLOAD SWAP1 POP DUP3 PUSH1 0xFF AND LT ISZERO JUMPDEST ISZERO PUSH2 0x2DE JUMPI PUSH2 0x34F JUMP JUMPDEST PUSH1 0x1 DUP2 PUSH1 0x1 ADD PUSH1 0x0 PUSH2 0x100 EXP DUP2 SLOAD DUP2 PUSH1 0xFF MUL NOT AND SWAP1 DUP4 MUL OR SWAP1 SSTORE POP DUP2 DUP2 PUSH1 0x1 ADD PUSH1 0x1 PUSH2 0x100 EXP DUP2 SLOAD DUP2 PUSH1 0xFF MUL NOT AND SWAP1 DUP4 MUL OR SWAP1 SSTORE POP DUP1 PUSH1 0x0 ADD PUSH1 0x0 POP SLOAD PUSH1 0x2 PUSH1 0x0 POP DUP4 PUSH1 0xFF AND DUP2 SLOAD DUP2 LT ISZERO PUSH2 0x2 JUMPI SWAP1 PUSH1 0x0 MSTORE PUSH1 0x20 PUSH1 0x0 SHA3 SWAP1 ADD PUSH1 0x0 JUMPDEST POP PUSH1 0x0 ADD PUSH1 0x0 DUP3 DUP3 DUP3 POP SLOAD ADD SWAP3 POP POP DUP2 SWAP1 SSTORE POP JUMPDEST POP POP JUMP ",
					"linkReferences": {}
				},
				"methodIdentifiers": {
					"register(address)": "4420e486",
					"vote(uint8)": "b3f98adc",
					"winningProposal()": "609ff1bd"
				},
				"gasEstimates": {
					"creation": {
						"codeDepositCost": "170200",
						"executionCost": "infinite"
					},
					"internal": {},
					"external": {
						"register(address)": "40798",
						"vote(uint8)": "61047",
						"winningProposal()": "infinite"
					}
				}
			}
		}
	}
}