{
	"data": {
		"bytecode": {
			"linkReferences": {},
			"object": "608060405234801561001057600080fd5b5060008060006101000a81548160ff0219169083600381111561002f57fe5b02179055504260018190555061020d8061004a6000396000f3fe608060405234801561001057600080fd5b50600436106100415760003560e01c806384ecdaf614610046578063c040e6b814610050578063d95660be1461007c575b600080fd5b61004e61009a565b005b6100586101c0565b6040518082600381111561006857fe5b60ff16815260200191505060405180910390f35b6100846101d2565b6040518082815260200191505060405180910390f35b42600281905550600a6001540160025411156101bd57600254600181905550600060038111156100c657fe5b6000809054906101000a900460ff1660038111156100e057fe5b141561010e5760016000806101000a81548160ff0219169083600381111561010457fe5b02179055506101be565b6001600381111561011b57fe5b6000809054906101000a900460ff16600381111561013557fe5b14156101635760026000806101000a81548160ff0219169083600381111561015957fe5b02179055506101be565b6002600381111561017057fe5b6000809054906101000a900460ff16600381111561018a57fe5b14156101b85760036000806101000a81548160ff021916908360038111156101ae57fe5b02179055506101be565b6101be565b5b565b6000809054906101000a900460ff1681565b6002548156fea265627a7a72305820c75c901d9f695f6f2073d5b408153771584c7a9981401f910574b4f9019974fd64736f6c63430005090032",
			"opcodes": "PUSH1 0x80 PUSH1 0x40 MSTORE CALLVALUE DUP1 ISZERO PUSH2 0x10 JUMPI PUSH1 0x0 DUP1 REVERT JUMPDEST POP PUSH1 0x0 DUP1 PUSH1 0x0 PUSH2 0x100 EXP DUP2 SLOAD DUP2 PUSH1 0xFF MUL NOT AND SWAP1 DUP4 PUSH1 0x3 DUP2 GT ISZERO PUSH2 0x2F JUMPI INVALID JUMPDEST MUL OR SWAP1 SSTORE POP TIMESTAMP PUSH1 0x1 DUP2 SWAP1 SSTORE POP PUSH2 0x20D DUP1 PUSH2 0x4A PUSH1 0x0 CODECOPY PUSH1 0x0 RETURN INVALID PUSH1 0x80 PUSH1 0x40 MSTORE CALLVALUE DUP1 ISZERO PUSH2 0x10 JUMPI PUSH1 0x0 DUP1 REVERT JUMPDEST POP PUSH1 0x4 CALLDATASIZE LT PUSH2 0x41 JUMPI PUSH1 0x0 CALLDATALOAD PUSH1 0xE0 SHR DUP1 PUSH4 0x84ECDAF6 EQ PUSH2 0x46 JUMPI DUP1 PUSH4 0xC040E6B8 EQ PUSH2 0x50 JUMPI DUP1 PUSH4 0xD95660BE EQ PUSH2 0x7C JUMPI JUMPDEST PUSH1 0x0 DUP1 REVERT JUMPDEST PUSH2 0x4E PUSH2 0x9A JUMP JUMPDEST STOP JUMPDEST PUSH2 0x58 PUSH2 0x1C0 JUMP JUMPDEST PUSH1 0x40 MLOAD DUP1 DUP3 PUSH1 0x3 DUP2 GT ISZERO PUSH2 0x68 JUMPI INVALID JUMPDEST PUSH1 0xFF AND DUP2 MSTORE PUSH1 0x20 ADD SWAP2 POP POP PUSH1 0x40 MLOAD DUP1 SWAP2 SUB SWAP1 RETURN JUMPDEST PUSH2 0x84 PUSH2 0x1D2 JUMP JUMPDEST PUSH1 0x40 MLOAD DUP1 DUP3 DUP2 MSTORE PUSH1 0x20 ADD SWAP2 POP POP PUSH1 0x40 MLOAD DUP1 SWAP2 SUB SWAP1 RETURN JUMPDEST TIMESTAMP PUSH1 0x2 DUP2 SWAP1 SSTORE POP PUSH1 0xA PUSH1 0x1 SLOAD ADD PUSH1 0x2 SLOAD GT ISZERO PUSH2 0x1BD JUMPI PUSH1 0x2 SLOAD PUSH1 0x1 DUP2 SWAP1 SSTORE POP PUSH1 0x0 PUSH1 0x3 DUP2 GT ISZERO PUSH2 0xC6 JUMPI INVALID JUMPDEST PUSH1 0x0 DUP1 SWAP1 SLOAD SWAP1 PUSH2 0x100 EXP SWAP1 DIV PUSH1 0xFF AND PUSH1 0x3 DUP2 GT ISZERO PUSH2 0xE0 JUMPI INVALID JUMPDEST EQ ISZERO PUSH2 0x10E JUMPI PUSH1 0x1 PUSH1 0x0 DUP1 PUSH2 0x100 EXP DUP2 SLOAD DUP2 PUSH1 0xFF MUL NOT AND SWAP1 DUP4 PUSH1 0x3 DUP2 GT ISZERO PUSH2 0x104 JUMPI INVALID JUMPDEST MUL OR SWAP1 SSTORE POP PUSH2 0x1BE JUMP JUMPDEST PUSH1 0x1 PUSH1 0x3 DUP2 GT ISZERO PUSH2 0x11B JUMPI INVALID JUMPDEST PUSH1 0x0 DUP1 SWAP1 SLOAD SWAP1 PUSH2 0x100 EXP SWAP1 DIV PUSH1 0xFF AND PUSH1 0x3 DUP2 GT ISZERO PUSH2 0x135 JUMPI INVALID JUMPDEST EQ ISZERO PUSH2 0x163 JUMPI PUSH1 0x2 PUSH1 0x0 DUP1 PUSH2 0x100 EXP DUP2 SLOAD DUP2 PUSH1 0xFF MUL NOT AND SWAP1 DUP4 PUSH1 0x3 DUP2 GT ISZERO PUSH2 0x159 JUMPI INVALID JUMPDEST MUL OR SWAP1 SSTORE POP PUSH2 0x1BE JUMP JUMPDEST PUSH1 0x2 PUSH1 0x3 DUP2 GT ISZERO PUSH2 0x170 JUMPI INVALID JUMPDEST PUSH1 0x0 DUP1 SWAP1 SLOAD SWAP1 PUSH2 0x100 EXP SWAP1 DIV PUSH1 0xFF AND PUSH1 0x3 DUP2 GT ISZERO PUSH2 0x18A JUMPI INVALID JUMPDEST EQ ISZERO PUSH2 0x1B8 JUMPI PUSH1 0x3 PUSH1 0x0 DUP1 PUSH2 0x100 EXP DUP2 SLOAD DUP2 PUSH1 0xFF MUL NOT AND SWAP1 DUP4 PUSH1 0x3 DUP2 GT ISZERO PUSH2 0x1AE JUMPI INVALID JUMPDEST MUL OR SWAP1 SSTORE POP PUSH2 0x1BE JUMP JUMPDEST PUSH2 0x1BE JUMP JUMPDEST JUMPDEST JUMP JUMPDEST PUSH1 0x0 DUP1 SWAP1 SLOAD SWAP1 PUSH2 0x100 EXP SWAP1 DIV PUSH1 0xFF AND DUP2 JUMP JUMPDEST PUSH1 0x2 SLOAD DUP2 JUMP INVALID LOG2 PUSH6 0x627A7A723058 KECCAK256 0xc7 0x5c SWAP1 SAR SWAP16 PUSH10 0x5F6F2073D5B408153771 PC 0x4c PUSH27 0x9981401F910574B4F9019974FD64736F6C63430005090032000000 "
		},
		"gasEstimates": {
			"creation": {
				"codeDepositCost": "105000",
				"executionCost": "40453",
				"totalCost": "145453"
			},
			"external": {
				"advanceState()": "62020",
				"stage()": "473",
				"timeNow()": "427"
			}
		},
		"methodIdentifiers": {
			"advanceState()": "84ecdaf6",
			"stage()": "c040e6b8",
			"timeNow()": "d95660be"
		}
	},
	"abi": [
		{
			"constant": false,
			"inputs": [],
			"name": "advanceState",
			"outputs": [],
			"payable": false,
			"stateMutability": "nonpayable",
			"type": "function"
		},
		{
			"constant": true,
			"inputs": [],
			"name": "stage",
			"outputs": [
				{
					"name": "",
					"type": "uint8"
				}
			],
			"payable": false,
			"stateMutability": "view",
			"type": "function"
		},
		{
			"constant": true,
			"inputs": [],
			"name": "timeNow",
			"outputs": [
				{
					"name": "",
					"type": "uint256"
				}
			],
			"payable": false,
			"stateMutability": "view",
			"type": "function"
		},
		{
			"inputs": [],
			"payable": false,
			"stateMutability": "nonpayable",
			"type": "constructor"
		}
	]
}